{
  "_format": "hh-sol-artifact-1",
  "contractName": "OracleMock",
  "sourceName": "contracts/OracleMock.sol",
  "abi": [
    {
      "inputs": [],
      "stateMutability": "nonpayable",
      "type": "constructor"
    },
    {
      "inputs": [],
      "name": "decimals",
      "outputs": [
        {
          "internalType": "uint8",
          "name": "",
          "type": "uint8"
        }
      ],
      "stateMutability": "view",
      "type": "function"
    },
    {
      "inputs": [],
      "name": "description",
      "outputs": [
        {
          "internalType": "string",
          "name": "",
          "type": "string"
        }
      ],
      "stateMutability": "view",
      "type": "function"
    },
    {
      "inputs": [
        {
          "internalType": "uint80",
          "name": "_roundId",
          "type": "uint80"
        }
      ],
      "name": "getRoundData",
      "outputs": [
        {
          "internalType": "uint80",
          "name": "roundId",
          "type": "uint80"
        },
        {
          "internalType": "int256",
          "name": "answer",
          "type": "int256"
        },
        {
          "internalType": "uint256",
          "name": "startedAt",
          "type": "uint256"
        },
        {
          "internalType": "uint256",
          "name": "updatedAt",
          "type": "uint256"
        },
        {
          "internalType": "uint80",
          "name": "answeredInRound",
          "type": "uint80"
        }
      ],
      "stateMutability": "view",
      "type": "function"
    },
    {
      "inputs": [],
      "name": "latestRoundData",
      "outputs": [
        {
          "internalType": "uint80",
          "name": "",
          "type": "uint80"
        },
        {
          "internalType": "int256",
          "name": "",
          "type": "int256"
        },
        {
          "internalType": "uint256",
          "name": "",
          "type": "uint256"
        },
        {
          "internalType": "uint256",
          "name": "",
          "type": "uint256"
        },
        {
          "internalType": "uint80",
          "name": "",
          "type": "uint80"
        }
      ],
      "stateMutability": "view",
      "type": "function"
    },
    {
      "inputs": [],
      "name": "version",
      "outputs": [
        {
          "internalType": "uint256",
          "name": "",
          "type": "uint256"
        }
      ],
      "stateMutability": "view",
      "type": "function"
    }
  ],
  "bytecode": "0x608060405234801561001057600080fd5b50610300806100206000396000f3fe608060405234801561001057600080fd5b50600436106100675760003560e01c80637284e416116100505780637284e4161461008f5780639a6fc8f5146100ce578063feaf968c1461012157600080fd5b8063313ce5671461006c57806354fd4d5014610080575b600080fd5b604051600081526020015b60405180910390f35b60405160008152602001610077565b604080518082018252600681527f6d656d6f727900000000000000000000000000000000000000000000000000006020820152905161007791906101d3565b6100ea6100dc366004610228565b506000908190819081908190565b6040805169ffffffffffffffffffff968716815260208101959095528401929092526060830152909116608082015260a001610077565b6100ea60008060008060008060034260405160200161014291815260200190565b6040516020818303038152906040528051906020012060001c610165919061025b565b610173906305f5e100610293565b604080514260208201526305f5e10091016040516020818303038152906040528051906020012060001c6101a7919061025b565b6101b5906311e1a3006102b2565b6101bf91906102b2565b600197909650879550859450849350915050565b600060208083528351808285015260005b81811015610200578581018301518582016040015282016101e4565b81811115610212576000604083870101525b50601f01601f1916929092016040019392505050565b60006020828403121561023a57600080fd5b813569ffffffffffffffffffff8116811461025457600080fd5b9392505050565b60008261027857634e487b7160e01b600052601260045260246000fd5b500690565b634e487b7160e01b600052601160045260246000fd5b60008160001904831182151516156102ad576102ad61027d565b500290565b600082198211156102c5576102c561027d565b50019056fea2646970667358221220c13dd26ad5ce36aae291a952743767a40a54a11a3f8a65fa3ba9d1d78335c4d264736f6c63430008080033",
  "linkReferences": {},
  "deployedLinkReferences": {}
}