{
  "_format": "hh-sol-artifact-1",
  "contractName": "BinaryStaking",
  "sourceName": "contracts/BinaryStaking.sol",
  "abi": [
    {
      "inputs": [
        {
          "internalType": "address",
          "name": "token",
          "type": "address"
        }
      ],
      "stateMutability": "nonpayable",
      "type": "constructor"
    },
    {
      "anonymous": false,
      "inputs": [
        {
          "indexed": true,
          "internalType": "address",
          "name": "user",
          "type": "address"
        },
        {
          "indexed": false,
          "internalType": "uint256",
          "name": "amount",
          "type": "uint256"
        }
      ],
      "name": "Release",
      "type": "event"
    },
    {
      "anonymous": false,
      "inputs": [
        {
          "indexed": false,
          "internalType": "uint256",
          "name": "amount",
          "type": "uint256"
        }
      ],
      "name": "Reward",
      "type": "event"
    },
    {
      "anonymous": false,
      "inputs": [
        {
          "indexed": true,
          "internalType": "address",
          "name": "user",
          "type": "address"
        },
        {
          "indexed": false,
          "internalType": "uint256",
          "name": "amount",
          "type": "uint256"
        }
      ],
      "name": "Staked",
      "type": "event"
    },
    {
      "anonymous": false,
      "inputs": [
        {
          "indexed": true,
          "internalType": "address",
          "name": "user",
          "type": "address"
        },
        {
          "indexed": false,
          "internalType": "uint256",
          "name": "amount",
          "type": "uint256"
        }
      ],
      "name": "Unstaked",
      "type": "event"
    },
    {
      "inputs": [],
      "name": "accumulatedRewards",
      "outputs": [
        {
          "internalType": "uint256",
          "name": "",
          "type": "uint256"
        }
      ],
      "stateMutability": "view",
      "type": "function"
    },
    {
      "inputs": [],
      "name": "binToken",
      "outputs": [
        {
          "internalType": "contract IERC20",
          "name": "",
          "type": "address"
        }
      ],
      "stateMutability": "view",
      "type": "function"
    },
    {
      "inputs": [
        {
          "internalType": "address",
          "name": "user",
          "type": "address"
        }
      ],
      "name": "ownedDividends",
      "outputs": [
        {
          "internalType": "uint256",
          "name": "",
          "type": "uint256"
        }
      ],
      "stateMutability": "view",
      "type": "function"
    },
    {
      "inputs": [],
      "name": "receiveFunds",
      "outputs": [],
      "stateMutability": "payable",
      "type": "function"
    },
    {
      "inputs": [],
      "name": "release",
      "outputs": [],
      "stateMutability": "nonpayable",
      "type": "function"
    },
    {
      "inputs": [
        {
          "internalType": "uint256",
          "name": "amount",
          "type": "uint256"
        }
      ],
      "name": "stake",
      "outputs": [],
      "stateMutability": "nonpayable",
      "type": "function"
    },
    {
      "inputs": [
        {
          "internalType": "address",
          "name": "",
          "type": "address"
        }
      ],
      "name": "stakingBalance",
      "outputs": [
        {
          "internalType": "uint256",
          "name": "stakedBin",
          "type": "uint256"
        },
        {
          "internalType": "uint256",
          "name": "valueWhenLastReleased",
          "type": "uint256"
        }
      ],
      "stateMutability": "view",
      "type": "function"
    },
    {
      "inputs": [
        {
          "internalType": "uint256",
          "name": "amount",
          "type": "uint256"
        }
      ],
      "name": "unstake",
      "outputs": [],
      "stateMutability": "nonpayable",
      "type": "function"
    }
  ],
  "bytecode": "0x608060405234801561001057600080fd5b5060405161094a38038061094a83398101604081905261002f91610062565b60018054336001600160a01b031991821617909155600080549091166001600160a01b0392909216919091179055610092565b60006020828403121561007457600080fd5b81516001600160a01b038116811461008b57600080fd5b9392505050565b6108a9806100a16000396000f3fe60806040526004361061007a5760003560e01c80639c81ff6b1161004e5780639c81ff6b1461010c578063a66e456214610130578063a694fc3a14610150578063fe4fdc4e1461017057600080fd5b80625c33e11461007f5780632e17de781461008957806345bc78ab146100a957806386d1a69f146100f7575b600080fd5b6100876101a8565b005b34801561009557600080fd5b506100876100a4366004610770565b61034a565b3480156100b557600080fd5b506100dd6100c4366004610789565b6002602052600090815260409020805460019091015482565b604080519283526020830191909152015b60405180910390f35b34801561010357600080fd5b5061008761050b565b34801561011857600080fd5b5061012260035481565b6040519081526020016100ee565b34801561013c57600080fd5b5061012261014b366004610789565b6105a0565b34801561015c57600080fd5b5061008761016b366004610770565b61060b565b34801561017c57600080fd5b50600054610190906001600160a01b031681565b6040516001600160a01b0390911681526020016100ee565b6000546040516370a0823160e01b815230600482015234916001600160a01b0316906370a082319060240160206040518083038186803b1580156101eb57600080fd5b505afa1580156101ff573d6000803e3d6000fd5b505050506040513d601f19601f8201168201806040525081019061022391906107b2565b156102d8576000546040516370a0823160e01b81523060048201526001600160a01b03909116906370a082319060240160206040518083038186803b15801561026b57600080fd5b505afa15801561027f573d6000803e3d6000fd5b505050506040513d601f19601f820116820180604052508101906102a391906107b2565b6102b96b033b2e3c9fd0803ce8000000836107e1565b6102c39190610800565b6003546102d09190610822565b600355610314565b6001546040516001600160a01b039091169082156108fc029083906000818181858888f19350505050158015610312573d6000803e3d6000fd5b505b6040518181527f3ac0594a85a20354f9dc74f33728416d19ce00d04a406c108cc2dcf2cecea1349060200160405180910390a150565b6000811161039f5760405162461bcd60e51b815260206004820152601f60248201527f416d6f756e742073686f756c642062652067726561746572207468616e20300060448201526064015b60405180910390fd5b336000908152600260205260409020548111156103fe5760405162461bcd60e51b815260206004820181905260248201527f43616e6e6f7420756e7374616b65206d6f7265207468616e2062616c616e63656044820152606401610396565b61040661050b565b3360009081526002602052604090205461042190829061083a565b33600081815260026020526040808220939093555491517fa9059cbb0000000000000000000000000000000000000000000000000000000081526004810191909152602481018390526001600160a01b039091169063a9059cbb90604401602060405180830381600087803b15801561049957600080fd5b505af11580156104ad573d6000803e3d6000fd5b505050506040513d601f19601f820116820180604052508101906104d19190610851565b5060405181815233907f0f5bb82176feb1b5e747e28471aa92156a04d9f3ab9f45f28e2d704232b93f75906020015b60405180910390a250565b60035461051457565b600061051f336105a0565b600354336000908152600260205260409020600101559050801561059d57604051339082156108fc029083906000818181858888f1935050505015801561056a573d6000803e3d6000fd5b5060405181815233907ff6334794522b9db534a812aaae1af828a2e96aac68473b58e36d7d0bfd67477b90602001610500565b50565b6001600160a01b03811660009081526002602090815260408083208151808301909252805482526001015491810182905260035490916b033b2e3c9fd0803ce8000000916105ee919061083a565b82516105fa91906107e1565b6106049190610800565b9392505050565b6000811161065b5760405162461bcd60e51b815260206004820152601f60248201527f416d6f756e742073686f756c642062652067726561746572207468616e2030006044820152606401610396565b61066361050b565b6000546040517f23b872dd000000000000000000000000000000000000000000000000000000008152336004820152306024820152604481018390526001600160a01b03909116906323b872dd90606401602060405180830381600087803b1580156106ce57600080fd5b505af11580156106e2573d6000803e3d6000fd5b505050506040513d601f19601f820116820180604052508101906107069190610851565b61070f57600080fd5b3360009081526002602052604090205461072a908290610822565b33600081815260026020526040908190209290925590517f9e71bc8eea02a63969f509818f2dafb9254532904319f9dbda79b67bd34a5f3d906105009084815260200190565b60006020828403121561078257600080fd5b5035919050565b60006020828403121561079b57600080fd5b81356001600160a01b038116811461060457600080fd5b6000602082840312156107c457600080fd5b5051919050565b634e487b7160e01b600052601160045260246000fd5b60008160001904831182151516156107fb576107fb6107cb565b500290565b60008261081d57634e487b7160e01b600052601260045260246000fd5b500490565b60008219821115610835576108356107cb565b500190565b60008282101561084c5761084c6107cb565b500390565b60006020828403121561086357600080fd5b8151801515811461060457600080fdfea264697066735822122075f825813a5b02c50fca5ea3aaffa288e2a192bf4f14592ee699729279be103b64736f6c63430008080033",
  "linkReferences": {},
  "deployedLinkReferences": {}
}