{
  "contracts/BinaryBet.sol": {
    "BinaryBet": {
      "abi": [
        {
          "inputs": [
            {
              "internalType": "uint256",
              "name": "_windowDuration",
              "type": "uint256"
            },
            {
              "internalType": "uint256",
              "name": "_fee",
              "type": "uint256"
            },
            {
              "internalType": "address",
              "name": "aggregator",
              "type": "address"
            },
            {
              "internalType": "address",
              "name": "stakingContract",
              "type": "address"
            },
            {
              "internalType": "address",
              "name": "tokenContract",
              "type": "address"
            },
            {
              "internalType": "uint256",
              "name": "reward",
              "type": "uint256"
            }
          ],
          "stateMutability": "nonpayable",
          "type": "constructor"
        },
        {
          "anonymous": false,
          "inputs": [
            {
              "indexed": true,
              "internalType": "address",
              "name": "previousOwner",
              "type": "address"
            },
            {
              "indexed": true,
              "internalType": "address",
              "name": "newOwner",
              "type": "address"
            }
          ],
          "name": "OwnershipTransferred",
          "type": "event"
        },
        {
          "anonymous": false,
          "inputs": [
            {
              "indexed": true,
              "internalType": "uint256",
              "name": "windowNumber",
              "type": "uint256"
            },
            {
              "indexed": true,
              "internalType": "address",
              "name": "user",
              "type": "address"
            },
            {
              "indexed": false,
              "internalType": "uint256",
              "name": "gain",
              "type": "uint256"
            }
          ],
          "name": "betSettled",
          "type": "event"
        },
        {
          "anonymous": false,
          "inputs": [
            {
              "indexed": true,
              "internalType": "address",
              "name": "user",
              "type": "address"
            },
            {
              "indexed": true,
              "internalType": "uint256",
              "name": "windowNumber",
              "type": "uint256"
            },
            {
              "indexed": false,
              "internalType": "uint256",
              "name": "value",
              "type": "uint256"
            },
            {
              "indexed": false,
              "internalType": "uint8",
              "name": "side",
              "type": "uint8"
            }
          ],
          "name": "newBet",
          "type": "event"
        },
        {
          "anonymous": false,
          "inputs": [
            {
              "indexed": true,
              "internalType": "uint256",
              "name": "windowNumber",
              "type": "uint256"
            },
            {
              "indexed": false,
              "internalType": "uint256",
              "name": "price",
              "type": "uint256"
            }
          ],
          "name": "priceUpdated",
          "type": "event"
        },
        {
          "inputs": [],
          "name": "REWARD_PER_WINDOW",
          "outputs": [
            {
              "internalType": "uint256",
              "name": "",
              "type": "uint256"
            }
          ],
          "stateMutability": "view",
          "type": "function"
        },
        {
          "inputs": [],
          "name": "accumulatedFees",
          "outputs": [
            {
              "internalType": "uint256",
              "name": "",
              "type": "uint256"
            }
          ],
          "stateMutability": "view",
          "type": "function"
        },
        {
          "inputs": [
            {
              "internalType": "address",
              "name": "user",
              "type": "address"
            }
          ],
          "name": "betListLen",
          "outputs": [
            {
              "internalType": "uint256",
              "name": "",
              "type": "uint256"
            }
          ],
          "stateMutability": "view",
          "type": "function"
        },
        {
          "inputs": [
            {
              "internalType": "uint256",
              "name": "referencePrice",
              "type": "uint256"
            },
            {
              "internalType": "uint256",
              "name": "settlementPrice",
              "type": "uint256"
            }
          ],
          "name": "betResult",
          "outputs": [
            {
              "internalType": "uint8",
              "name": "",
              "type": "uint8"
            }
          ],
          "stateMutability": "pure",
          "type": "function"
        },
        {
          "inputs": [
            {
              "internalType": "uint256",
              "name": "upStake",
              "type": "uint256"
            },
            {
              "internalType": "uint256",
              "name": "downStake",
              "type": "uint256"
            },
            {
              "internalType": "uint256",
              "name": "poolUp",
              "type": "uint256"
            },
            {
              "internalType": "uint256",
              "name": "poolDown",
              "type": "uint256"
            }
          ],
          "name": "calculateTokenReward",
          "outputs": [
            {
              "internalType": "uint256",
              "name": "",
              "type": "uint256"
            }
          ],
          "stateMutability": "view",
          "type": "function"
        },
        {
          "inputs": [
            {
              "internalType": "uint256",
              "name": "windowSize",
              "type": "uint256"
            }
          ],
          "name": "changeWindowSize",
          "outputs": [],
          "stateMutability": "nonpayable",
          "type": "function"
        },
        {
          "inputs": [
            {
              "internalType": "uint256",
              "name": "value",
              "type": "uint256"
            },
            {
              "internalType": "uint256",
              "name": "_fee",
              "type": "uint256"
            }
          ],
          "name": "computeFee",
          "outputs": [
            {
              "internalType": "uint256",
              "name": "betFee",
              "type": "uint256"
            }
          ],
          "stateMutability": "pure",
          "type": "function"
        },
        {
          "inputs": [],
          "name": "fee",
          "outputs": [
            {
              "internalType": "uint256",
              "name": "",
              "type": "uint256"
            }
          ],
          "stateMutability": "view",
          "type": "function"
        },
        {
          "inputs": [],
          "name": "firstBlock",
          "outputs": [
            {
              "internalType": "uint256",
              "name": "",
              "type": "uint256"
            }
          ],
          "stateMutability": "view",
          "type": "function"
        },
        {
          "inputs": [],
          "name": "firstWindow",
          "outputs": [
            {
              "internalType": "uint256",
              "name": "",
              "type": "uint256"
            }
          ],
          "stateMutability": "view",
          "type": "function"
        },
        {
          "inputs": [
            {
              "internalType": "uint256",
              "name": "windowNumber",
              "type": "uint256"
            }
          ],
          "name": "getPoolValues",
          "outputs": [
            {
              "internalType": "uint256",
              "name": "",
              "type": "uint256"
            },
            {
              "internalType": "uint256",
              "name": "",
              "type": "uint256"
            }
          ],
          "stateMutability": "view",
          "type": "function"
        },
        {
          "inputs": [
            {
              "internalType": "address",
              "name": "user",
              "type": "address"
            },
            {
              "internalType": "uint256",
              "name": "index",
              "type": "uint256"
            }
          ],
          "name": "getUserBetList",
          "outputs": [
            {
              "internalType": "uint256",
              "name": "",
              "type": "uint256"
            }
          ],
          "stateMutability": "view",
          "type": "function"
        },
        {
          "inputs": [
            {
              "internalType": "uint256",
              "name": "windowNumber",
              "type": "uint256"
            },
            {
              "internalType": "address",
              "name": "user",
              "type": "address"
            }
          ],
          "name": "getUserStake",
          "outputs": [
            {
              "internalType": "uint256",
              "name": "",
              "type": "uint256"
            },
            {
              "internalType": "uint256",
              "name": "",
              "type": "uint256"
            }
          ],
          "stateMutability": "view",
          "type": "function"
        },
        {
          "inputs": [
            {
              "internalType": "uint256",
              "name": "window",
              "type": "uint256"
            }
          ],
          "name": "getWindowBetPrices",
          "outputs": [
            {
              "internalType": "uint256",
              "name": "",
              "type": "uint256"
            },
            {
              "internalType": "uint256",
              "name": "",
              "type": "uint256"
            }
          ],
          "stateMutability": "view",
          "type": "function"
        },
        {
          "inputs": [
            {
              "internalType": "uint256",
              "name": "currentBlock",
              "type": "uint256"
            },
            {
              "internalType": "uint256",
              "name": "_windowDuration",
              "type": "uint256"
            },
            {
              "internalType": "uint256",
              "name": "_firstBlock",
              "type": "uint256"
            },
            {
              "internalType": "uint256",
              "name": "_windowOffset",
              "type": "uint256"
            },
            {
              "internalType": "uint256",
              "name": "_firstWindow",
              "type": "uint256"
            }
          ],
          "name": "getWindowNumber",
          "outputs": [
            {
              "internalType": "uint256",
              "name": "windowNumber",
              "type": "uint256"
            }
          ],
          "stateMutability": "pure",
          "type": "function"
        },
        {
          "inputs": [
            {
              "internalType": "uint256",
              "name": "windowNumber",
              "type": "uint256"
            },
            {
              "internalType": "uint256",
              "name": "_windowDuration",
              "type": "uint256"
            },
            {
              "internalType": "uint256",
              "name": "_firstBlock",
              "type": "uint256"
            },
            {
              "internalType": "uint256",
              "name": "_windowOffset",
              "type": "uint256"
            }
          ],
          "name": "getWindowStartingBlock",
          "outputs": [
            {
              "internalType": "uint256",
              "name": "startingBlock",
              "type": "uint256"
            }
          ],
          "stateMutability": "pure",
          "type": "function"
        },
        {
          "inputs": [],
          "name": "owner",
          "outputs": [
            {
              "internalType": "address",
              "name": "",
              "type": "address"
            }
          ],
          "stateMutability": "view",
          "type": "function"
        },
        {
          "inputs": [
            {
              "internalType": "uint8",
              "name": "side",
              "type": "uint8"
            }
          ],
          "name": "placeBet",
          "outputs": [],
          "stateMutability": "payable",
          "type": "function"
        },
        {
          "inputs": [
            {
              "internalType": "uint256",
              "name": "",
              "type": "uint256"
            }
          ],
          "name": "pools",
          "outputs": [
            {
              "internalType": "uint64",
              "name": "downValue",
              "type": "uint64"
            },
            {
              "internalType": "uint64",
              "name": "upValue",
              "type": "uint64"
            }
          ],
          "stateMutability": "view",
          "type": "function"
        },
        {
          "inputs": [],
          "name": "renounceOwnership",
          "outputs": [],
          "stateMutability": "nonpayable",
          "type": "function"
        },
        {
          "inputs": [
            {
              "internalType": "uint256",
              "name": "upStake",
              "type": "uint256"
            },
            {
              "internalType": "uint256",
              "name": "downStake",
              "type": "uint256"
            },
            {
              "internalType": "uint256",
              "name": "poolUp",
              "type": "uint256"
            },
            {
              "internalType": "uint256",
              "name": "poolDown",
              "type": "uint256"
            },
            {
              "internalType": "uint8",
              "name": "res",
              "type": "uint8"
            }
          ],
          "name": "settleBet",
          "outputs": [
            {
              "internalType": "uint256",
              "name": "gain",
              "type": "uint256"
            },
            {
              "internalType": "uint256",
              "name": "fees",
              "type": "uint256"
            }
          ],
          "stateMutability": "pure",
          "type": "function"
        },
        {
          "inputs": [
            {
              "internalType": "address",
              "name": "newOwner",
              "type": "address"
            }
          ],
          "name": "transferOwnership",
          "outputs": [],
          "stateMutability": "nonpayable",
          "type": "function"
        },
        {
          "inputs": [
            {
              "internalType": "address",
              "name": "user",
              "type": "address"
            }
          ],
          "name": "updateBalance",
          "outputs": [],
          "stateMutability": "nonpayable",
          "type": "function"
        },
        {
          "inputs": [
            {
              "internalType": "uint64",
              "name": "downValue",
              "type": "uint64"
            },
            {
              "internalType": "uint64",
              "name": "upValue",
              "type": "uint64"
            },
            {
              "internalType": "uint8",
              "name": "side",
              "type": "uint8"
            },
            {
              "internalType": "uint64",
              "name": "value",
              "type": "uint64"
            }
          ],
          "name": "updatePool",
          "outputs": [
            {
              "internalType": "uint64",
              "name": "",
              "type": "uint64"
            },
            {
              "internalType": "uint64",
              "name": "",
              "type": "uint64"
            }
          ],
          "stateMutability": "pure",
          "type": "function"
        },
        {
          "inputs": [],
          "name": "updatePrice",
          "outputs": [],
          "stateMutability": "nonpayable",
          "type": "function"
        },
        {
          "inputs": [
            {
              "internalType": "address",
              "name": "",
              "type": "address"
            },
            {
              "internalType": "uint256",
              "name": "",
              "type": "uint256"
            }
          ],
          "name": "userBets",
          "outputs": [
            {
              "internalType": "uint256",
              "name": "",
              "type": "uint256"
            }
          ],
          "stateMutability": "view",
          "type": "function"
        },
        {
          "inputs": [
            {
              "internalType": "address",
              "name": "",
              "type": "address"
            },
            {
              "internalType": "uint256",
              "name": "",
              "type": "uint256"
            }
          ],
          "name": "userStake",
          "outputs": [
            {
              "internalType": "uint64",
              "name": "downValue",
              "type": "uint64"
            },
            {
              "internalType": "uint64",
              "name": "upValue",
              "type": "uint64"
            }
          ],
          "stateMutability": "view",
          "type": "function"
        },
        {
          "inputs": [],
          "name": "windowDuration",
          "outputs": [
            {
              "internalType": "uint256",
              "name": "",
              "type": "uint256"
            }
          ],
          "stateMutability": "view",
          "type": "function"
        },
        {
          "inputs": [],
          "name": "windowOffset",
          "outputs": [
            {
              "internalType": "uint256",
              "name": "",
              "type": "uint256"
            }
          ],
          "stateMutability": "view",
          "type": "function"
        },
        {
          "inputs": [
            {
              "internalType": "uint256",
              "name": "",
              "type": "uint256"
            }
          ],
          "name": "windowPrice",
          "outputs": [
            {
              "internalType": "uint256",
              "name": "",
              "type": "uint256"
            }
          ],
          "stateMutability": "view",
          "type": "function"
        },
        {
          "inputs": [
            {
              "internalType": "uint256",
              "name": "window",
              "type": "uint256"
            },
            {
              "internalType": "uint256",
              "name": "currentWindow",
              "type": "uint256"
            },
            {
              "internalType": "uint256",
              "name": "initialPrice",
              "type": "uint256"
            },
            {
              "internalType": "uint256",
              "name": "finalPrice",
              "type": "uint256"
            }
          ],
          "name": "windowStatus",
          "outputs": [
            {
              "internalType": "enum BinaryBet.WindowStatus",
              "name": "status",
              "type": "uint8"
            }
          ],
          "stateMutability": "pure",
          "type": "function"
        }
      ],
      "devdoc": {
        "kind": "dev",
        "methods": {
          "owner()": {
            "details": "Returns the address of the current owner."
          },
          "renounceOwnership()": {
            "details": "Leaves the contract without owner. It will not be possible to call `onlyOwner` functions anymore. Can only be called by the current owner. NOTE: Renouncing ownership will leave the contract without an owner, thereby removing any functionality that is only available to the owner."
          },
          "transferOwnership(address)": {
            "details": "Transfers ownership of the contract to a new account (`newOwner`). Can only be called by the current owner."
          }
        },
        "version": 1
      },
      "evm": {
        "bytecode": {
          "linkReferences": {},
          "object": "60a06040526001600a553480156200001657600080fd5b5060405162001c9538038062001c95833981016040819052620000399162000141565b6200004433620000d4565b60648511156200005357600080fd5b600180546001600160a01b038087166001600160a01b03199283161783554360045560038990556002889055600a9290925560068054868416908316811790915560058054831690911790556007805492851692909116919091179055620000c481670de0b6b3a7640000620001a7565b60805250620001d5945050505050565b600080546001600160a01b038381166001600160a01b0319831681178455604051919092169283917f8be0079c531659141344cd1fd0a4f28419497f9722a3daafe3b4186f6b6457e09190a35050565b80516001600160a01b03811681146200013c57600080fd5b919050565b60008060008060008060c087890312156200015b57600080fd5b8651955060208701519450620001746040880162000124565b9350620001846060880162000124565b9250620001946080880162000124565b915060a087015190509295509295509295565b6000816000190483118215151615620001d057634e487b7160e01b600052601160045260246000fd5b500290565b608051611a9d620001f8600039600081816103f001526110960152611a9d6000f3fe6080604052600436106101d85760003560e01c8063849cd1c711610102578063ca055e5311610095578063e0d65d8711610064578063e0d65d871461064b578063f2fde38b14610678578063f52818f014610698578063f83b35fb146106b857600080fd5b8063ca055e53146105df578063daaac9d2146105ff578063ddca3f431461061f578063e0a5cee31461063557600080fd5b8063a671bd6e116100d1578063a671bd6e14610530578063ac4afa3814610550578063b134894e14610592578063b47a3566146105bf57600080fd5b8063849cd1c71461044857806389b808a7146104685780638da5cb5b1461049e5780639626a230146104c657600080fd5b8063576fe42f1161017a578063715018a611610149578063715018a6146103c957806371a42207146103de5780638068aa6814610412578063809626681461043257600080fd5b8063576fe42f14610368578063587f5ed7146103885780635c11ff7a1461039e578063673a7e28146103b457600080fd5b80632ff284c2116101b65780632ff284c2146102a55780633937ea4f146102c557806340b8405a14610333578063430468441461035557600080fd5b80630eff4d88146101dd5780631bb5abf91461024f578063231b026814610281575b600080fd5b3480156101e957600080fd5b506102356101f8366004611685565b60009081526008602090815260409182902082518084019093525467ffffffffffffffff808216808552600160401b909204169290910182905291565b604080519283526020830191909152015b60405180910390f35b34801561025b57600080fd5b5061026f61026a36600461169e565b6106d8565b60405160ff9091168152602001610246565b34801561028d57600080fd5b5061029760045481565b604051908152602001610246565b3480156102b157600080fd5b506102976102c036600461169e565b610704565b3480156102d157600080fd5b506103126102e03660046116dc565b600d60209081526000928352604080842090915290825290205467ffffffffffffffff80821691600160401b90041682565b6040805167ffffffffffffffff938416815292909116602083015201610246565b34801561033f57600080fd5b5061035361034e366004611706565b610723565b005b610353610363366004611732565b610a63565b34801561037457600080fd5b5061029761038336600461174d565b610d26565b34801561039457600080fd5b50610297600c5481565b3480156103aa57600080fd5b5061029760035481565b3480156103c057600080fd5b50610353610d6e565b3480156103d557600080fd5b50610353610df3565b3480156103ea57600080fd5b506102977f000000000000000000000000000000000000000000000000000000000000000081565b34801561041e57600080fd5b5061029761042d3660046116dc565b610e59565b34801561043e57600080fd5b50610297600b5481565b34801561045457600080fd5b50610297610463366004611788565b610e8a565b34801561047457600080fd5b50610297610483366004611706565b6001600160a01b03166000908152600e602052604090205490565b3480156104aa57600080fd5b506000546040516001600160a01b039091168152602001610246565b3480156104d257600080fd5b506102356104e13660046117ba565b6001600160a01b03166000908152600d602090815260408083209383529281529082902082518084019093525467ffffffffffffffff808216808552600160401b909204169290910182905291565b34801561053c57600080fd5b5061031261054b3660046117fe565b610eb7565b34801561055c57600080fd5b5061031261056b366004611685565b60086020526000908152604090205467ffffffffffffffff80821691600160401b90041682565b34801561059e57600080fd5b506105b26105ad366004611788565b610f1c565b6040516102469190611868565b3480156105cb57600080fd5b506102976105da3660046116dc565b610f80565b3480156105eb57600080fd5b506102356105fa366004611890565b610fbd565b34801561060b57600080fd5b5061029761061a366004611788565b61108f565b34801561062b57600080fd5b5061029760025481565b34801561064157600080fd5b50610297600a5481565b34801561065757600080fd5b50610297610666366004611685565b60096020526000908152604090205481565b34801561068457600080fd5b50610353610693366004611706565b6110ce565b3480156106a457600080fd5b506103536106b3366004611685565b6111ad565b3480156106c457600080fd5b506102356106d3366004611685565b6112c2565b6000828210156106ea575060006106fe565b828211156106fa575060016106fe565b5060025b92915050565b6000606461071283856118ef565b61071c919061190e565b9392505050565b6001600160a01b0381166000908152600e602052604090208054610745575050565b80546000905b8015610a255760008361075f600184611930565b8154811061076f5761076f611947565b90600052602060002001549050600061079343600354600454600b54600a54610d26565b90506000806107a1846112c2565b9150915060006107b385858585610f1c565b905060008160038111156107c9576107c9611852565b14806107e6575060018160038111156107e4576107e4611852565b145b156107f5575050505050610a13565b6000600382600381111561080b5761080b611852565b14156108225761081b84846106d8565b9050610840565b600282600381111561083657610836611852565b1415610840575060025b8854899061085090600190611930565b8154811061086057610860611947565b9060005260206000200154896001896108799190611930565b8154811061088957610889611947565b9060005260206000200181905550888054806108a7576108a761195d565b6000828152602080822083016000199081018390559092019092556001600160a01b038c168252600d81526040808320898452825280832081518083018352905467ffffffffffffffff8082168352600160401b9182900481168386019081528c87526008865284872085518087019096525480831680875293900482169585018690525183519396949585946109449492841693169189610fbd565b9092509050610953828d611973565b9b5080600c546109639190611973565b600c8190555060006109af856020015167ffffffffffffffff16866000015167ffffffffffffffff16866020015167ffffffffffffffff16876000015167ffffffffffffffff1661108f565b90506109bb8f8261130b565b6109c36114f9565b8e6001600160a01b03168b7f1a82fd78981b9465af4b8bd67f27607df5d873b7a978cc8cee1a65b85c2990fc856040516109ff91815260200190565b60405180910390a350505050505050505050505b80610a1d8161198b565b91505061074b565b506040516001600160a01b0384169082156108fc029083906000818181858888f19350505050158015610a5c573d6000803e3d6000fd5b505b505050565b60003411610ab85760405162461bcd60e51b815260206004820152601d60248201527f4f6e6c79207374726963746c7920706f7369746976652076616c75657300000060448201526064015b60405180910390fd5b610ac0610d6e565b610ac933610723565b6000610ad734600254610704565b905080600c54610ae79190611973565b600c556000610af68234611930565b90506000610b0f43600354600454600b54600a54610d26565b336000908152600f6020908152604080832084845290915290205490915060ff16610b7757336000818152600e6020908152604080832080546001818101835591855283852001869055938352600f82528083208584529091529020805460ff191690911790555b600081815260086020908152604080832081518083019092525467ffffffffffffffff808216808452600160401b909204169282018390529092918291610bbf918988610eb7565b60408051808201825267ffffffffffffffff8481168252838116602080840191825260008b8152600882528581209451855493519085166fffffffffffffffffffffffffffffffff1990941693909317600160401b938516840217909455338452600d81528484208b855281529284902084518086019095525480831680865291900490911691830182905293955091935091610c5d918a89610eb7565b60408051808201825267ffffffffffffffff80851682528084166020808401918252336000818152600d83528681208e8252909252908590209351845492518416600160401b026fffffffffffffffffffffffffffffffff1990931693169290921717909155905192955090935086917f560e32e4934b84f33b228f40ddc5b9fa690426ee087005a7d979d7921d24a02b90610d14908a908d9067ffffffffffffffff92909216825260ff16602082015260400190565b60405180910390a35050505050505050565b600083861015610d37575080610d65565b8285610d438689611930565b610d4d919061190e565b610d579190611973565b610d62906001611973565b90505b95945050505050565b6000610d8543600354600454600b54600a54610d26565b600081815260096020526040902054909150610df057610da3611572565b600082815260096020526040908190208290555182917f7a3325b9d11ddc18edd3dff130141b6ce951061520c6b933a604bf701f3d805291610de791815260200190565b60405180910390a25b50565b6000546001600160a01b03163314610e4d5760405162461bcd60e51b815260206004820181905260248201527f4f776e61626c653a2063616c6c6572206973206e6f7420746865206f776e65726044820152606401610aaf565b610e576000611606565b565b600e6020528160005260406000208181548110610e7557600080fd5b90600052602060002001600091509150505481565b60008382610e99600188611930565b610ea39190611930565b610ead91906118ef565b610d659084611973565b60008060008460ff166001811115610ed157610ed1611852565b90506000816001811115610ee757610ee7611852565b1415610f0257610ef784886119a2565b869250925050610f13565b86610f0d85886119a2565b92509250505b94509492505050565b6000610f29856002611973565b841015610f3857506000610f78565b610f43856003611973565b84108015610f4f575081155b15610f5c57506001610f78565b821580610f67575081155b15610f7457506002610f78565b5060035b949350505050565b6001600160a01b0382166000908152600e60205260408120805483908110610faa57610faa611947565b9060005260206000200154905092915050565b60008060008360ff166002811115610fd757610fd7611852565b90506000610fe58688611973565b90506001826002811115610ffb57610ffb611852565b14801561100757508615155b1561101e57611017818a8961166e565b9350611083565b600082600281111561103257611032611852565b14801561103e57508515155b1561104e5761101781898861166e565b600282600281111561106257611062611852565b141561107257611017888a611973565b60009350611080888a611973565b92505b50509550959350505050565b6000610d657f00000000000000000000000000000000000000000000000000000000000000006110bf8688611973565b6110c98587611973565b61166e565b6000546001600160a01b031633146111285760405162461bcd60e51b815260206004820181905260248201527f4f776e61626c653a2063616c6c6572206973206e6f7420746865206f776e65726044820152606401610aaf565b6001600160a01b0381166111a45760405162461bcd60e51b815260206004820152602660248201527f4f776e61626c653a206e6577206f776e657220697320746865207a65726f206160448201527f64647265737300000000000000000000000000000000000000000000000000006064820152608401610aaf565b610df081611606565b6000546001600160a01b031633146112075760405162461bcd60e51b815260206004820181905260248201527f4f776e61626c653a2063616c6c6572206973206e6f7420746865206f776e65726044820152606401610aaf565b6000811161127d5760405162461bcd60e51b815260206004820152602760248201527f77696e646f772073697a652073686f756c64206265207374726963746c79207060448201527f6f736974697665000000000000000000000000000000000000000000000000006064820152608401610aaf565b600061129443600354600454600b54600a54610d26565b90506112b26112a4826001611973565b600354600454600b54610e8a565b600455600b819055600a55600355565b6000806009816112d3856001611973565b815260200190815260200160002054600960008560026112f39190611973565b81526020019081526020016000205491509150915091565b6007546040516370a0823160e01b815230600482015282916001600160a01b0316906370a082319060240160206040518083038186803b15801561134e57600080fd5b505afa158015611362573d6000803e3d6000fd5b505050506040513d601f19601f8201168201806040525081019061138691906119ce565b1061142b576007546040517fa9059cbb0000000000000000000000000000000000000000000000000000000081526001600160a01b038481166004830152602482018490529091169063a9059cbb906044015b602060405180830381600087803b1580156113f357600080fd5b505af1158015611407573d6000803e3d6000fd5b505050506040513d601f19601f82011682018060405250810190610a5e91906119e7565b6007546040516370a0823160e01b81523060048201526001600160a01b039091169063a9059cbb90849083906370a082319060240160206040518083038186803b15801561147857600080fd5b505afa15801561148c573d6000803e3d6000fd5b505050506040513d601f19601f820116820180604052508101906114b091906119ce565b6040517fffffffff0000000000000000000000000000000000000000000000000000000060e085901b1681526001600160a01b03909216600483015260248201526044016113d9565b600c5415610e5757600560009054906101000a90046001600160a01b03166001600160a01b0316625c33e1600c546040518263ffffffff1660e01b81526004016000604051808303818588803b15801561155257600080fd5b505af1158015611566573d6000803e3d6000fd5b50506000600c55505050565b600080600160009054906101000a90046001600160a01b03166001600160a01b031663feaf968c6040518163ffffffff1660e01b815260040160a06040518083038186803b1580156115c357600080fd5b505afa1580156115d7573d6000803e3d6000fd5b505050506040513d601f19601f820116820180604052508101906115fb9190611a23565b509195945050505050565b600080546001600160a01b038381167fffffffffffffffffffffffff0000000000000000000000000000000000000000831681178455604051919092169283917f8be0079c531659141344cd1fd0a4f28419497f9722a3daafe3b4186f6b6457e09190a35050565b60008161167b85856118ef565b610f78919061190e565b60006020828403121561169757600080fd5b5035919050565b600080604083850312156116b157600080fd5b50508035926020909101359150565b80356001600160a01b03811681146116d757600080fd5b919050565b600080604083850312156116ef57600080fd5b6116f8836116c0565b946020939093013593505050565b60006020828403121561171857600080fd5b61071c826116c0565b803560ff811681146116d757600080fd5b60006020828403121561174457600080fd5b61071c82611721565b600080600080600060a0868803121561176557600080fd5b505083359560208501359550604085013594606081013594506080013592509050565b6000806000806080858703121561179e57600080fd5b5050823594602084013594506040840135936060013592509050565b600080604083850312156117cd57600080fd5b823591506117dd602084016116c0565b90509250929050565b803567ffffffffffffffff811681146116d757600080fd5b6000806000806080858703121561181457600080fd5b61181d856117e6565b935061182b602086016117e6565b925061183960408601611721565b9150611847606086016117e6565b905092959194509250565b634e487b7160e01b600052602160045260246000fd5b602081016004831061188a57634e487b7160e01b600052602160045260246000fd5b91905290565b600080600080600060a086880312156118a857600080fd5b853594506020860135935060408601359250606086013591506118cd60808701611721565b90509295509295909350565b634e487b7160e01b600052601160045260246000fd5b6000816000190483118215151615611909576119096118d9565b500290565b60008261192b57634e487b7160e01b600052601260045260246000fd5b500490565b600082821015611942576119426118d9565b500390565b634e487b7160e01b600052603260045260246000fd5b634e487b7160e01b600052603160045260246000fd5b60008219821115611986576119866118d9565b500190565b60008161199a5761199a6118d9565b506000190190565b600067ffffffffffffffff8083168185168083038211156119c5576119c56118d9565b01949350505050565b6000602082840312156119e057600080fd5b5051919050565b6000602082840312156119f957600080fd5b8151801515811461071c57600080fd5b805169ffffffffffffffffffff811681146116d757600080fd5b600080600080600060a08688031215611a3b57600080fd5b611a4486611a09565b94506020860151935060408601519250606086015191506118cd60808701611a0956fea26469706673582212202745ef8cfa4e3222f0977d108839c9e01091fdc5b810687b13d1a20eff53860564736f6c63430008080033",
          "opcodes": "PUSH1 0xA0 PUSH1 0x40 MSTORE PUSH1 0x1 PUSH1 0xA SSTORE CALLVALUE DUP1 ISZERO PUSH3 0x16 JUMPI PUSH1 0x0 DUP1 REVERT JUMPDEST POP PUSH1 0x40 MLOAD PUSH3 0x1C95 CODESIZE SUB DUP1 PUSH3 0x1C95 DUP4 CODECOPY DUP2 ADD PUSH1 0x40 DUP2 SWAP1 MSTORE PUSH3 0x39 SWAP2 PUSH3 0x141 JUMP JUMPDEST PUSH3 0x44 CALLER PUSH3 0xD4 JUMP JUMPDEST PUSH1 0x64 DUP6 GT ISZERO PUSH3 0x53 JUMPI PUSH1 0x0 DUP1 REVERT JUMPDEST PUSH1 0x1 DUP1 SLOAD PUSH1 0x1 PUSH1 0x1 PUSH1 0xA0 SHL SUB DUP1 DUP8 AND PUSH1 0x1 PUSH1 0x1 PUSH1 0xA0 SHL SUB NOT SWAP3 DUP4 AND OR DUP4 SSTORE NUMBER PUSH1 0x4 SSTORE PUSH1 0x3 DUP10 SWAP1 SSTORE PUSH1 0x2 DUP9 SWAP1 SSTORE PUSH1 0xA SWAP3 SWAP1 SWAP3 SSTORE PUSH1 0x6 DUP1 SLOAD DUP7 DUP5 AND SWAP1 DUP4 AND DUP2 OR SWAP1 SWAP2 SSTORE PUSH1 0x5 DUP1 SLOAD DUP4 AND SWAP1 SWAP2 OR SWAP1 SSTORE PUSH1 0x7 DUP1 SLOAD SWAP3 DUP6 AND SWAP3 SWAP1 SWAP2 AND SWAP2 SWAP1 SWAP2 OR SWAP1 SSTORE PUSH3 0xC4 DUP2 PUSH8 0xDE0B6B3A7640000 PUSH3 0x1A7 JUMP JUMPDEST PUSH1 0x80 MSTORE POP PUSH3 0x1D5 SWAP5 POP POP POP POP POP JUMP JUMPDEST PUSH1 0x0 DUP1 SLOAD PUSH1 0x1 PUSH1 0x1 PUSH1 0xA0 SHL SUB DUP4 DUP2 AND PUSH1 0x1 PUSH1 0x1 PUSH1 0xA0 SHL SUB NOT DUP4 AND DUP2 OR DUP5 SSTORE PUSH1 0x40 MLOAD SWAP2 SWAP1 SWAP3 AND SWAP3 DUP4 SWAP2 PUSH32 0x8BE0079C531659141344CD1FD0A4F28419497F9722A3DAAFE3B4186F6B6457E0 SWAP2 SWAP1 LOG3 POP POP JUMP JUMPDEST DUP1 MLOAD PUSH1 0x1 PUSH1 0x1 PUSH1 0xA0 SHL SUB DUP2 AND DUP2 EQ PUSH3 0x13C JUMPI PUSH1 0x0 DUP1 REVERT JUMPDEST SWAP2 SWAP1 POP JUMP JUMPDEST PUSH1 0x0 DUP1 PUSH1 0x0 DUP1 PUSH1 0x0 DUP1 PUSH1 0xC0 DUP8 DUP10 SUB SLT ISZERO PUSH3 0x15B JUMPI PUSH1 0x0 DUP1 REVERT JUMPDEST DUP7 MLOAD SWAP6 POP PUSH1 0x20 DUP8 ADD MLOAD SWAP5 POP PUSH3 0x174 PUSH1 0x40 DUP9 ADD PUSH3 0x124 JUMP JUMPDEST SWAP4 POP PUSH3 0x184 PUSH1 0x60 DUP9 ADD PUSH3 0x124 JUMP JUMPDEST SWAP3 POP PUSH3 0x194 PUSH1 0x80 DUP9 ADD PUSH3 0x124 JUMP JUMPDEST SWAP2 POP PUSH1 0xA0 DUP8 ADD MLOAD SWAP1 POP SWAP3 SWAP6 POP SWAP3 SWAP6 POP SWAP3 SWAP6 JUMP JUMPDEST PUSH1 0x0 DUP2 PUSH1 0x0 NOT DIV DUP4 GT DUP3 ISZERO ISZERO AND ISZERO PUSH3 0x1D0 JUMPI PUSH4 0x4E487B71 PUSH1 0xE0 SHL PUSH1 0x0 MSTORE PUSH1 0x11 PUSH1 0x4 MSTORE PUSH1 0x24 PUSH1 0x0 REVERT JUMPDEST POP MUL SWAP1 JUMP JUMPDEST PUSH1 0x80 MLOAD PUSH2 0x1A9D PUSH3 0x1F8 PUSH1 0x0 CODECOPY PUSH1 0x0 DUP2 DUP2 PUSH2 0x3F0 ADD MSTORE PUSH2 0x1096 ADD MSTORE PUSH2 0x1A9D PUSH1 0x0 RETURN INVALID PUSH1 0x80 PUSH1 0x40 MSTORE PUSH1 0x4 CALLDATASIZE LT PUSH2 0x1D8 JUMPI PUSH1 0x0 CALLDATALOAD PUSH1 0xE0 SHR DUP1 PUSH4 0x849CD1C7 GT PUSH2 0x102 JUMPI DUP1 PUSH4 0xCA055E53 GT PUSH2 0x95 JUMPI DUP1 PUSH4 0xE0D65D87 GT PUSH2 0x64 JUMPI DUP1 PUSH4 0xE0D65D87 EQ PUSH2 0x64B JUMPI DUP1 PUSH4 0xF2FDE38B EQ PUSH2 0x678 JUMPI DUP1 PUSH4 0xF52818F0 EQ PUSH2 0x698 JUMPI DUP1 PUSH4 0xF83B35FB EQ PUSH2 0x6B8 JUMPI PUSH1 0x0 DUP1 REVERT JUMPDEST DUP1 PUSH4 0xCA055E53 EQ PUSH2 0x5DF JUMPI DUP1 PUSH4 0xDAAAC9D2 EQ PUSH2 0x5FF JUMPI DUP1 PUSH4 0xDDCA3F43 EQ PUSH2 0x61F JUMPI DUP1 PUSH4 0xE0A5CEE3 EQ PUSH2 0x635 JUMPI PUSH1 0x0 DUP1 REVERT JUMPDEST DUP1 PUSH4 0xA671BD6E GT PUSH2 0xD1 JUMPI DUP1 PUSH4 0xA671BD6E EQ PUSH2 0x530 JUMPI DUP1 PUSH4 0xAC4AFA38 EQ PUSH2 0x550 JUMPI DUP1 PUSH4 0xB134894E EQ PUSH2 0x592 JUMPI DUP1 PUSH4 0xB47A3566 EQ PUSH2 0x5BF JUMPI PUSH1 0x0 DUP1 REVERT JUMPDEST DUP1 PUSH4 0x849CD1C7 EQ PUSH2 0x448 JUMPI DUP1 PUSH4 0x89B808A7 EQ PUSH2 0x468 JUMPI DUP1 PUSH4 0x8DA5CB5B EQ PUSH2 0x49E JUMPI DUP1 PUSH4 0x9626A230 EQ PUSH2 0x4C6 JUMPI PUSH1 0x0 DUP1 REVERT JUMPDEST DUP1 PUSH4 0x576FE42F GT PUSH2 0x17A JUMPI DUP1 PUSH4 0x715018A6 GT PUSH2 0x149 JUMPI DUP1 PUSH4 0x715018A6 EQ PUSH2 0x3C9 JUMPI DUP1 PUSH4 0x71A42207 EQ PUSH2 0x3DE JUMPI DUP1 PUSH4 0x8068AA68 EQ PUSH2 0x412 JUMPI DUP1 PUSH4 0x80962668 EQ PUSH2 0x432 JUMPI PUSH1 0x0 DUP1 REVERT JUMPDEST DUP1 PUSH4 0x576FE42F EQ PUSH2 0x368 JUMPI DUP1 PUSH4 0x587F5ED7 EQ PUSH2 0x388 JUMPI DUP1 PUSH4 0x5C11FF7A EQ PUSH2 0x39E JUMPI DUP1 PUSH4 0x673A7E28 EQ PUSH2 0x3B4 JUMPI PUSH1 0x0 DUP1 REVERT JUMPDEST DUP1 PUSH4 0x2FF284C2 GT PUSH2 0x1B6 JUMPI DUP1 PUSH4 0x2FF284C2 EQ PUSH2 0x2A5 JUMPI DUP1 PUSH4 0x3937EA4F EQ PUSH2 0x2C5 JUMPI DUP1 PUSH4 0x40B8405A EQ PUSH2 0x333 JUMPI DUP1 PUSH4 0x43046844 EQ PUSH2 0x355 JUMPI PUSH1 0x0 DUP1 REVERT JUMPDEST DUP1 PUSH4 0xEFF4D88 EQ PUSH2 0x1DD JUMPI DUP1 PUSH4 0x1BB5ABF9 EQ PUSH2 0x24F JUMPI DUP1 PUSH4 0x231B0268 EQ PUSH2 0x281 JUMPI JUMPDEST PUSH1 0x0 DUP1 REVERT JUMPDEST CALLVALUE DUP1 ISZERO PUSH2 0x1E9 JUMPI PUSH1 0x0 DUP1 REVERT JUMPDEST POP PUSH2 0x235 PUSH2 0x1F8 CALLDATASIZE PUSH1 0x4 PUSH2 0x1685 JUMP JUMPDEST PUSH1 0x0 SWAP1 DUP2 MSTORE PUSH1 0x8 PUSH1 0x20 SWAP1 DUP2 MSTORE PUSH1 0x40 SWAP2 DUP3 SWAP1 KECCAK256 DUP3 MLOAD DUP1 DUP5 ADD SWAP1 SWAP4 MSTORE SLOAD PUSH8 0xFFFFFFFFFFFFFFFF DUP1 DUP3 AND DUP1 DUP6 MSTORE PUSH1 0x1 PUSH1 0x40 SHL SWAP1 SWAP3 DIV AND SWAP3 SWAP1 SWAP2 ADD DUP3 SWAP1 MSTORE SWAP2 JUMP JUMPDEST PUSH1 0x40 DUP1 MLOAD SWAP3 DUP4 MSTORE PUSH1 0x20 DUP4 ADD SWAP2 SWAP1 SWAP2 MSTORE ADD JUMPDEST PUSH1 0x40 MLOAD DUP1 SWAP2 SUB SWAP1 RETURN JUMPDEST CALLVALUE DUP1 ISZERO PUSH2 0x25B JUMPI PUSH1 0x0 DUP1 REVERT JUMPDEST POP PUSH2 0x26F PUSH2 0x26A CALLDATASIZE PUSH1 0x4 PUSH2 0x169E JUMP JUMPDEST PUSH2 0x6D8 JUMP JUMPDEST PUSH1 0x40 MLOAD PUSH1 0xFF SWAP1 SWAP2 AND DUP2 MSTORE PUSH1 0x20 ADD PUSH2 0x246 JUMP JUMPDEST CALLVALUE DUP1 ISZERO PUSH2 0x28D JUMPI PUSH1 0x0 DUP1 REVERT JUMPDEST POP PUSH2 0x297 PUSH1 0x4 SLOAD DUP2 JUMP JUMPDEST PUSH1 0x40 MLOAD SWAP1 DUP2 MSTORE PUSH1 0x20 ADD PUSH2 0x246 JUMP JUMPDEST CALLVALUE DUP1 ISZERO PUSH2 0x2B1 JUMPI PUSH1 0x0 DUP1 REVERT JUMPDEST POP PUSH2 0x297 PUSH2 0x2C0 CALLDATASIZE PUSH1 0x4 PUSH2 0x169E JUMP JUMPDEST PUSH2 0x704 JUMP JUMPDEST CALLVALUE DUP1 ISZERO PUSH2 0x2D1 JUMPI PUSH1 0x0 DUP1 REVERT JUMPDEST POP PUSH2 0x312 PUSH2 0x2E0 CALLDATASIZE PUSH1 0x4 PUSH2 0x16DC JUMP JUMPDEST PUSH1 0xD PUSH1 0x20 SWAP1 DUP2 MSTORE PUSH1 0x0 SWAP3 DUP4 MSTORE PUSH1 0x40 DUP1 DUP5 KECCAK256 SWAP1 SWAP2 MSTORE SWAP1 DUP3 MSTORE SWAP1 KECCAK256 SLOAD PUSH8 0xFFFFFFFFFFFFFFFF DUP1 DUP3 AND SWAP2 PUSH1 0x1 PUSH1 0x40 SHL SWAP1 DIV AND DUP3 JUMP JUMPDEST PUSH1 0x40 DUP1 MLOAD PUSH8 0xFFFFFFFFFFFFFFFF SWAP4 DUP5 AND DUP2 MSTORE SWAP3 SWAP1 SWAP2 AND PUSH1 0x20 DUP4 ADD MSTORE ADD PUSH2 0x246 JUMP JUMPDEST CALLVALUE DUP1 ISZERO PUSH2 0x33F JUMPI PUSH1 0x0 DUP1 REVERT JUMPDEST POP PUSH2 0x353 PUSH2 0x34E CALLDATASIZE PUSH1 0x4 PUSH2 0x1706 JUMP JUMPDEST PUSH2 0x723 JUMP JUMPDEST STOP JUMPDEST PUSH2 0x353 PUSH2 0x363 CALLDATASIZE PUSH1 0x4 PUSH2 0x1732 JUMP JUMPDEST PUSH2 0xA63 JUMP JUMPDEST CALLVALUE DUP1 ISZERO PUSH2 0x374 JUMPI PUSH1 0x0 DUP1 REVERT JUMPDEST POP PUSH2 0x297 PUSH2 0x383 CALLDATASIZE PUSH1 0x4 PUSH2 0x174D JUMP JUMPDEST PUSH2 0xD26 JUMP JUMPDEST CALLVALUE DUP1 ISZERO PUSH2 0x394 JUMPI PUSH1 0x0 DUP1 REVERT JUMPDEST POP PUSH2 0x297 PUSH1 0xC SLOAD DUP2 JUMP JUMPDEST CALLVALUE DUP1 ISZERO PUSH2 0x3AA JUMPI PUSH1 0x0 DUP1 REVERT JUMPDEST POP PUSH2 0x297 PUSH1 0x3 SLOAD DUP2 JUMP JUMPDEST CALLVALUE DUP1 ISZERO PUSH2 0x3C0 JUMPI PUSH1 0x0 DUP1 REVERT JUMPDEST POP PUSH2 0x353 PUSH2 0xD6E JUMP JUMPDEST CALLVALUE DUP1 ISZERO PUSH2 0x3D5 JUMPI PUSH1 0x0 DUP1 REVERT JUMPDEST POP PUSH2 0x353 PUSH2 0xDF3 JUMP JUMPDEST CALLVALUE DUP1 ISZERO PUSH2 0x3EA JUMPI PUSH1 0x0 DUP1 REVERT JUMPDEST POP PUSH2 0x297 PUSH32 0x0 DUP2 JUMP JUMPDEST CALLVALUE DUP1 ISZERO PUSH2 0x41E JUMPI PUSH1 0x0 DUP1 REVERT JUMPDEST POP PUSH2 0x297 PUSH2 0x42D CALLDATASIZE PUSH1 0x4 PUSH2 0x16DC JUMP JUMPDEST PUSH2 0xE59 JUMP JUMPDEST CALLVALUE DUP1 ISZERO PUSH2 0x43E JUMPI PUSH1 0x0 DUP1 REVERT JUMPDEST POP PUSH2 0x297 PUSH1 0xB SLOAD DUP2 JUMP JUMPDEST CALLVALUE DUP1 ISZERO PUSH2 0x454 JUMPI PUSH1 0x0 DUP1 REVERT JUMPDEST POP PUSH2 0x297 PUSH2 0x463 CALLDATASIZE PUSH1 0x4 PUSH2 0x1788 JUMP JUMPDEST PUSH2 0xE8A JUMP JUMPDEST CALLVALUE DUP1 ISZERO PUSH2 0x474 JUMPI PUSH1 0x0 DUP1 REVERT JUMPDEST POP PUSH2 0x297 PUSH2 0x483 CALLDATASIZE PUSH1 0x4 PUSH2 0x1706 JUMP JUMPDEST PUSH1 0x1 PUSH1 0x1 PUSH1 0xA0 SHL SUB AND PUSH1 0x0 SWAP1 DUP2 MSTORE PUSH1 0xE PUSH1 0x20 MSTORE PUSH1 0x40 SWAP1 KECCAK256 SLOAD SWAP1 JUMP JUMPDEST CALLVALUE DUP1 ISZERO PUSH2 0x4AA JUMPI PUSH1 0x0 DUP1 REVERT JUMPDEST POP PUSH1 0x0 SLOAD PUSH1 0x40 MLOAD PUSH1 0x1 PUSH1 0x1 PUSH1 0xA0 SHL SUB SWAP1 SWAP2 AND DUP2 MSTORE PUSH1 0x20 ADD PUSH2 0x246 JUMP JUMPDEST CALLVALUE DUP1 ISZERO PUSH2 0x4D2 JUMPI PUSH1 0x0 DUP1 REVERT JUMPDEST POP PUSH2 0x235 PUSH2 0x4E1 CALLDATASIZE PUSH1 0x4 PUSH2 0x17BA JUMP JUMPDEST PUSH1 0x1 PUSH1 0x1 PUSH1 0xA0 SHL SUB AND PUSH1 0x0 SWAP1 DUP2 MSTORE PUSH1 0xD PUSH1 0x20 SWAP1 DUP2 MSTORE PUSH1 0x40 DUP1 DUP4 KECCAK256 SWAP4 DUP4 MSTORE SWAP3 DUP2 MSTORE SWAP1 DUP3 SWAP1 KECCAK256 DUP3 MLOAD DUP1 DUP5 ADD SWAP1 SWAP4 MSTORE SLOAD PUSH8 0xFFFFFFFFFFFFFFFF DUP1 DUP3 AND DUP1 DUP6 MSTORE PUSH1 0x1 PUSH1 0x40 SHL SWAP1 SWAP3 DIV AND SWAP3 SWAP1 SWAP2 ADD DUP3 SWAP1 MSTORE SWAP2 JUMP JUMPDEST CALLVALUE DUP1 ISZERO PUSH2 0x53C JUMPI PUSH1 0x0 DUP1 REVERT JUMPDEST POP PUSH2 0x312 PUSH2 0x54B CALLDATASIZE PUSH1 0x4 PUSH2 0x17FE JUMP JUMPDEST PUSH2 0xEB7 JUMP JUMPDEST CALLVALUE DUP1 ISZERO PUSH2 0x55C JUMPI PUSH1 0x0 DUP1 REVERT JUMPDEST POP PUSH2 0x312 PUSH2 0x56B CALLDATASIZE PUSH1 0x4 PUSH2 0x1685 JUMP JUMPDEST PUSH1 0x8 PUSH1 0x20 MSTORE PUSH1 0x0 SWAP1 DUP2 MSTORE PUSH1 0x40 SWAP1 KECCAK256 SLOAD PUSH8 0xFFFFFFFFFFFFFFFF DUP1 DUP3 AND SWAP2 PUSH1 0x1 PUSH1 0x40 SHL SWAP1 DIV AND DUP3 JUMP JUMPDEST CALLVALUE DUP1 ISZERO PUSH2 0x59E JUMPI PUSH1 0x0 DUP1 REVERT JUMPDEST POP PUSH2 0x5B2 PUSH2 0x5AD CALLDATASIZE PUSH1 0x4 PUSH2 0x1788 JUMP JUMPDEST PUSH2 0xF1C JUMP JUMPDEST PUSH1 0x40 MLOAD PUSH2 0x246 SWAP2 SWAP1 PUSH2 0x1868 JUMP JUMPDEST CALLVALUE DUP1 ISZERO PUSH2 0x5CB JUMPI PUSH1 0x0 DUP1 REVERT JUMPDEST POP PUSH2 0x297 PUSH2 0x5DA CALLDATASIZE PUSH1 0x4 PUSH2 0x16DC JUMP JUMPDEST PUSH2 0xF80 JUMP JUMPDEST CALLVALUE DUP1 ISZERO PUSH2 0x5EB JUMPI PUSH1 0x0 DUP1 REVERT JUMPDEST POP PUSH2 0x235 PUSH2 0x5FA CALLDATASIZE PUSH1 0x4 PUSH2 0x1890 JUMP JUMPDEST PUSH2 0xFBD JUMP JUMPDEST CALLVALUE DUP1 ISZERO PUSH2 0x60B JUMPI PUSH1 0x0 DUP1 REVERT JUMPDEST POP PUSH2 0x297 PUSH2 0x61A CALLDATASIZE PUSH1 0x4 PUSH2 0x1788 JUMP JUMPDEST PUSH2 0x108F JUMP JUMPDEST CALLVALUE DUP1 ISZERO PUSH2 0x62B JUMPI PUSH1 0x0 DUP1 REVERT JUMPDEST POP PUSH2 0x297 PUSH1 0x2 SLOAD DUP2 JUMP JUMPDEST CALLVALUE DUP1 ISZERO PUSH2 0x641 JUMPI PUSH1 0x0 DUP1 REVERT JUMPDEST POP PUSH2 0x297 PUSH1 0xA SLOAD DUP2 JUMP JUMPDEST CALLVALUE DUP1 ISZERO PUSH2 0x657 JUMPI PUSH1 0x0 DUP1 REVERT JUMPDEST POP PUSH2 0x297 PUSH2 0x666 CALLDATASIZE PUSH1 0x4 PUSH2 0x1685 JUMP JUMPDEST PUSH1 0x9 PUSH1 0x20 MSTORE PUSH1 0x0 SWAP1 DUP2 MSTORE PUSH1 0x40 SWAP1 KECCAK256 SLOAD DUP2 JUMP JUMPDEST CALLVALUE DUP1 ISZERO PUSH2 0x684 JUMPI PUSH1 0x0 DUP1 REVERT JUMPDEST POP PUSH2 0x353 PUSH2 0x693 CALLDATASIZE PUSH1 0x4 PUSH2 0x1706 JUMP JUMPDEST PUSH2 0x10CE JUMP JUMPDEST CALLVALUE DUP1 ISZERO PUSH2 0x6A4 JUMPI PUSH1 0x0 DUP1 REVERT JUMPDEST POP PUSH2 0x353 PUSH2 0x6B3 CALLDATASIZE PUSH1 0x4 PUSH2 0x1685 JUMP JUMPDEST PUSH2 0x11AD JUMP JUMPDEST CALLVALUE DUP1 ISZERO PUSH2 0x6C4 JUMPI PUSH1 0x0 DUP1 REVERT JUMPDEST POP PUSH2 0x235 PUSH2 0x6D3 CALLDATASIZE PUSH1 0x4 PUSH2 0x1685 JUMP JUMPDEST PUSH2 0x12C2 JUMP JUMPDEST PUSH1 0x0 DUP3 DUP3 LT ISZERO PUSH2 0x6EA JUMPI POP PUSH1 0x0 PUSH2 0x6FE JUMP JUMPDEST DUP3 DUP3 GT ISZERO PUSH2 0x6FA JUMPI POP PUSH1 0x1 PUSH2 0x6FE JUMP JUMPDEST POP PUSH1 0x2 JUMPDEST SWAP3 SWAP2 POP POP JUMP JUMPDEST PUSH1 0x0 PUSH1 0x64 PUSH2 0x712 DUP4 DUP6 PUSH2 0x18EF JUMP JUMPDEST PUSH2 0x71C SWAP2 SWAP1 PUSH2 0x190E JUMP JUMPDEST SWAP4 SWAP3 POP POP POP JUMP JUMPDEST PUSH1 0x1 PUSH1 0x1 PUSH1 0xA0 SHL SUB DUP2 AND PUSH1 0x0 SWAP1 DUP2 MSTORE PUSH1 0xE PUSH1 0x20 MSTORE PUSH1 0x40 SWAP1 KECCAK256 DUP1 SLOAD PUSH2 0x745 JUMPI POP POP JUMP JUMPDEST DUP1 SLOAD PUSH1 0x0 SWAP1 JUMPDEST DUP1 ISZERO PUSH2 0xA25 JUMPI PUSH1 0x0 DUP4 PUSH2 0x75F PUSH1 0x1 DUP5 PUSH2 0x1930 JUMP JUMPDEST DUP2 SLOAD DUP2 LT PUSH2 0x76F JUMPI PUSH2 0x76F PUSH2 0x1947 JUMP JUMPDEST SWAP1 PUSH1 0x0 MSTORE PUSH1 0x20 PUSH1 0x0 KECCAK256 ADD SLOAD SWAP1 POP PUSH1 0x0 PUSH2 0x793 NUMBER PUSH1 0x3 SLOAD PUSH1 0x4 SLOAD PUSH1 0xB SLOAD PUSH1 0xA SLOAD PUSH2 0xD26 JUMP JUMPDEST SWAP1 POP PUSH1 0x0 DUP1 PUSH2 0x7A1 DUP5 PUSH2 0x12C2 JUMP JUMPDEST SWAP2 POP SWAP2 POP PUSH1 0x0 PUSH2 0x7B3 DUP6 DUP6 DUP6 DUP6 PUSH2 0xF1C JUMP JUMPDEST SWAP1 POP PUSH1 0x0 DUP2 PUSH1 0x3 DUP2 GT ISZERO PUSH2 0x7C9 JUMPI PUSH2 0x7C9 PUSH2 0x1852 JUMP JUMPDEST EQ DUP1 PUSH2 0x7E6 JUMPI POP PUSH1 0x1 DUP2 PUSH1 0x3 DUP2 GT ISZERO PUSH2 0x7E4 JUMPI PUSH2 0x7E4 PUSH2 0x1852 JUMP JUMPDEST EQ JUMPDEST ISZERO PUSH2 0x7F5 JUMPI POP POP POP POP POP PUSH2 0xA13 JUMP JUMPDEST PUSH1 0x0 PUSH1 0x3 DUP3 PUSH1 0x3 DUP2 GT ISZERO PUSH2 0x80B JUMPI PUSH2 0x80B PUSH2 0x1852 JUMP JUMPDEST EQ ISZERO PUSH2 0x822 JUMPI PUSH2 0x81B DUP5 DUP5 PUSH2 0x6D8 JUMP JUMPDEST SWAP1 POP PUSH2 0x840 JUMP JUMPDEST PUSH1 0x2 DUP3 PUSH1 0x3 DUP2 GT ISZERO PUSH2 0x836 JUMPI PUSH2 0x836 PUSH2 0x1852 JUMP JUMPDEST EQ ISZERO PUSH2 0x840 JUMPI POP PUSH1 0x2 JUMPDEST DUP9 SLOAD DUP10 SWAP1 PUSH2 0x850 SWAP1 PUSH1 0x1 SWAP1 PUSH2 0x1930 JUMP JUMPDEST DUP2 SLOAD DUP2 LT PUSH2 0x860 JUMPI PUSH2 0x860 PUSH2 0x1947 JUMP JUMPDEST SWAP1 PUSH1 0x0 MSTORE PUSH1 0x20 PUSH1 0x0 KECCAK256 ADD SLOAD DUP10 PUSH1 0x1 DUP10 PUSH2 0x879 SWAP2 SWAP1 PUSH2 0x1930 JUMP JUMPDEST DUP2 SLOAD DUP2 LT PUSH2 0x889 JUMPI PUSH2 0x889 PUSH2 0x1947 JUMP JUMPDEST SWAP1 PUSH1 0x0 MSTORE PUSH1 0x20 PUSH1 0x0 KECCAK256 ADD DUP2 SWAP1 SSTORE POP DUP9 DUP1 SLOAD DUP1 PUSH2 0x8A7 JUMPI PUSH2 0x8A7 PUSH2 0x195D JUMP JUMPDEST PUSH1 0x0 DUP3 DUP2 MSTORE PUSH1 0x20 DUP1 DUP3 KECCAK256 DUP4 ADD PUSH1 0x0 NOT SWAP1 DUP2 ADD DUP4 SWAP1 SSTORE SWAP1 SWAP3 ADD SWAP1 SWAP3 SSTORE PUSH1 0x1 PUSH1 0x1 PUSH1 0xA0 SHL SUB DUP13 AND DUP3 MSTORE PUSH1 0xD DUP2 MSTORE PUSH1 0x40 DUP1 DUP4 KECCAK256 DUP10 DUP5 MSTORE DUP3 MSTORE DUP1 DUP4 KECCAK256 DUP2 MLOAD DUP1 DUP4 ADD DUP4 MSTORE SWAP1 SLOAD PUSH8 0xFFFFFFFFFFFFFFFF DUP1 DUP3 AND DUP4 MSTORE PUSH1 0x1 PUSH1 0x40 SHL SWAP2 DUP3 SWAP1 DIV DUP2 AND DUP4 DUP7 ADD SWAP1 DUP2 MSTORE DUP13 DUP8 MSTORE PUSH1 0x8 DUP7 MSTORE DUP5 DUP8 KECCAK256 DUP6 MLOAD DUP1 DUP8 ADD SWAP1 SWAP7 MSTORE SLOAD DUP1 DUP4 AND DUP1 DUP8 MSTORE SWAP4 SWAP1 DIV DUP3 AND SWAP6 DUP6 ADD DUP7 SWAP1 MSTORE MLOAD DUP4 MLOAD SWAP4 SWAP7 SWAP5 SWAP6 DUP6 SWAP5 PUSH2 0x944 SWAP5 SWAP3 DUP5 AND SWAP4 AND SWAP2 DUP10 PUSH2 0xFBD JUMP JUMPDEST SWAP1 SWAP3 POP SWAP1 POP PUSH2 0x953 DUP3 DUP14 PUSH2 0x1973 JUMP JUMPDEST SWAP12 POP DUP1 PUSH1 0xC SLOAD PUSH2 0x963 SWAP2 SWAP1 PUSH2 0x1973 JUMP JUMPDEST PUSH1 0xC DUP2 SWAP1 SSTORE POP PUSH1 0x0 PUSH2 0x9AF DUP6 PUSH1 0x20 ADD MLOAD PUSH8 0xFFFFFFFFFFFFFFFF AND DUP7 PUSH1 0x0 ADD MLOAD PUSH8 0xFFFFFFFFFFFFFFFF AND DUP7 PUSH1 0x20 ADD MLOAD PUSH8 0xFFFFFFFFFFFFFFFF AND DUP8 PUSH1 0x0 ADD MLOAD PUSH8 0xFFFFFFFFFFFFFFFF AND PUSH2 0x108F JUMP JUMPDEST SWAP1 POP PUSH2 0x9BB DUP16 DUP3 PUSH2 0x130B JUMP JUMPDEST PUSH2 0x9C3 PUSH2 0x14F9 JUMP JUMPDEST DUP15 PUSH1 0x1 PUSH1 0x1 PUSH1 0xA0 SHL SUB AND DUP12 PUSH32 0x1A82FD78981B9465AF4B8BD67F27607DF5D873B7A978CC8CEE1A65B85C2990FC DUP6 PUSH1 0x40 MLOAD PUSH2 0x9FF SWAP2 DUP2 MSTORE PUSH1 0x20 ADD SWAP1 JUMP JUMPDEST PUSH1 0x40 MLOAD DUP1 SWAP2 SUB SWAP1 LOG3 POP POP POP POP POP POP POP POP POP POP POP JUMPDEST DUP1 PUSH2 0xA1D DUP2 PUSH2 0x198B JUMP JUMPDEST SWAP2 POP POP PUSH2 0x74B JUMP JUMPDEST POP PUSH1 0x40 MLOAD PUSH1 0x1 PUSH1 0x1 PUSH1 0xA0 SHL SUB DUP5 AND SWAP1 DUP3 ISZERO PUSH2 0x8FC MUL SWAP1 DUP4 SWAP1 PUSH1 0x0 DUP2 DUP2 DUP2 DUP6 DUP9 DUP9 CALL SWAP4 POP POP POP POP ISZERO DUP1 ISZERO PUSH2 0xA5C JUMPI RETURNDATASIZE PUSH1 0x0 DUP1 RETURNDATACOPY RETURNDATASIZE PUSH1 0x0 REVERT JUMPDEST POP JUMPDEST POP POP POP JUMP JUMPDEST PUSH1 0x0 CALLVALUE GT PUSH2 0xAB8 JUMPI PUSH1 0x40 MLOAD PUSH3 0x461BCD PUSH1 0xE5 SHL DUP2 MSTORE PUSH1 0x20 PUSH1 0x4 DUP3 ADD MSTORE PUSH1 0x1D PUSH1 0x24 DUP3 ADD MSTORE PUSH32 0x4F6E6C79207374726963746C7920706F7369746976652076616C756573000000 PUSH1 0x44 DUP3 ADD MSTORE PUSH1 0x64 ADD JUMPDEST PUSH1 0x40 MLOAD DUP1 SWAP2 SUB SWAP1 REVERT JUMPDEST PUSH2 0xAC0 PUSH2 0xD6E JUMP JUMPDEST PUSH2 0xAC9 CALLER PUSH2 0x723 JUMP JUMPDEST PUSH1 0x0 PUSH2 0xAD7 CALLVALUE PUSH1 0x2 SLOAD PUSH2 0x704 JUMP JUMPDEST SWAP1 POP DUP1 PUSH1 0xC SLOAD PUSH2 0xAE7 SWAP2 SWAP1 PUSH2 0x1973 JUMP JUMPDEST PUSH1 0xC SSTORE PUSH1 0x0 PUSH2 0xAF6 DUP3 CALLVALUE PUSH2 0x1930 JUMP JUMPDEST SWAP1 POP PUSH1 0x0 PUSH2 0xB0F NUMBER PUSH1 0x3 SLOAD PUSH1 0x4 SLOAD PUSH1 0xB SLOAD PUSH1 0xA SLOAD PUSH2 0xD26 JUMP JUMPDEST CALLER PUSH1 0x0 SWAP1 DUP2 MSTORE PUSH1 0xF PUSH1 0x20 SWAP1 DUP2 MSTORE PUSH1 0x40 DUP1 DUP4 KECCAK256 DUP5 DUP5 MSTORE SWAP1 SWAP2 MSTORE SWAP1 KECCAK256 SLOAD SWAP1 SWAP2 POP PUSH1 0xFF AND PUSH2 0xB77 JUMPI CALLER PUSH1 0x0 DUP2 DUP2 MSTORE PUSH1 0xE PUSH1 0x20 SWAP1 DUP2 MSTORE PUSH1 0x40 DUP1 DUP4 KECCAK256 DUP1 SLOAD PUSH1 0x1 DUP2 DUP2 ADD DUP4 SSTORE SWAP2 DUP6 MSTORE DUP4 DUP6 KECCAK256 ADD DUP7 SWAP1 SSTORE SWAP4 DUP4 MSTORE PUSH1 0xF DUP3 MSTORE DUP1 DUP4 KECCAK256 DUP6 DUP5 MSTORE SWAP1 SWAP2 MSTORE SWAP1 KECCAK256 DUP1 SLOAD PUSH1 0xFF NOT AND SWAP1 SWAP2 OR SWAP1 SSTORE JUMPDEST PUSH1 0x0 DUP2 DUP2 MSTORE PUSH1 0x8 PUSH1 0x20 SWAP1 DUP2 MSTORE PUSH1 0x40 DUP1 DUP4 KECCAK256 DUP2 MLOAD DUP1 DUP4 ADD SWAP1 SWAP3 MSTORE SLOAD PUSH8 0xFFFFFFFFFFFFFFFF DUP1 DUP3 AND DUP1 DUP5 MSTORE PUSH1 0x1 PUSH1 0x40 SHL SWAP1 SWAP3 DIV AND SWAP3 DUP3 ADD DUP4 SWAP1 MSTORE SWAP1 SWAP3 SWAP2 DUP3 SWAP2 PUSH2 0xBBF SWAP2 DUP10 DUP9 PUSH2 0xEB7 JUMP JUMPDEST PUSH1 0x40 DUP1 MLOAD DUP1 DUP3 ADD DUP3 MSTORE PUSH8 0xFFFFFFFFFFFFFFFF DUP5 DUP2 AND DUP3 MSTORE DUP4 DUP2 AND PUSH1 0x20 DUP1 DUP5 ADD SWAP2 DUP3 MSTORE PUSH1 0x0 DUP12 DUP2 MSTORE PUSH1 0x8 DUP3 MSTORE DUP6 DUP2 KECCAK256 SWAP5 MLOAD DUP6 SLOAD SWAP4 MLOAD SWAP1 DUP6 AND PUSH16 0xFFFFFFFFFFFFFFFFFFFFFFFFFFFFFFFF NOT SWAP1 SWAP5 AND SWAP4 SWAP1 SWAP4 OR PUSH1 0x1 PUSH1 0x40 SHL SWAP4 DUP6 AND DUP5 MUL OR SWAP1 SWAP5 SSTORE CALLER DUP5 MSTORE PUSH1 0xD DUP2 MSTORE DUP5 DUP5 KECCAK256 DUP12 DUP6 MSTORE DUP2 MSTORE SWAP3 DUP5 SWAP1 KECCAK256 DUP5 MLOAD DUP1 DUP7 ADD SWAP1 SWAP6 MSTORE SLOAD DUP1 DUP4 AND DUP1 DUP7 MSTORE SWAP2 SWAP1 DIV SWAP1 SWAP2 AND SWAP2 DUP4 ADD DUP3 SWAP1 MSTORE SWAP4 SWAP6 POP SWAP2 SWAP4 POP SWAP2 PUSH2 0xC5D SWAP2 DUP11 DUP10 PUSH2 0xEB7 JUMP JUMPDEST PUSH1 0x40 DUP1 MLOAD DUP1 DUP3 ADD DUP3 MSTORE PUSH8 0xFFFFFFFFFFFFFFFF DUP1 DUP6 AND DUP3 MSTORE DUP1 DUP5 AND PUSH1 0x20 DUP1 DUP5 ADD SWAP2 DUP3 MSTORE CALLER PUSH1 0x0 DUP2 DUP2 MSTORE PUSH1 0xD DUP4 MSTORE DUP7 DUP2 KECCAK256 DUP15 DUP3 MSTORE SWAP1 SWAP3 MSTORE SWAP1 DUP6 SWAP1 KECCAK256 SWAP4 MLOAD DUP5 SLOAD SWAP3 MLOAD DUP5 AND PUSH1 0x1 PUSH1 0x40 SHL MUL PUSH16 0xFFFFFFFFFFFFFFFFFFFFFFFFFFFFFFFF NOT SWAP1 SWAP4 AND SWAP4 AND SWAP3 SWAP1 SWAP3 OR OR SWAP1 SWAP2 SSTORE SWAP1 MLOAD SWAP3 SWAP6 POP SWAP1 SWAP4 POP DUP7 SWAP2 PUSH32 0x560E32E4934B84F33B228F40DDC5B9FA690426EE087005A7D979D7921D24A02B SWAP1 PUSH2 0xD14 SWAP1 DUP11 SWAP1 DUP14 SWAP1 PUSH8 0xFFFFFFFFFFFFFFFF SWAP3 SWAP1 SWAP3 AND DUP3 MSTORE PUSH1 0xFF AND PUSH1 0x20 DUP3 ADD MSTORE PUSH1 0x40 ADD SWAP1 JUMP JUMPDEST PUSH1 0x40 MLOAD DUP1 SWAP2 SUB SWAP1 LOG3 POP POP POP POP POP POP POP POP JUMP JUMPDEST PUSH1 0x0 DUP4 DUP7 LT ISZERO PUSH2 0xD37 JUMPI POP DUP1 PUSH2 0xD65 JUMP JUMPDEST DUP3 DUP6 PUSH2 0xD43 DUP7 DUP10 PUSH2 0x1930 JUMP JUMPDEST PUSH2 0xD4D SWAP2 SWAP1 PUSH2 0x190E JUMP JUMPDEST PUSH2 0xD57 SWAP2 SWAP1 PUSH2 0x1973 JUMP JUMPDEST PUSH2 0xD62 SWAP1 PUSH1 0x1 PUSH2 0x1973 JUMP JUMPDEST SWAP1 POP JUMPDEST SWAP6 SWAP5 POP POP POP POP POP JUMP JUMPDEST PUSH1 0x0 PUSH2 0xD85 NUMBER PUSH1 0x3 SLOAD PUSH1 0x4 SLOAD PUSH1 0xB SLOAD PUSH1 0xA SLOAD PUSH2 0xD26 JUMP JUMPDEST PUSH1 0x0 DUP2 DUP2 MSTORE PUSH1 0x9 PUSH1 0x20 MSTORE PUSH1 0x40 SWAP1 KECCAK256 SLOAD SWAP1 SWAP2 POP PUSH2 0xDF0 JUMPI PUSH2 0xDA3 PUSH2 0x1572 JUMP JUMPDEST PUSH1 0x0 DUP3 DUP2 MSTORE PUSH1 0x9 PUSH1 0x20 MSTORE PUSH1 0x40 SWAP1 DUP2 SWAP1 KECCAK256 DUP3 SWAP1 SSTORE MLOAD DUP3 SWAP2 PUSH32 0x7A3325B9D11DDC18EDD3DFF130141B6CE951061520C6B933A604BF701F3D8052 SWAP2 PUSH2 0xDE7 SWAP2 DUP2 MSTORE PUSH1 0x20 ADD SWAP1 JUMP JUMPDEST PUSH1 0x40 MLOAD DUP1 SWAP2 SUB SWAP1 LOG2 JUMPDEST POP JUMP JUMPDEST PUSH1 0x0 SLOAD PUSH1 0x1 PUSH1 0x1 PUSH1 0xA0 SHL SUB AND CALLER EQ PUSH2 0xE4D JUMPI PUSH1 0x40 MLOAD PUSH3 0x461BCD PUSH1 0xE5 SHL DUP2 MSTORE PUSH1 0x20 PUSH1 0x4 DUP3 ADD DUP2 SWAP1 MSTORE PUSH1 0x24 DUP3 ADD MSTORE PUSH32 0x4F776E61626C653A2063616C6C6572206973206E6F7420746865206F776E6572 PUSH1 0x44 DUP3 ADD MSTORE PUSH1 0x64 ADD PUSH2 0xAAF JUMP JUMPDEST PUSH2 0xE57 PUSH1 0x0 PUSH2 0x1606 JUMP JUMPDEST JUMP JUMPDEST PUSH1 0xE PUSH1 0x20 MSTORE DUP2 PUSH1 0x0 MSTORE PUSH1 0x40 PUSH1 0x0 KECCAK256 DUP2 DUP2 SLOAD DUP2 LT PUSH2 0xE75 JUMPI PUSH1 0x0 DUP1 REVERT JUMPDEST SWAP1 PUSH1 0x0 MSTORE PUSH1 0x20 PUSH1 0x0 KECCAK256 ADD PUSH1 0x0 SWAP2 POP SWAP2 POP POP SLOAD DUP2 JUMP JUMPDEST PUSH1 0x0 DUP4 DUP3 PUSH2 0xE99 PUSH1 0x1 DUP9 PUSH2 0x1930 JUMP JUMPDEST PUSH2 0xEA3 SWAP2 SWAP1 PUSH2 0x1930 JUMP JUMPDEST PUSH2 0xEAD SWAP2 SWAP1 PUSH2 0x18EF JUMP JUMPDEST PUSH2 0xD65 SWAP1 DUP5 PUSH2 0x1973 JUMP JUMPDEST PUSH1 0x0 DUP1 PUSH1 0x0 DUP5 PUSH1 0xFF AND PUSH1 0x1 DUP2 GT ISZERO PUSH2 0xED1 JUMPI PUSH2 0xED1 PUSH2 0x1852 JUMP JUMPDEST SWAP1 POP PUSH1 0x0 DUP2 PUSH1 0x1 DUP2 GT ISZERO PUSH2 0xEE7 JUMPI PUSH2 0xEE7 PUSH2 0x1852 JUMP JUMPDEST EQ ISZERO PUSH2 0xF02 JUMPI PUSH2 0xEF7 DUP5 DUP9 PUSH2 0x19A2 JUMP JUMPDEST DUP7 SWAP3 POP SWAP3 POP POP PUSH2 0xF13 JUMP JUMPDEST DUP7 PUSH2 0xF0D DUP6 DUP9 PUSH2 0x19A2 JUMP JUMPDEST SWAP3 POP SWAP3 POP POP JUMPDEST SWAP5 POP SWAP5 SWAP3 POP POP POP JUMP JUMPDEST PUSH1 0x0 PUSH2 0xF29 DUP6 PUSH1 0x2 PUSH2 0x1973 JUMP JUMPDEST DUP5 LT ISZERO PUSH2 0xF38 JUMPI POP PUSH1 0x0 PUSH2 0xF78 JUMP JUMPDEST PUSH2 0xF43 DUP6 PUSH1 0x3 PUSH2 0x1973 JUMP JUMPDEST DUP5 LT DUP1 ISZERO PUSH2 0xF4F JUMPI POP DUP2 ISZERO JUMPDEST ISZERO PUSH2 0xF5C JUMPI POP PUSH1 0x1 PUSH2 0xF78 JUMP JUMPDEST DUP3 ISZERO DUP1 PUSH2 0xF67 JUMPI POP DUP2 ISZERO JUMPDEST ISZERO PUSH2 0xF74 JUMPI POP PUSH1 0x2 PUSH2 0xF78 JUMP JUMPDEST POP PUSH1 0x3 JUMPDEST SWAP5 SWAP4 POP POP POP POP JUMP JUMPDEST PUSH1 0x1 PUSH1 0x1 PUSH1 0xA0 SHL SUB DUP3 AND PUSH1 0x0 SWAP1 DUP2 MSTORE PUSH1 0xE PUSH1 0x20 MSTORE PUSH1 0x40 DUP2 KECCAK256 DUP1 SLOAD DUP4 SWAP1 DUP2 LT PUSH2 0xFAA JUMPI PUSH2 0xFAA PUSH2 0x1947 JUMP JUMPDEST SWAP1 PUSH1 0x0 MSTORE PUSH1 0x20 PUSH1 0x0 KECCAK256 ADD SLOAD SWAP1 POP SWAP3 SWAP2 POP POP JUMP JUMPDEST PUSH1 0x0 DUP1 PUSH1 0x0 DUP4 PUSH1 0xFF AND PUSH1 0x2 DUP2 GT ISZERO PUSH2 0xFD7 JUMPI PUSH2 0xFD7 PUSH2 0x1852 JUMP JUMPDEST SWAP1 POP PUSH1 0x0 PUSH2 0xFE5 DUP7 DUP9 PUSH2 0x1973 JUMP JUMPDEST SWAP1 POP PUSH1 0x1 DUP3 PUSH1 0x2 DUP2 GT ISZERO PUSH2 0xFFB JUMPI PUSH2 0xFFB PUSH2 0x1852 JUMP JUMPDEST EQ DUP1 ISZERO PUSH2 0x1007 JUMPI POP DUP7 ISZERO ISZERO JUMPDEST ISZERO PUSH2 0x101E JUMPI PUSH2 0x1017 DUP2 DUP11 DUP10 PUSH2 0x166E JUMP JUMPDEST SWAP4 POP PUSH2 0x1083 JUMP JUMPDEST PUSH1 0x0 DUP3 PUSH1 0x2 DUP2 GT ISZERO PUSH2 0x1032 JUMPI PUSH2 0x1032 PUSH2 0x1852 JUMP JUMPDEST EQ DUP1 ISZERO PUSH2 0x103E JUMPI POP DUP6 ISZERO ISZERO JUMPDEST ISZERO PUSH2 0x104E JUMPI PUSH2 0x1017 DUP2 DUP10 DUP9 PUSH2 0x166E JUMP JUMPDEST PUSH1 0x2 DUP3 PUSH1 0x2 DUP2 GT ISZERO PUSH2 0x1062 JUMPI PUSH2 0x1062 PUSH2 0x1852 JUMP JUMPDEST EQ ISZERO PUSH2 0x1072 JUMPI PUSH2 0x1017 DUP9 DUP11 PUSH2 0x1973 JUMP JUMPDEST PUSH1 0x0 SWAP4 POP PUSH2 0x1080 DUP9 DUP11 PUSH2 0x1973 JUMP JUMPDEST SWAP3 POP JUMPDEST POP POP SWAP6 POP SWAP6 SWAP4 POP POP POP POP JUMP JUMPDEST PUSH1 0x0 PUSH2 0xD65 PUSH32 0x0 PUSH2 0x10BF DUP7 DUP9 PUSH2 0x1973 JUMP JUMPDEST PUSH2 0x10C9 DUP6 DUP8 PUSH2 0x1973 JUMP JUMPDEST PUSH2 0x166E JUMP JUMPDEST PUSH1 0x0 SLOAD PUSH1 0x1 PUSH1 0x1 PUSH1 0xA0 SHL SUB AND CALLER EQ PUSH2 0x1128 JUMPI PUSH1 0x40 MLOAD PUSH3 0x461BCD PUSH1 0xE5 SHL DUP2 MSTORE PUSH1 0x20 PUSH1 0x4 DUP3 ADD DUP2 SWAP1 MSTORE PUSH1 0x24 DUP3 ADD MSTORE PUSH32 0x4F776E61626C653A2063616C6C6572206973206E6F7420746865206F776E6572 PUSH1 0x44 DUP3 ADD MSTORE PUSH1 0x64 ADD PUSH2 0xAAF JUMP JUMPDEST PUSH1 0x1 PUSH1 0x1 PUSH1 0xA0 SHL SUB DUP2 AND PUSH2 0x11A4 JUMPI PUSH1 0x40 MLOAD PUSH3 0x461BCD PUSH1 0xE5 SHL DUP2 MSTORE PUSH1 0x20 PUSH1 0x4 DUP3 ADD MSTORE PUSH1 0x26 PUSH1 0x24 DUP3 ADD MSTORE PUSH32 0x4F776E61626C653A206E6577206F776E657220697320746865207A65726F2061 PUSH1 0x44 DUP3 ADD MSTORE PUSH32 0x6464726573730000000000000000000000000000000000000000000000000000 PUSH1 0x64 DUP3 ADD MSTORE PUSH1 0x84 ADD PUSH2 0xAAF JUMP JUMPDEST PUSH2 0xDF0 DUP2 PUSH2 0x1606 JUMP JUMPDEST PUSH1 0x0 SLOAD PUSH1 0x1 PUSH1 0x1 PUSH1 0xA0 SHL SUB AND CALLER EQ PUSH2 0x1207 JUMPI PUSH1 0x40 MLOAD PUSH3 0x461BCD PUSH1 0xE5 SHL DUP2 MSTORE PUSH1 0x20 PUSH1 0x4 DUP3 ADD DUP2 SWAP1 MSTORE PUSH1 0x24 DUP3 ADD MSTORE PUSH32 0x4F776E61626C653A2063616C6C6572206973206E6F7420746865206F776E6572 PUSH1 0x44 DUP3 ADD MSTORE PUSH1 0x64 ADD PUSH2 0xAAF JUMP JUMPDEST PUSH1 0x0 DUP2 GT PUSH2 0x127D JUMPI PUSH1 0x40 MLOAD PUSH3 0x461BCD PUSH1 0xE5 SHL DUP2 MSTORE PUSH1 0x20 PUSH1 0x4 DUP3 ADD MSTORE PUSH1 0x27 PUSH1 0x24 DUP3 ADD MSTORE PUSH32 0x77696E646F772073697A652073686F756C64206265207374726963746C792070 PUSH1 0x44 DUP3 ADD MSTORE PUSH32 0x6F73697469766500000000000000000000000000000000000000000000000000 PUSH1 0x64 DUP3 ADD MSTORE PUSH1 0x84 ADD PUSH2 0xAAF JUMP JUMPDEST PUSH1 0x0 PUSH2 0x1294 NUMBER PUSH1 0x3 SLOAD PUSH1 0x4 SLOAD PUSH1 0xB SLOAD PUSH1 0xA SLOAD PUSH2 0xD26 JUMP JUMPDEST SWAP1 POP PUSH2 0x12B2 PUSH2 0x12A4 DUP3 PUSH1 0x1 PUSH2 0x1973 JUMP JUMPDEST PUSH1 0x3 SLOAD PUSH1 0x4 SLOAD PUSH1 0xB SLOAD PUSH2 0xE8A JUMP JUMPDEST PUSH1 0x4 SSTORE PUSH1 0xB DUP2 SWAP1 SSTORE PUSH1 0xA SSTORE PUSH1 0x3 SSTORE JUMP JUMPDEST PUSH1 0x0 DUP1 PUSH1 0x9 DUP2 PUSH2 0x12D3 DUP6 PUSH1 0x1 PUSH2 0x1973 JUMP JUMPDEST DUP2 MSTORE PUSH1 0x20 ADD SWAP1 DUP2 MSTORE PUSH1 0x20 ADD PUSH1 0x0 KECCAK256 SLOAD PUSH1 0x9 PUSH1 0x0 DUP6 PUSH1 0x2 PUSH2 0x12F3 SWAP2 SWAP1 PUSH2 0x1973 JUMP JUMPDEST DUP2 MSTORE PUSH1 0x20 ADD SWAP1 DUP2 MSTORE PUSH1 0x20 ADD PUSH1 0x0 KECCAK256 SLOAD SWAP2 POP SWAP2 POP SWAP2 POP SWAP2 JUMP JUMPDEST PUSH1 0x7 SLOAD PUSH1 0x40 MLOAD PUSH4 0x70A08231 PUSH1 0xE0 SHL DUP2 MSTORE ADDRESS PUSH1 0x4 DUP3 ADD MSTORE DUP3 SWAP2 PUSH1 0x1 PUSH1 0x1 PUSH1 0xA0 SHL SUB AND SWAP1 PUSH4 0x70A08231 SWAP1 PUSH1 0x24 ADD PUSH1 0x20 PUSH1 0x40 MLOAD DUP1 DUP4 SUB DUP2 DUP7 DUP1 EXTCODESIZE ISZERO DUP1 ISZERO PUSH2 0x134E JUMPI PUSH1 0x0 DUP1 REVERT JUMPDEST POP GAS STATICCALL ISZERO DUP1 ISZERO PUSH2 0x1362 JUMPI RETURNDATASIZE PUSH1 0x0 DUP1 RETURNDATACOPY RETURNDATASIZE PUSH1 0x0 REVERT JUMPDEST POP POP POP POP PUSH1 0x40 MLOAD RETURNDATASIZE PUSH1 0x1F NOT PUSH1 0x1F DUP3 ADD AND DUP3 ADD DUP1 PUSH1 0x40 MSTORE POP DUP2 ADD SWAP1 PUSH2 0x1386 SWAP2 SWAP1 PUSH2 0x19CE JUMP JUMPDEST LT PUSH2 0x142B JUMPI PUSH1 0x7 SLOAD PUSH1 0x40 MLOAD PUSH32 0xA9059CBB00000000000000000000000000000000000000000000000000000000 DUP2 MSTORE PUSH1 0x1 PUSH1 0x1 PUSH1 0xA0 SHL SUB DUP5 DUP2 AND PUSH1 0x4 DUP4 ADD MSTORE PUSH1 0x24 DUP3 ADD DUP5 SWAP1 MSTORE SWAP1 SWAP2 AND SWAP1 PUSH4 0xA9059CBB SWAP1 PUSH1 0x44 ADD JUMPDEST PUSH1 0x20 PUSH1 0x40 MLOAD DUP1 DUP4 SUB DUP2 PUSH1 0x0 DUP8 DUP1 EXTCODESIZE ISZERO DUP1 ISZERO PUSH2 0x13F3 JUMPI PUSH1 0x0 DUP1 REVERT JUMPDEST POP GAS CALL ISZERO DUP1 ISZERO PUSH2 0x1407 JUMPI RETURNDATASIZE PUSH1 0x0 DUP1 RETURNDATACOPY RETURNDATASIZE PUSH1 0x0 REVERT JUMPDEST POP POP POP POP PUSH1 0x40 MLOAD RETURNDATASIZE PUSH1 0x1F NOT PUSH1 0x1F DUP3 ADD AND DUP3 ADD DUP1 PUSH1 0x40 MSTORE POP DUP2 ADD SWAP1 PUSH2 0xA5E SWAP2 SWAP1 PUSH2 0x19E7 JUMP JUMPDEST PUSH1 0x7 SLOAD PUSH1 0x40 MLOAD PUSH4 0x70A08231 PUSH1 0xE0 SHL DUP2 MSTORE ADDRESS PUSH1 0x4 DUP3 ADD MSTORE PUSH1 0x1 PUSH1 0x1 PUSH1 0xA0 SHL SUB SWAP1 SWAP2 AND SWAP1 PUSH4 0xA9059CBB SWAP1 DUP5 SWAP1 DUP4 SWAP1 PUSH4 0x70A08231 SWAP1 PUSH1 0x24 ADD PUSH1 0x20 PUSH1 0x40 MLOAD DUP1 DUP4 SUB DUP2 DUP7 DUP1 EXTCODESIZE ISZERO DUP1 ISZERO PUSH2 0x1478 JUMPI PUSH1 0x0 DUP1 REVERT JUMPDEST POP GAS STATICCALL ISZERO DUP1 ISZERO PUSH2 0x148C JUMPI RETURNDATASIZE PUSH1 0x0 DUP1 RETURNDATACOPY RETURNDATASIZE PUSH1 0x0 REVERT JUMPDEST POP POP POP POP PUSH1 0x40 MLOAD RETURNDATASIZE PUSH1 0x1F NOT PUSH1 0x1F DUP3 ADD AND DUP3 ADD DUP1 PUSH1 0x40 MSTORE POP DUP2 ADD SWAP1 PUSH2 0x14B0 SWAP2 SWAP1 PUSH2 0x19CE JUMP JUMPDEST PUSH1 0x40 MLOAD PUSH32 0xFFFFFFFF00000000000000000000000000000000000000000000000000000000 PUSH1 0xE0 DUP6 SWAP1 SHL AND DUP2 MSTORE PUSH1 0x1 PUSH1 0x1 PUSH1 0xA0 SHL SUB SWAP1 SWAP3 AND PUSH1 0x4 DUP4 ADD MSTORE PUSH1 0x24 DUP3 ADD MSTORE PUSH1 0x44 ADD PUSH2 0x13D9 JUMP JUMPDEST PUSH1 0xC SLOAD ISZERO PUSH2 0xE57 JUMPI PUSH1 0x5 PUSH1 0x0 SWAP1 SLOAD SWAP1 PUSH2 0x100 EXP SWAP1 DIV PUSH1 0x1 PUSH1 0x1 PUSH1 0xA0 SHL SUB AND PUSH1 0x1 PUSH1 0x1 PUSH1 0xA0 SHL SUB AND PUSH3 0x5C33E1 PUSH1 0xC SLOAD PUSH1 0x40 MLOAD DUP3 PUSH4 0xFFFFFFFF AND PUSH1 0xE0 SHL DUP2 MSTORE PUSH1 0x4 ADD PUSH1 0x0 PUSH1 0x40 MLOAD DUP1 DUP4 SUB DUP2 DUP6 DUP9 DUP1 EXTCODESIZE ISZERO DUP1 ISZERO PUSH2 0x1552 JUMPI PUSH1 0x0 DUP1 REVERT JUMPDEST POP GAS CALL ISZERO DUP1 ISZERO PUSH2 0x1566 JUMPI RETURNDATASIZE PUSH1 0x0 DUP1 RETURNDATACOPY RETURNDATASIZE PUSH1 0x0 REVERT JUMPDEST POP POP PUSH1 0x0 PUSH1 0xC SSTORE POP POP POP JUMP JUMPDEST PUSH1 0x0 DUP1 PUSH1 0x1 PUSH1 0x0 SWAP1 SLOAD SWAP1 PUSH2 0x100 EXP SWAP1 DIV PUSH1 0x1 PUSH1 0x1 PUSH1 0xA0 SHL SUB AND PUSH1 0x1 PUSH1 0x1 PUSH1 0xA0 SHL SUB AND PUSH4 0xFEAF968C PUSH1 0x40 MLOAD DUP2 PUSH4 0xFFFFFFFF AND PUSH1 0xE0 SHL DUP2 MSTORE PUSH1 0x4 ADD PUSH1 0xA0 PUSH1 0x40 MLOAD DUP1 DUP4 SUB DUP2 DUP7 DUP1 EXTCODESIZE ISZERO DUP1 ISZERO PUSH2 0x15C3 JUMPI PUSH1 0x0 DUP1 REVERT JUMPDEST POP GAS STATICCALL ISZERO DUP1 ISZERO PUSH2 0x15D7 JUMPI RETURNDATASIZE PUSH1 0x0 DUP1 RETURNDATACOPY RETURNDATASIZE PUSH1 0x0 REVERT JUMPDEST POP POP POP POP PUSH1 0x40 MLOAD RETURNDATASIZE PUSH1 0x1F NOT PUSH1 0x1F DUP3 ADD AND DUP3 ADD DUP1 PUSH1 0x40 MSTORE POP DUP2 ADD SWAP1 PUSH2 0x15FB SWAP2 SWAP1 PUSH2 0x1A23 JUMP JUMPDEST POP SWAP2 SWAP6 SWAP5 POP POP POP POP POP JUMP JUMPDEST PUSH1 0x0 DUP1 SLOAD PUSH1 0x1 PUSH1 0x1 PUSH1 0xA0 SHL SUB DUP4 DUP2 AND PUSH32 0xFFFFFFFFFFFFFFFFFFFFFFFF0000000000000000000000000000000000000000 DUP4 AND DUP2 OR DUP5 SSTORE PUSH1 0x40 MLOAD SWAP2 SWAP1 SWAP3 AND SWAP3 DUP4 SWAP2 PUSH32 0x8BE0079C531659141344CD1FD0A4F28419497F9722A3DAAFE3B4186F6B6457E0 SWAP2 SWAP1 LOG3 POP POP JUMP JUMPDEST PUSH1 0x0 DUP2 PUSH2 0x167B DUP6 DUP6 PUSH2 0x18EF JUMP JUMPDEST PUSH2 0xF78 SWAP2 SWAP1 PUSH2 0x190E JUMP JUMPDEST PUSH1 0x0 PUSH1 0x20 DUP3 DUP5 SUB SLT ISZERO PUSH2 0x1697 JUMPI PUSH1 0x0 DUP1 REVERT JUMPDEST POP CALLDATALOAD SWAP2 SWAP1 POP JUMP JUMPDEST PUSH1 0x0 DUP1 PUSH1 0x40 DUP4 DUP6 SUB SLT ISZERO PUSH2 0x16B1 JUMPI PUSH1 0x0 DUP1 REVERT JUMPDEST POP POP DUP1 CALLDATALOAD SWAP3 PUSH1 0x20 SWAP1 SWAP2 ADD CALLDATALOAD SWAP2 POP JUMP JUMPDEST DUP1 CALLDATALOAD PUSH1 0x1 PUSH1 0x1 PUSH1 0xA0 SHL SUB DUP2 AND DUP2 EQ PUSH2 0x16D7 JUMPI PUSH1 0x0 DUP1 REVERT JUMPDEST SWAP2 SWAP1 POP JUMP JUMPDEST PUSH1 0x0 DUP1 PUSH1 0x40 DUP4 DUP6 SUB SLT ISZERO PUSH2 0x16EF JUMPI PUSH1 0x0 DUP1 REVERT JUMPDEST PUSH2 0x16F8 DUP4 PUSH2 0x16C0 JUMP JUMPDEST SWAP5 PUSH1 0x20 SWAP4 SWAP1 SWAP4 ADD CALLDATALOAD SWAP4 POP POP POP JUMP JUMPDEST PUSH1 0x0 PUSH1 0x20 DUP3 DUP5 SUB SLT ISZERO PUSH2 0x1718 JUMPI PUSH1 0x0 DUP1 REVERT JUMPDEST PUSH2 0x71C DUP3 PUSH2 0x16C0 JUMP JUMPDEST DUP1 CALLDATALOAD PUSH1 0xFF DUP2 AND DUP2 EQ PUSH2 0x16D7 JUMPI PUSH1 0x0 DUP1 REVERT JUMPDEST PUSH1 0x0 PUSH1 0x20 DUP3 DUP5 SUB SLT ISZERO PUSH2 0x1744 JUMPI PUSH1 0x0 DUP1 REVERT JUMPDEST PUSH2 0x71C DUP3 PUSH2 0x1721 JUMP JUMPDEST PUSH1 0x0 DUP1 PUSH1 0x0 DUP1 PUSH1 0x0 PUSH1 0xA0 DUP7 DUP9 SUB SLT ISZERO PUSH2 0x1765 JUMPI PUSH1 0x0 DUP1 REVERT JUMPDEST POP POP DUP4 CALLDATALOAD SWAP6 PUSH1 0x20 DUP6 ADD CALLDATALOAD SWAP6 POP PUSH1 0x40 DUP6 ADD CALLDATALOAD SWAP5 PUSH1 0x60 DUP2 ADD CALLDATALOAD SWAP5 POP PUSH1 0x80 ADD CALLDATALOAD SWAP3 POP SWAP1 POP JUMP JUMPDEST PUSH1 0x0 DUP1 PUSH1 0x0 DUP1 PUSH1 0x80 DUP6 DUP8 SUB SLT ISZERO PUSH2 0x179E JUMPI PUSH1 0x0 DUP1 REVERT JUMPDEST POP POP DUP3 CALLDATALOAD SWAP5 PUSH1 0x20 DUP5 ADD CALLDATALOAD SWAP5 POP PUSH1 0x40 DUP5 ADD CALLDATALOAD SWAP4 PUSH1 0x60 ADD CALLDATALOAD SWAP3 POP SWAP1 POP JUMP JUMPDEST PUSH1 0x0 DUP1 PUSH1 0x40 DUP4 DUP6 SUB SLT ISZERO PUSH2 0x17CD JUMPI PUSH1 0x0 DUP1 REVERT JUMPDEST DUP3 CALLDATALOAD SWAP2 POP PUSH2 0x17DD PUSH1 0x20 DUP5 ADD PUSH2 0x16C0 JUMP JUMPDEST SWAP1 POP SWAP3 POP SWAP3 SWAP1 POP JUMP JUMPDEST DUP1 CALLDATALOAD PUSH8 0xFFFFFFFFFFFFFFFF DUP2 AND DUP2 EQ PUSH2 0x16D7 JUMPI PUSH1 0x0 DUP1 REVERT JUMPDEST PUSH1 0x0 DUP1 PUSH1 0x0 DUP1 PUSH1 0x80 DUP6 DUP8 SUB SLT ISZERO PUSH2 0x1814 JUMPI PUSH1 0x0 DUP1 REVERT JUMPDEST PUSH2 0x181D DUP6 PUSH2 0x17E6 JUMP JUMPDEST SWAP4 POP PUSH2 0x182B PUSH1 0x20 DUP7 ADD PUSH2 0x17E6 JUMP JUMPDEST SWAP3 POP PUSH2 0x1839 PUSH1 0x40 DUP7 ADD PUSH2 0x1721 JUMP JUMPDEST SWAP2 POP PUSH2 0x1847 PUSH1 0x60 DUP7 ADD PUSH2 0x17E6 JUMP JUMPDEST SWAP1 POP SWAP3 SWAP6 SWAP2 SWAP5 POP SWAP3 POP JUMP JUMPDEST PUSH4 0x4E487B71 PUSH1 0xE0 SHL PUSH1 0x0 MSTORE PUSH1 0x21 PUSH1 0x4 MSTORE PUSH1 0x24 PUSH1 0x0 REVERT JUMPDEST PUSH1 0x20 DUP2 ADD PUSH1 0x4 DUP4 LT PUSH2 0x188A JUMPI PUSH4 0x4E487B71 PUSH1 0xE0 SHL PUSH1 0x0 MSTORE PUSH1 0x21 PUSH1 0x4 MSTORE PUSH1 0x24 PUSH1 0x0 REVERT JUMPDEST SWAP2 SWAP1 MSTORE SWAP1 JUMP JUMPDEST PUSH1 0x0 DUP1 PUSH1 0x0 DUP1 PUSH1 0x0 PUSH1 0xA0 DUP7 DUP9 SUB SLT ISZERO PUSH2 0x18A8 JUMPI PUSH1 0x0 DUP1 REVERT JUMPDEST DUP6 CALLDATALOAD SWAP5 POP PUSH1 0x20 DUP7 ADD CALLDATALOAD SWAP4 POP PUSH1 0x40 DUP7 ADD CALLDATALOAD SWAP3 POP PUSH1 0x60 DUP7 ADD CALLDATALOAD SWAP2 POP PUSH2 0x18CD PUSH1 0x80 DUP8 ADD PUSH2 0x1721 JUMP JUMPDEST SWAP1 POP SWAP3 SWAP6 POP SWAP3 SWAP6 SWAP1 SWAP4 POP JUMP JUMPDEST PUSH4 0x4E487B71 PUSH1 0xE0 SHL PUSH1 0x0 MSTORE PUSH1 0x11 PUSH1 0x4 MSTORE PUSH1 0x24 PUSH1 0x0 REVERT JUMPDEST PUSH1 0x0 DUP2 PUSH1 0x0 NOT DIV DUP4 GT DUP3 ISZERO ISZERO AND ISZERO PUSH2 0x1909 JUMPI PUSH2 0x1909 PUSH2 0x18D9 JUMP JUMPDEST POP MUL SWAP1 JUMP JUMPDEST PUSH1 0x0 DUP3 PUSH2 0x192B JUMPI PUSH4 0x4E487B71 PUSH1 0xE0 SHL PUSH1 0x0 MSTORE PUSH1 0x12 PUSH1 0x4 MSTORE PUSH1 0x24 PUSH1 0x0 REVERT JUMPDEST POP DIV SWAP1 JUMP JUMPDEST PUSH1 0x0 DUP3 DUP3 LT ISZERO PUSH2 0x1942 JUMPI PUSH2 0x1942 PUSH2 0x18D9 JUMP JUMPDEST POP SUB SWAP1 JUMP JUMPDEST PUSH4 0x4E487B71 PUSH1 0xE0 SHL PUSH1 0x0 MSTORE PUSH1 0x32 PUSH1 0x4 MSTORE PUSH1 0x24 PUSH1 0x0 REVERT JUMPDEST PUSH4 0x4E487B71 PUSH1 0xE0 SHL PUSH1 0x0 MSTORE PUSH1 0x31 PUSH1 0x4 MSTORE PUSH1 0x24 PUSH1 0x0 REVERT JUMPDEST PUSH1 0x0 DUP3 NOT DUP3 GT ISZERO PUSH2 0x1986 JUMPI PUSH2 0x1986 PUSH2 0x18D9 JUMP JUMPDEST POP ADD SWAP1 JUMP JUMPDEST PUSH1 0x0 DUP2 PUSH2 0x199A JUMPI PUSH2 0x199A PUSH2 0x18D9 JUMP JUMPDEST POP PUSH1 0x0 NOT ADD SWAP1 JUMP JUMPDEST PUSH1 0x0 PUSH8 0xFFFFFFFFFFFFFFFF DUP1 DUP4 AND DUP2 DUP6 AND DUP1 DUP4 SUB DUP3 GT ISZERO PUSH2 0x19C5 JUMPI PUSH2 0x19C5 PUSH2 0x18D9 JUMP JUMPDEST ADD SWAP5 SWAP4 POP POP POP POP JUMP JUMPDEST PUSH1 0x0 PUSH1 0x20 DUP3 DUP5 SUB SLT ISZERO PUSH2 0x19E0 JUMPI PUSH1 0x0 DUP1 REVERT JUMPDEST POP MLOAD SWAP2 SWAP1 POP JUMP JUMPDEST PUSH1 0x0 PUSH1 0x20 DUP3 DUP5 SUB SLT ISZERO PUSH2 0x19F9 JUMPI PUSH1 0x0 DUP1 REVERT JUMPDEST DUP2 MLOAD DUP1 ISZERO ISZERO DUP2 EQ PUSH2 0x71C JUMPI PUSH1 0x0 DUP1 REVERT JUMPDEST DUP1 MLOAD PUSH10 0xFFFFFFFFFFFFFFFFFFFF DUP2 AND DUP2 EQ PUSH2 0x16D7 JUMPI PUSH1 0x0 DUP1 REVERT JUMPDEST PUSH1 0x0 DUP1 PUSH1 0x0 DUP1 PUSH1 0x0 PUSH1 0xA0 DUP7 DUP9 SUB SLT ISZERO PUSH2 0x1A3B JUMPI PUSH1 0x0 DUP1 REVERT JUMPDEST PUSH2 0x1A44 DUP7 PUSH2 0x1A09 JUMP JUMPDEST SWAP5 POP PUSH1 0x20 DUP7 ADD MLOAD SWAP4 POP PUSH1 0x40 DUP7 ADD MLOAD SWAP3 POP PUSH1 0x60 DUP7 ADD MLOAD SWAP2 POP PUSH2 0x18CD PUSH1 0x80 DUP8 ADD PUSH2 0x1A09 JUMP INVALID LOG2 PUSH5 0x6970667358 0x22 SLT KECCAK256 0x27 GASLIMIT 0xEF DUP13 STATICCALL 0x4E ORIGIN 0x22 CREATE SWAP8 PUSH30 0x108839C9E01091FDC5B810687B13D1A20EFF53860564736F6C6343000808 STOP CALLER "
        },
        "gasEstimates": {
          "creation": {
            "codeDepositCost": "1362600",
            "executionCost": "infinite",
            "totalCost": "infinite"
          },
          "external": {
            "REWARD_PER_WINDOW()": "infinite",
            "accumulatedFees()": "2363",
            "betListLen(address)": "2605",
            "betResult(uint256,uint256)": "460",
            "calculateTokenReward(uint256,uint256,uint256,uint256)": "infinite",
            "changeWindowSize(uint256)": "infinite",
            "computeFee(uint256,uint256)": "517",
            "fee()": "2384",
            "firstBlock()": "2386",
            "firstWindow()": "2406",
            "getPoolValues(uint256)": "2605",
            "getUserBetList(address,uint256)": "4879",
            "getUserStake(uint256,address)": "2861",
            "getWindowBetPrices(uint256)": "infinite",
            "getWindowNumber(uint256,uint256,uint256,uint256,uint256)": "infinite",
            "getWindowStartingBlock(uint256,uint256,uint256,uint256)": "infinite",
            "owner()": "2391",
            "placeBet(uint8)": "infinite",
            "pools(uint256)": "2576",
            "renounceOwnership()": "28144",
            "settleBet(uint256,uint256,uint256,uint256,uint8)": "infinite",
            "transferOwnership(address)": "28360",
            "updateBalance(address)": "infinite",
            "updatePool(uint64,uint64,uint8,uint64)": "infinite",
            "updatePrice()": "infinite",
            "userBets(address,uint256)": "4833",
            "userStake(address,uint256)": "2751",
            "windowDuration()": "2385",
            "windowOffset()": "2406",
            "windowPrice(uint256)": "2482",
            "windowStatus(uint256,uint256,uint256,uint256)": "infinite"
          },
          "internal": {
            "priceOracle()": "infinite",
            "sharePool(uint256,uint256,uint256)": "181",
            "transferFees()": "infinite",
            "transferRewards(address,uint256)": "infinite"
          }
        },
        "methodIdentifiers": {
          "REWARD_PER_WINDOW()": "71a42207",
          "accumulatedFees()": "587f5ed7",
          "betListLen(address)": "89b808a7",
          "betResult(uint256,uint256)": "1bb5abf9",
          "calculateTokenReward(uint256,uint256,uint256,uint256)": "daaac9d2",
          "changeWindowSize(uint256)": "f52818f0",
          "computeFee(uint256,uint256)": "2ff284c2",
          "fee()": "ddca3f43",
          "firstBlock()": "231b0268",
          "firstWindow()": "e0a5cee3",
          "getPoolValues(uint256)": "0eff4d88",
          "getUserBetList(address,uint256)": "b47a3566",
          "getUserStake(uint256,address)": "9626a230",
          "getWindowBetPrices(uint256)": "f83b35fb",
          "getWindowNumber(uint256,uint256,uint256,uint256,uint256)": "576fe42f",
          "getWindowStartingBlock(uint256,uint256,uint256,uint256)": "849cd1c7",
          "owner()": "8da5cb5b",
          "placeBet(uint8)": "43046844",
          "pools(uint256)": "ac4afa38",
          "renounceOwnership()": "715018a6",
          "settleBet(uint256,uint256,uint256,uint256,uint8)": "ca055e53",
          "transferOwnership(address)": "f2fde38b",
          "updateBalance(address)": "40b8405a",
          "updatePool(uint64,uint64,uint8,uint64)": "a671bd6e",
          "updatePrice()": "673a7e28",
          "userBets(address,uint256)": "8068aa68",
          "userStake(address,uint256)": "3937ea4f",
          "windowDuration()": "5c11ff7a",
          "windowOffset()": "80962668",
          "windowPrice(uint256)": "e0d65d87",
          "windowStatus(uint256,uint256,uint256,uint256)": "b134894e"
        }
      },
      "storageLayout": {
        "storage": [
          {
            "astId": 53,
            "contract": "contracts/BinaryBet.sol:BinaryBet",
            "label": "_owner",
            "offset": 0,
            "slot": "0",
            "type": "t_address"
          },
          {
            "astId": 896,
            "contract": "contracts/BinaryBet.sol:BinaryBet",
            "label": "priceFeed",
            "offset": 0,
            "slot": "1",
            "type": "t_contract(AggregatorV3Interface)45"
          },
          {
            "astId": 900,
            "contract": "contracts/BinaryBet.sol:BinaryBet",
            "label": "fee",
            "offset": 0,
            "slot": "2",
            "type": "t_uint256"
          },
          {
            "astId": 902,
            "contract": "contracts/BinaryBet.sol:BinaryBet",
            "label": "windowDuration",
            "offset": 0,
            "slot": "3",
            "type": "t_uint256"
          },
          {
            "astId": 904,
            "contract": "contracts/BinaryBet.sol:BinaryBet",
            "label": "firstBlock",
            "offset": 0,
            "slot": "4",
            "type": "t_uint256"
          },
          {
            "astId": 907,
            "contract": "contracts/BinaryBet.sol:BinaryBet",
            "label": "staking",
            "offset": 0,
            "slot": "5",
            "type": "t_contract(BinaryStaking)2308"
          },
          {
            "astId": 909,
            "contract": "contracts/BinaryBet.sol:BinaryBet",
            "label": "stakingAddress",
            "offset": 0,
            "slot": "6",
            "type": "t_address_payable"
          },
          {
            "astId": 912,
            "contract": "contracts/BinaryBet.sol:BinaryBet",
            "label": "token",
            "offset": 0,
            "slot": "7",
            "type": "t_contract(BinToken)866"
          },
          {
            "astId": 917,
            "contract": "contracts/BinaryBet.sol:BinaryBet",
            "label": "pools",
            "offset": 0,
            "slot": "8",
            "type": "t_mapping(t_uint256,t_struct(Pool)893_storage)"
          },
          {
            "astId": 921,
            "contract": "contracts/BinaryBet.sol:BinaryBet",
            "label": "windowPrice",
            "offset": 0,
            "slot": "9",
            "type": "t_mapping(t_uint256,t_uint256)"
          },
          {
            "astId": 924,
            "contract": "contracts/BinaryBet.sol:BinaryBet",
            "label": "firstWindow",
            "offset": 0,
            "slot": "10",
            "type": "t_uint256"
          },
          {
            "astId": 926,
            "contract": "contracts/BinaryBet.sol:BinaryBet",
            "label": "windowOffset",
            "offset": 0,
            "slot": "11",
            "type": "t_uint256"
          },
          {
            "astId": 928,
            "contract": "contracts/BinaryBet.sol:BinaryBet",
            "label": "accumulatedFees",
            "offset": 0,
            "slot": "12",
            "type": "t_uint256"
          },
          {
            "astId": 935,
            "contract": "contracts/BinaryBet.sol:BinaryBet",
            "label": "userStake",
            "offset": 0,
            "slot": "13",
            "type": "t_mapping(t_address,t_mapping(t_uint256,t_struct(Pool)893_storage))"
          },
          {
            "astId": 940,
            "contract": "contracts/BinaryBet.sol:BinaryBet",
            "label": "userBets",
            "offset": 0,
            "slot": "14",
            "type": "t_mapping(t_address,t_array(t_uint256)dyn_storage)"
          },
          {
            "astId": 946,
            "contract": "contracts/BinaryBet.sol:BinaryBet",
            "label": "userBetted",
            "offset": 0,
            "slot": "15",
            "type": "t_mapping(t_address,t_mapping(t_uint256,t_bool))"
          }
        ],
        "types": {
          "t_address": {
            "encoding": "inplace",
            "label": "address",
            "numberOfBytes": "20"
          },
          "t_address_payable": {
            "encoding": "inplace",
            "label": "address payable",
            "numberOfBytes": "20"
          },
          "t_array(t_uint256)dyn_storage": {
            "base": "t_uint256",
            "encoding": "dynamic_array",
            "label": "uint256[]",
            "numberOfBytes": "32"
          },
          "t_bool": {
            "encoding": "inplace",
            "label": "bool",
            "numberOfBytes": "1"
          },
          "t_contract(AggregatorV3Interface)45": {
            "encoding": "inplace",
            "label": "contract AggregatorV3Interface",
            "numberOfBytes": "20"
          },
          "t_contract(BinToken)866": {
            "encoding": "inplace",
            "label": "contract BinToken",
            "numberOfBytes": "20"
          },
          "t_contract(BinaryStaking)2308": {
            "encoding": "inplace",
            "label": "contract BinaryStaking",
            "numberOfBytes": "20"
          },
          "t_mapping(t_address,t_array(t_uint256)dyn_storage)": {
            "encoding": "mapping",
            "key": "t_address",
            "label": "mapping(address => uint256[])",
            "numberOfBytes": "32",
            "value": "t_array(t_uint256)dyn_storage"
          },
          "t_mapping(t_address,t_mapping(t_uint256,t_bool))": {
            "encoding": "mapping",
            "key": "t_address",
            "label": "mapping(address => mapping(uint256 => bool))",
            "numberOfBytes": "32",
            "value": "t_mapping(t_uint256,t_bool)"
          },
          "t_mapping(t_address,t_mapping(t_uint256,t_struct(Pool)893_storage))": {
            "encoding": "mapping",
            "key": "t_address",
            "label": "mapping(address => mapping(uint256 => struct BinaryBet.Pool))",
            "numberOfBytes": "32",
            "value": "t_mapping(t_uint256,t_struct(Pool)893_storage)"
          },
          "t_mapping(t_uint256,t_bool)": {
            "encoding": "mapping",
            "key": "t_uint256",
            "label": "mapping(uint256 => bool)",
            "numberOfBytes": "32",
            "value": "t_bool"
          },
          "t_mapping(t_uint256,t_struct(Pool)893_storage)": {
            "encoding": "mapping",
            "key": "t_uint256",
            "label": "mapping(uint256 => struct BinaryBet.Pool)",
            "numberOfBytes": "32",
            "value": "t_struct(Pool)893_storage"
          },
          "t_mapping(t_uint256,t_uint256)": {
            "encoding": "mapping",
            "key": "t_uint256",
            "label": "mapping(uint256 => uint256)",
            "numberOfBytes": "32",
            "value": "t_uint256"
          },
          "t_struct(Pool)893_storage": {
            "encoding": "inplace",
            "label": "struct BinaryBet.Pool",
            "members": [
              {
                "astId": 890,
                "contract": "contracts/BinaryBet.sol:BinaryBet",
                "label": "downValue",
                "offset": 0,
                "slot": "0",
                "type": "t_uint64"
              },
              {
                "astId": 892,
                "contract": "contracts/BinaryBet.sol:BinaryBet",
                "label": "upValue",
                "offset": 8,
                "slot": "0",
                "type": "t_uint64"
              }
            ],
            "numberOfBytes": "32"
          },
          "t_uint256": {
            "encoding": "inplace",
            "label": "uint256",
            "numberOfBytes": "32"
          },
          "t_uint64": {
            "encoding": "inplace",
            "label": "uint64",
            "numberOfBytes": "8"
          }
        }
      },
      "userdoc": {
        "kind": "user",
        "methods": {},
        "version": 1
      }
    }
  }
}