{
  "contracts/BinaryBet.sol": {
    "BinaryBet": {
      "abi": [
        {
          "inputs": [
            {
              "internalType": "uint256",
              "name": "_windowDuration",
              "type": "uint256"
            },
            {
              "internalType": "uint256",
              "name": "_fee",
              "type": "uint256"
            },
            {
              "internalType": "address",
              "name": "aggregator",
              "type": "address"
            },
            {
              "internalType": "address",
              "name": "stakingContract",
              "type": "address"
            },
            {
              "internalType": "address",
              "name": "tokenContract",
              "type": "address"
            },
            {
              "internalType": "uint256",
              "name": "reward",
              "type": "uint256"
            }
          ],
          "stateMutability": "nonpayable",
          "type": "constructor"
        },
        {
          "anonymous": false,
          "inputs": [
            {
              "indexed": true,
              "internalType": "uint256",
              "name": "windowNumber",
              "type": "uint256"
            },
            {
              "indexed": true,
              "internalType": "address",
              "name": "user",
              "type": "address"
            },
            {
              "indexed": false,
              "internalType": "uint256",
              "name": "gain",
              "type": "uint256"
            }
          ],
          "name": "BetSettled",
          "type": "event"
        },
        {
          "anonymous": false,
          "inputs": [
            {
              "indexed": true,
              "internalType": "address",
              "name": "user",
              "type": "address"
            },
            {
              "indexed": true,
              "internalType": "uint256",
              "name": "windowNumber",
              "type": "uint256"
            },
            {
              "indexed": false,
              "internalType": "uint256",
              "name": "value",
              "type": "uint256"
            },
            {
              "indexed": false,
              "internalType": "uint8",
              "name": "side",
              "type": "uint8"
            }
          ],
          "name": "NewBet",
          "type": "event"
        },
        {
          "anonymous": false,
          "inputs": [
            {
              "indexed": true,
              "internalType": "address",
              "name": "previousOwner",
              "type": "address"
            },
            {
              "indexed": true,
              "internalType": "address",
              "name": "newOwner",
              "type": "address"
            }
          ],
          "name": "OwnershipTransferred",
          "type": "event"
        },
        {
          "anonymous": false,
          "inputs": [
            {
              "indexed": true,
              "internalType": "uint256",
              "name": "windowNumber",
              "type": "uint256"
            },
            {
              "indexed": false,
              "internalType": "uint256",
              "name": "price",
              "type": "uint256"
            }
          ],
          "name": "PriceUpdated",
          "type": "event"
        },
        {
          "inputs": [],
          "name": "REWARD_PER_WINDOW",
          "outputs": [
            {
              "internalType": "uint256",
              "name": "",
              "type": "uint256"
            }
          ],
          "stateMutability": "view",
          "type": "function"
        },
        {
          "inputs": [],
          "name": "accumulatedFees",
          "outputs": [
            {
              "internalType": "uint256",
              "name": "",
              "type": "uint256"
            }
          ],
          "stateMutability": "view",
          "type": "function"
        },
        {
          "inputs": [
            {
              "internalType": "address",
              "name": "user",
              "type": "address"
            }
          ],
          "name": "betListLen",
          "outputs": [
            {
              "internalType": "uint256",
              "name": "",
              "type": "uint256"
            }
          ],
          "stateMutability": "view",
          "type": "function"
        },
        {
          "inputs": [
            {
              "internalType": "uint256",
              "name": "referencePrice",
              "type": "uint256"
            },
            {
              "internalType": "uint256",
              "name": "settlementPrice",
              "type": "uint256"
            }
          ],
          "name": "betResult",
          "outputs": [
            {
              "internalType": "uint8",
              "name": "",
              "type": "uint8"
            }
          ],
          "stateMutability": "pure",
          "type": "function"
        },
        {
          "inputs": [
            {
              "internalType": "uint256",
              "name": "upStake",
              "type": "uint256"
            },
            {
              "internalType": "uint256",
              "name": "downStake",
              "type": "uint256"
            },
            {
              "internalType": "uint256",
              "name": "poolUp",
              "type": "uint256"
            },
            {
              "internalType": "uint256",
              "name": "poolDown",
              "type": "uint256"
            }
          ],
          "name": "calculateTokenReward",
          "outputs": [
            {
              "internalType": "uint256",
              "name": "",
              "type": "uint256"
            }
          ],
          "stateMutability": "view",
          "type": "function"
        },
        {
          "inputs": [
            {
              "internalType": "uint256",
              "name": "windowSize",
              "type": "uint256"
            }
          ],
          "name": "changeWindowSize",
          "outputs": [],
          "stateMutability": "nonpayable",
          "type": "function"
        },
        {
          "inputs": [
            {
              "internalType": "uint256",
              "name": "value",
              "type": "uint256"
            },
            {
              "internalType": "uint256",
              "name": "_fee",
              "type": "uint256"
            }
          ],
          "name": "computeFee",
          "outputs": [
            {
              "internalType": "uint256",
              "name": "betFee",
              "type": "uint256"
            }
          ],
          "stateMutability": "pure",
          "type": "function"
        },
        {
          "inputs": [],
          "name": "fee",
          "outputs": [
            {
              "internalType": "uint256",
              "name": "",
              "type": "uint256"
            }
          ],
          "stateMutability": "view",
          "type": "function"
        },
        {
          "inputs": [],
          "name": "firstBlock",
          "outputs": [
            {
              "internalType": "uint256",
              "name": "",
              "type": "uint256"
            }
          ],
          "stateMutability": "view",
          "type": "function"
        },
        {
          "inputs": [],
          "name": "firstWindow",
          "outputs": [
            {
              "internalType": "uint256",
              "name": "",
              "type": "uint256"
            }
          ],
          "stateMutability": "view",
          "type": "function"
        },
        {
          "inputs": [
            {
              "internalType": "uint256",
              "name": "windowNumber",
              "type": "uint256"
            }
          ],
          "name": "getPoolValues",
          "outputs": [
            {
              "internalType": "uint256",
              "name": "",
              "type": "uint256"
            },
            {
              "internalType": "uint256",
              "name": "",
              "type": "uint256"
            }
          ],
          "stateMutability": "view",
          "type": "function"
        },
        {
          "inputs": [
            {
              "internalType": "address",
              "name": "user",
              "type": "address"
            },
            {
              "internalType": "uint256",
              "name": "index",
              "type": "uint256"
            }
          ],
          "name": "getUserBetList",
          "outputs": [
            {
              "internalType": "uint256",
              "name": "",
              "type": "uint256"
            }
          ],
          "stateMutability": "view",
          "type": "function"
        },
        {
          "inputs": [
            {
              "internalType": "uint256",
              "name": "windowNumber",
              "type": "uint256"
            },
            {
              "internalType": "address",
              "name": "user",
              "type": "address"
            }
          ],
          "name": "getUserStake",
          "outputs": [
            {
              "internalType": "uint256",
              "name": "",
              "type": "uint256"
            },
            {
              "internalType": "uint256",
              "name": "",
              "type": "uint256"
            }
          ],
          "stateMutability": "view",
          "type": "function"
        },
        {
          "inputs": [
            {
              "internalType": "uint256",
              "name": "window",
              "type": "uint256"
            }
          ],
          "name": "getWindowBetPrices",
          "outputs": [
            {
              "internalType": "uint256",
              "name": "",
              "type": "uint256"
            },
            {
              "internalType": "uint256",
              "name": "",
              "type": "uint256"
            }
          ],
          "stateMutability": "view",
          "type": "function"
        },
        {
          "inputs": [
            {
              "internalType": "uint256",
              "name": "currentBlock",
              "type": "uint256"
            },
            {
              "internalType": "uint256",
              "name": "_windowDuration",
              "type": "uint256"
            },
            {
              "internalType": "uint256",
              "name": "_firstBlock",
              "type": "uint256"
            },
            {
              "internalType": "uint256",
              "name": "_windowOffset",
              "type": "uint256"
            },
            {
              "internalType": "uint256",
              "name": "_firstWindow",
              "type": "uint256"
            }
          ],
          "name": "getWindowNumber",
          "outputs": [
            {
              "internalType": "uint256",
              "name": "windowNumber",
              "type": "uint256"
            }
          ],
          "stateMutability": "pure",
          "type": "function"
        },
        {
          "inputs": [
            {
              "internalType": "uint256",
              "name": "windowNumber",
              "type": "uint256"
            },
            {
              "internalType": "uint256",
              "name": "_windowDuration",
              "type": "uint256"
            },
            {
              "internalType": "uint256",
              "name": "_firstBlock",
              "type": "uint256"
            },
            {
              "internalType": "uint256",
              "name": "_windowOffset",
              "type": "uint256"
            }
          ],
          "name": "getWindowStartingBlock",
          "outputs": [
            {
              "internalType": "uint256",
              "name": "startingBlock",
              "type": "uint256"
            }
          ],
          "stateMutability": "pure",
          "type": "function"
        },
        {
          "inputs": [],
          "name": "owner",
          "outputs": [
            {
              "internalType": "address",
              "name": "",
              "type": "address"
            }
          ],
          "stateMutability": "view",
          "type": "function"
        },
        {
          "inputs": [
            {
              "internalType": "uint8",
              "name": "side",
              "type": "uint8"
            }
          ],
          "name": "placeBet",
          "outputs": [],
          "stateMutability": "payable",
          "type": "function"
        },
        {
          "inputs": [
            {
              "internalType": "uint256",
              "name": "",
              "type": "uint256"
            }
          ],
          "name": "pools",
          "outputs": [
            {
              "internalType": "uint64",
              "name": "downValue",
              "type": "uint64"
            },
            {
              "internalType": "uint64",
              "name": "upValue",
              "type": "uint64"
            }
          ],
          "stateMutability": "view",
          "type": "function"
        },
        {
          "inputs": [],
          "name": "renounceOwnership",
          "outputs": [],
          "stateMutability": "nonpayable",
          "type": "function"
        },
        {
          "inputs": [
            {
              "internalType": "uint256",
              "name": "upStake",
              "type": "uint256"
            },
            {
              "internalType": "uint256",
              "name": "downStake",
              "type": "uint256"
            },
            {
              "internalType": "uint256",
              "name": "poolUp",
              "type": "uint256"
            },
            {
              "internalType": "uint256",
              "name": "poolDown",
              "type": "uint256"
            },
            {
              "internalType": "uint8",
              "name": "res",
              "type": "uint8"
            }
          ],
          "name": "settleBet",
          "outputs": [
            {
              "internalType": "uint256",
              "name": "gain",
              "type": "uint256"
            },
            {
              "internalType": "uint256",
              "name": "fees",
              "type": "uint256"
            }
          ],
          "stateMutability": "pure",
          "type": "function"
        },
        {
          "inputs": [
            {
              "internalType": "address",
              "name": "newOwner",
              "type": "address"
            }
          ],
          "name": "transferOwnership",
          "outputs": [],
          "stateMutability": "nonpayable",
          "type": "function"
        },
        {
          "inputs": [
            {
              "internalType": "address",
              "name": "user",
              "type": "address"
            }
          ],
          "name": "updateBalance",
          "outputs": [],
          "stateMutability": "nonpayable",
          "type": "function"
        },
        {
          "inputs": [
            {
              "internalType": "uint64",
              "name": "downValue",
              "type": "uint64"
            },
            {
              "internalType": "uint64",
              "name": "upValue",
              "type": "uint64"
            },
            {
              "internalType": "uint8",
              "name": "side",
              "type": "uint8"
            },
            {
              "internalType": "uint64",
              "name": "value",
              "type": "uint64"
            }
          ],
          "name": "updatePool",
          "outputs": [
            {
              "internalType": "uint64",
              "name": "",
              "type": "uint64"
            },
            {
              "internalType": "uint64",
              "name": "",
              "type": "uint64"
            }
          ],
          "stateMutability": "pure",
          "type": "function"
        },
        {
          "inputs": [],
          "name": "updatePrice",
          "outputs": [],
          "stateMutability": "nonpayable",
          "type": "function"
        },
        {
          "inputs": [
            {
              "internalType": "address",
              "name": "",
              "type": "address"
            },
            {
              "internalType": "uint256",
              "name": "",
              "type": "uint256"
            }
          ],
          "name": "userBets",
          "outputs": [
            {
              "internalType": "uint256",
              "name": "",
              "type": "uint256"
            }
          ],
          "stateMutability": "view",
          "type": "function"
        },
        {
          "inputs": [
            {
              "internalType": "address",
              "name": "",
              "type": "address"
            },
            {
              "internalType": "uint256",
              "name": "",
              "type": "uint256"
            }
          ],
          "name": "userBetted",
          "outputs": [
            {
              "internalType": "bool",
              "name": "",
              "type": "bool"
            }
          ],
          "stateMutability": "view",
          "type": "function"
        },
        {
          "inputs": [
            {
              "internalType": "address",
              "name": "",
              "type": "address"
            },
            {
              "internalType": "uint256",
              "name": "",
              "type": "uint256"
            }
          ],
          "name": "userStake",
          "outputs": [
            {
              "internalType": "uint64",
              "name": "downValue",
              "type": "uint64"
            },
            {
              "internalType": "uint64",
              "name": "upValue",
              "type": "uint64"
            }
          ],
          "stateMutability": "view",
          "type": "function"
        },
        {
          "inputs": [],
          "name": "windowDuration",
          "outputs": [
            {
              "internalType": "uint256",
              "name": "",
              "type": "uint256"
            }
          ],
          "stateMutability": "view",
          "type": "function"
        },
        {
          "inputs": [],
          "name": "windowOffset",
          "outputs": [
            {
              "internalType": "uint256",
              "name": "",
              "type": "uint256"
            }
          ],
          "stateMutability": "view",
          "type": "function"
        },
        {
          "inputs": [
            {
              "internalType": "uint256",
              "name": "",
              "type": "uint256"
            }
          ],
          "name": "windowPrice",
          "outputs": [
            {
              "internalType": "uint256",
              "name": "",
              "type": "uint256"
            }
          ],
          "stateMutability": "view",
          "type": "function"
        },
        {
          "inputs": [
            {
              "internalType": "uint256",
              "name": "window",
              "type": "uint256"
            },
            {
              "internalType": "uint256",
              "name": "currentWindow",
              "type": "uint256"
            },
            {
              "internalType": "uint256",
              "name": "initialPrice",
              "type": "uint256"
            },
            {
              "internalType": "uint256",
              "name": "finalPrice",
              "type": "uint256"
            }
          ],
          "name": "windowStatus",
          "outputs": [
            {
              "internalType": "enum BinaryBet.WindowStatus",
              "name": "status",
              "type": "uint8"
            }
          ],
          "stateMutability": "pure",
          "type": "function"
        }
      ],
      "devdoc": {
        "kind": "dev",
        "methods": {
          "owner()": {
            "details": "Returns the address of the current owner."
          },
          "renounceOwnership()": {
            "details": "Leaves the contract without owner. It will not be possible to call `onlyOwner` functions anymore. Can only be called by the current owner. NOTE: Renouncing ownership will leave the contract without an owner, thereby removing any functionality that is only available to the owner."
          },
          "transferOwnership(address)": {
            "details": "Transfers ownership of the contract to a new account (`newOwner`). Can only be called by the current owner."
          }
        },
        "version": 1
      },
      "evm": {
        "bytecode": {
          "linkReferences": {},
          "object": "60a06040526001600a553480156200001657600080fd5b5060405162001d0c38038062001d0c833981016040819052620000399162000188565b62000044336200011b565b60648511156200009a5760405162461bcd60e51b815260206004820152601b60248201527f4665652073686f756c64206265206c657373207468616e203130300000000000604482015260640160405180910390fd5b600180546001600160a01b038087166001600160a01b03199283161783554360045560038990556002889055600a92909255600680548684169083168117909155600580548316909117905560078054928516929091169190911790556200010b81670de0b6b3a7640000620001ee565b608052506200021c945050505050565b600080546001600160a01b038381166001600160a01b0319831681178455604051919092169283917f8be0079c531659141344cd1fd0a4f28419497f9722a3daafe3b4186f6b6457e09190a35050565b80516001600160a01b03811681146200018357600080fd5b919050565b60008060008060008060c08789031215620001a257600080fd5b8651955060208701519450620001bb604088016200016b565b9350620001cb606088016200016b565b9250620001db608088016200016b565b915060a087015190509295509295509295565b60008160001904831182151516156200021757634e487b7160e01b600052601160045260246000fd5b500290565b608051611acd6200023f600039600081816103fb01526110ec0152611acd6000f3fe6080604052600436106101e35760003560e01c806389b808a711610102578063ca055e5311610095578063e0d65d8711610064578063e0d65d87146106a1578063f2fde38b146106ce578063f52818f0146106ee578063f83b35fb1461070e57600080fd5b8063ca055e5314610635578063daaac9d214610655578063ddca3f4314610675578063e0a5cee31461068b57600080fd5b8063a671bd6e116100d1578063a671bd6e14610586578063ac4afa38146105a6578063b134894e146105e8578063b47a35661461061557600080fd5b806389b808a7146104735780638da5cb5b146104a95780639599ee65146104d15780639626a2301461051c57600080fd5b8063587f5ed71161017a57806371a422071161014957806371a42207146103e95780638068aa681461041d578063809626681461043d578063849cd1c71461045357600080fd5b8063587f5ed7146103935780635c11ff7a146103a9578063673a7e28146103bf578063715018a6146103d457600080fd5b80633937ea4f116101b65780633937ea4f146102d057806340b8405a1461033e5780634304684414610360578063576fe42f1461037357600080fd5b80630eff4d88146101e85780631bb5abf91461025a578063231b02681461028c5780632ff284c2146102b0575b600080fd5b3480156101f457600080fd5b506102406102033660046116b5565b60009081526008602090815260409182902082518084019093525467ffffffffffffffff808216808552600160401b909204169290910182905291565b604080519283526020830191909152015b60405180910390f35b34801561026657600080fd5b5061027a6102753660046116ce565b61072e565b60405160ff9091168152602001610251565b34801561029857600080fd5b506102a260045481565b604051908152602001610251565b3480156102bc57600080fd5b506102a26102cb3660046116ce565b61075a565b3480156102dc57600080fd5b5061031d6102eb36600461170c565b600d60209081526000928352604080842090915290825290205467ffffffffffffffff80821691600160401b90041682565b6040805167ffffffffffffffff938416815292909116602083015201610251565b34801561034a57600080fd5b5061035e610359366004611736565b610779565b005b61035e61036e366004611762565b610ab9565b34801561037f57600080fd5b506102a261038e36600461177d565b610d7c565b34801561039f57600080fd5b506102a2600c5481565b3480156103b557600080fd5b506102a260035481565b3480156103cb57600080fd5b5061035e610dc4565b3480156103e057600080fd5b5061035e610e49565b3480156103f557600080fd5b506102a27f000000000000000000000000000000000000000000000000000000000000000081565b34801561042957600080fd5b506102a261043836600461170c565b610eaf565b34801561044957600080fd5b506102a2600b5481565b34801561045f57600080fd5b506102a261046e3660046117b8565b610ee0565b34801561047f57600080fd5b506102a261048e366004611736565b6001600160a01b03166000908152600e602052604090205490565b3480156104b557600080fd5b506000546040516001600160a01b039091168152602001610251565b3480156104dd57600080fd5b5061050c6104ec36600461170c565b600f60209081526000928352604080842090915290825290205460ff1681565b6040519015158152602001610251565b34801561052857600080fd5b506102406105373660046117ea565b6001600160a01b03166000908152600d602090815260408083209383529281529082902082518084019093525467ffffffffffffffff808216808552600160401b909204169290910182905291565b34801561059257600080fd5b5061031d6105a136600461182e565b610f0d565b3480156105b257600080fd5b5061031d6105c13660046116b5565b60086020526000908152604090205467ffffffffffffffff80821691600160401b90041682565b3480156105f457600080fd5b506106086106033660046117b8565b610f72565b6040516102519190611898565b34801561062157600080fd5b506102a261063036600461170c565b610fd6565b34801561064157600080fd5b506102406106503660046118c0565b611013565b34801561066157600080fd5b506102a26106703660046117b8565b6110e5565b34801561068157600080fd5b506102a260025481565b34801561069757600080fd5b506102a2600a5481565b3480156106ad57600080fd5b506102a26106bc3660046116b5565b60096020526000908152604090205481565b3480156106da57600080fd5b5061035e6106e9366004611736565b611124565b3480156106fa57600080fd5b5061035e6107093660046116b5565b611203565b34801561071a57600080fd5b506102406107293660046116b5565b6112f2565b60008282101561074057506000610754565b8282111561075057506001610754565b5060025b92915050565b60006064610768838561191f565b610772919061193e565b9392505050565b6001600160a01b0381166000908152600e60205260409020805461079b575050565b80546000905b8015610a7b576000836107b5600184611960565b815481106107c5576107c5611977565b9060005260206000200154905060006107e943600354600454600b54600a54610d7c565b90506000806107f7846112f2565b91509150600061080985858585610f72565b9050600081600381111561081f5761081f611882565b148061083c5750600181600381111561083a5761083a611882565b145b1561084b575050505050610a69565b6000600382600381111561086157610861611882565b141561087857610871848461072e565b9050610896565b600282600381111561088c5761088c611882565b1415610896575060025b885489906108a690600190611960565b815481106108b6576108b6611977565b9060005260206000200154896001896108cf9190611960565b815481106108df576108df611977565b9060005260206000200181905550888054806108fd576108fd61198d565b6000828152602080822083016000199081018390559092019092556001600160a01b038c168252600d81526040808320898452825280832081518083018352905467ffffffffffffffff8082168352600160401b9182900481168386019081528c875260088652848720855180870190965254808316808752939004821695850186905251835193969495859461099a9492841693169189611013565b90925090506109a9828d6119a3565b9b5080600c546109b991906119a3565b600c819055506000610a05856020015167ffffffffffffffff16866000015167ffffffffffffffff16866020015167ffffffffffffffff16876000015167ffffffffffffffff166110e5565b9050610a118f8261133b565b610a19611529565b8e6001600160a01b03168b7f6f277b50171c654e40c771d9c2bbf19e070eeb21cce6f8e9a80334564279e39585604051610a5591815260200190565b60405180910390a350505050505050505050505b80610a73816119bb565b9150506107a1565b506040516001600160a01b0384169082156108fc029083906000818181858888f19350505050158015610ab2573d6000803e3d6000fd5b505b505050565b60003411610b0e5760405162461bcd60e51b815260206004820152601d60248201527f4f6e6c79207374726963746c7920706f7369746976652076616c75657300000060448201526064015b60405180910390fd5b610b16610dc4565b610b1f33610779565b6000610b2d3460025461075a565b905080600c54610b3d91906119a3565b600c556000610b4c8234611960565b90506000610b6543600354600454600b54600a54610d7c565b336000908152600f6020908152604080832084845290915290205490915060ff16610bcd57336000818152600e6020908152604080832080546001818101835591855283852001869055938352600f82528083208584529091529020805460ff191690911790555b600081815260086020908152604080832081518083019092525467ffffffffffffffff808216808452600160401b909204169282018390529092918291610c15918988610f0d565b60408051808201825267ffffffffffffffff8481168252838116602080840191825260008b8152600882528581209451855493519085166fffffffffffffffffffffffffffffffff1990941693909317600160401b938516840217909455338452600d81528484208b855281529284902084518086019095525480831680865291900490911691830182905293955091935091610cb3918a89610f0d565b60408051808201825267ffffffffffffffff80851682528084166020808401918252336000818152600d83528681208e8252909252908590209351845492518416600160401b026fffffffffffffffffffffffffffffffff1990931693169290921717909155905192955090935086917f85ff162f60a0eab11e1e0d3d9cfa18a46d7038a29751af4130dbaeeadbd37ed490610d6a908a908d9067ffffffffffffffff92909216825260ff16602082015260400190565b60405180910390a35050505050505050565b600083861015610d8d575080610dbb565b8285610d998689611960565b610da3919061193e565b610dad91906119a3565b610db89060016119a3565b90505b95945050505050565b6000610ddb43600354600454600b54600a54610d7c565b600081815260096020526040902054909150610e4657610df96115a2565b600082815260096020526040908190208290555182917f945c1c4e99aa89f648fbfe3df471b916f719e16d960fcec0737d4d56bd69683891610e3d91815260200190565b60405180910390a25b50565b6000546001600160a01b03163314610ea35760405162461bcd60e51b815260206004820181905260248201527f4f776e61626c653a2063616c6c6572206973206e6f7420746865206f776e65726044820152606401610b05565b610ead6000611636565b565b600e6020528160005260406000208181548110610ecb57600080fd5b90600052602060002001600091509150505481565b60008382610eef600188611960565b610ef99190611960565b610f03919061191f565b610dbb90846119a3565b60008060008460ff166001811115610f2757610f27611882565b90506000816001811115610f3d57610f3d611882565b1415610f5857610f4d84886119d2565b869250925050610f69565b86610f6385886119d2565b92509250505b94509492505050565b6000610f7f8560026119a3565b841015610f8e57506000610fce565b610f998560036119a3565b84108015610fa5575081155b15610fb257506001610fce565b821580610fbd575081155b15610fca57506002610fce565b5060035b949350505050565b6001600160a01b0382166000908152600e6020526040812080548390811061100057611000611977565b9060005260206000200154905092915050565b60008060008360ff16600281111561102d5761102d611882565b9050600061103b86886119a3565b9050600182600281111561105157611051611882565b14801561105d57508615155b156110745761106d818a8961169e565b93506110d9565b600082600281111561108857611088611882565b14801561109457508515155b156110a45761106d81898861169e565b60028260028111156110b8576110b8611882565b14156110c85761106d888a6119a3565b600093506110d6888a6119a3565b92505b50509550959350505050565b6000610dbb7f000000000000000000000000000000000000000000000000000000000000000061111586886119a3565b61111f85876119a3565b61169e565b6000546001600160a01b0316331461117e5760405162461bcd60e51b815260206004820181905260248201527f4f776e61626c653a2063616c6c6572206973206e6f7420746865206f776e65726044820152606401610b05565b6001600160a01b0381166111fa5760405162461bcd60e51b815260206004820152602660248201527f4f776e61626c653a206e6577206f776e657220697320746865207a65726f206160448201527f64647265737300000000000000000000000000000000000000000000000000006064820152608401610b05565b610e4681611636565b6000546001600160a01b0316331461125d5760405162461bcd60e51b815260206004820181905260248201527f4f776e61626c653a2063616c6c6572206973206e6f7420746865206f776e65726044820152606401610b05565b600081116112ad5760405162461bcd60e51b815260206004820152601b60248201527f77696e646f772073697a652073686f756c6420706f73697469766500000000006044820152606401610b05565b60006112c443600354600454600b54600a54610d7c565b90506112e26112d48260016119a3565b600354600454600b54610ee0565b600455600b819055600a55600355565b6000806009816113038560016119a3565b8152602001908152602001600020546009600085600261132391906119a3565b81526020019081526020016000205491509150915091565b6007546040516370a0823160e01b815230600482015282916001600160a01b0316906370a082319060240160206040518083038186803b15801561137e57600080fd5b505afa158015611392573d6000803e3d6000fd5b505050506040513d601f19601f820116820180604052508101906113b691906119fe565b1061145b576007546040517fa9059cbb0000000000000000000000000000000000000000000000000000000081526001600160a01b038481166004830152602482018490529091169063a9059cbb906044015b602060405180830381600087803b15801561142357600080fd5b505af1158015611437573d6000803e3d6000fd5b505050506040513d601f19601f82011682018060405250810190610ab49190611a17565b6007546040516370a0823160e01b81523060048201526001600160a01b039091169063a9059cbb90849083906370a082319060240160206040518083038186803b1580156114a857600080fd5b505afa1580156114bc573d6000803e3d6000fd5b505050506040513d601f19601f820116820180604052508101906114e091906119fe565b6040517fffffffff0000000000000000000000000000000000000000000000000000000060e085901b1681526001600160a01b0390921660048301526024820152604401611409565b600c5415610ead57600560009054906101000a90046001600160a01b03166001600160a01b0316625c33e1600c546040518263ffffffff1660e01b81526004016000604051808303818588803b15801561158257600080fd5b505af1158015611596573d6000803e3d6000fd5b50506000600c55505050565b600080600160009054906101000a90046001600160a01b03166001600160a01b031663feaf968c6040518163ffffffff1660e01b815260040160a06040518083038186803b1580156115f357600080fd5b505afa158015611607573d6000803e3d6000fd5b505050506040513d601f19601f8201168201806040525081019061162b9190611a53565b509195945050505050565b600080546001600160a01b038381167fffffffffffffffffffffffff0000000000000000000000000000000000000000831681178455604051919092169283917f8be0079c531659141344cd1fd0a4f28419497f9722a3daafe3b4186f6b6457e09190a35050565b6000816116ab858561191f565b610fce919061193e565b6000602082840312156116c757600080fd5b5035919050565b600080604083850312156116e157600080fd5b50508035926020909101359150565b80356001600160a01b038116811461170757600080fd5b919050565b6000806040838503121561171f57600080fd5b611728836116f0565b946020939093013593505050565b60006020828403121561174857600080fd5b610772826116f0565b803560ff8116811461170757600080fd5b60006020828403121561177457600080fd5b61077282611751565b600080600080600060a0868803121561179557600080fd5b505083359560208501359550604085013594606081013594506080013592509050565b600080600080608085870312156117ce57600080fd5b5050823594602084013594506040840135936060013592509050565b600080604083850312156117fd57600080fd5b8235915061180d602084016116f0565b90509250929050565b803567ffffffffffffffff8116811461170757600080fd5b6000806000806080858703121561184457600080fd5b61184d85611816565b935061185b60208601611816565b925061186960408601611751565b915061187760608601611816565b905092959194509250565b634e487b7160e01b600052602160045260246000fd5b60208101600483106118ba57634e487b7160e01b600052602160045260246000fd5b91905290565b600080600080600060a086880312156118d857600080fd5b853594506020860135935060408601359250606086013591506118fd60808701611751565b90509295509295909350565b634e487b7160e01b600052601160045260246000fd5b600081600019048311821515161561193957611939611909565b500290565b60008261195b57634e487b7160e01b600052601260045260246000fd5b500490565b60008282101561197257611972611909565b500390565b634e487b7160e01b600052603260045260246000fd5b634e487b7160e01b600052603160045260246000fd5b600082198211156119b6576119b6611909565b500190565b6000816119ca576119ca611909565b506000190190565b600067ffffffffffffffff8083168185168083038211156119f5576119f5611909565b01949350505050565b600060208284031215611a1057600080fd5b5051919050565b600060208284031215611a2957600080fd5b8151801515811461077257600080fd5b805169ffffffffffffffffffff8116811461170757600080fd5b600080600080600060a08688031215611a6b57600080fd5b611a7486611a39565b94506020860151935060408601519250606086015191506118fd60808701611a3956fea26469706673582212208474b986a2f095b35a1b4e5cd41230dd2db4f72ee4e9f61102abf516a39c0af164736f6c63430008080033",
          "opcodes": "PUSH1 0xA0 PUSH1 0x40 MSTORE PUSH1 0x1 PUSH1 0xA SSTORE CALLVALUE DUP1 ISZERO PUSH3 0x16 JUMPI PUSH1 0x0 DUP1 REVERT JUMPDEST POP PUSH1 0x40 MLOAD PUSH3 0x1D0C CODESIZE SUB DUP1 PUSH3 0x1D0C DUP4 CODECOPY DUP2 ADD PUSH1 0x40 DUP2 SWAP1 MSTORE PUSH3 0x39 SWAP2 PUSH3 0x188 JUMP JUMPDEST PUSH3 0x44 CALLER PUSH3 0x11B JUMP JUMPDEST PUSH1 0x64 DUP6 GT ISZERO PUSH3 0x9A JUMPI PUSH1 0x40 MLOAD PUSH3 0x461BCD PUSH1 0xE5 SHL DUP2 MSTORE PUSH1 0x20 PUSH1 0x4 DUP3 ADD MSTORE PUSH1 0x1B PUSH1 0x24 DUP3 ADD MSTORE PUSH32 0x4665652073686F756C64206265206C657373207468616E203130300000000000 PUSH1 0x44 DUP3 ADD MSTORE PUSH1 0x64 ADD PUSH1 0x40 MLOAD DUP1 SWAP2 SUB SWAP1 REVERT JUMPDEST PUSH1 0x1 DUP1 SLOAD PUSH1 0x1 PUSH1 0x1 PUSH1 0xA0 SHL SUB DUP1 DUP8 AND PUSH1 0x1 PUSH1 0x1 PUSH1 0xA0 SHL SUB NOT SWAP3 DUP4 AND OR DUP4 SSTORE NUMBER PUSH1 0x4 SSTORE PUSH1 0x3 DUP10 SWAP1 SSTORE PUSH1 0x2 DUP9 SWAP1 SSTORE PUSH1 0xA SWAP3 SWAP1 SWAP3 SSTORE PUSH1 0x6 DUP1 SLOAD DUP7 DUP5 AND SWAP1 DUP4 AND DUP2 OR SWAP1 SWAP2 SSTORE PUSH1 0x5 DUP1 SLOAD DUP4 AND SWAP1 SWAP2 OR SWAP1 SSTORE PUSH1 0x7 DUP1 SLOAD SWAP3 DUP6 AND SWAP3 SWAP1 SWAP2 AND SWAP2 SWAP1 SWAP2 OR SWAP1 SSTORE PUSH3 0x10B DUP2 PUSH8 0xDE0B6B3A7640000 PUSH3 0x1EE JUMP JUMPDEST PUSH1 0x80 MSTORE POP PUSH3 0x21C SWAP5 POP POP POP POP POP JUMP JUMPDEST PUSH1 0x0 DUP1 SLOAD PUSH1 0x1 PUSH1 0x1 PUSH1 0xA0 SHL SUB DUP4 DUP2 AND PUSH1 0x1 PUSH1 0x1 PUSH1 0xA0 SHL SUB NOT DUP4 AND DUP2 OR DUP5 SSTORE PUSH1 0x40 MLOAD SWAP2 SWAP1 SWAP3 AND SWAP3 DUP4 SWAP2 PUSH32 0x8BE0079C531659141344CD1FD0A4F28419497F9722A3DAAFE3B4186F6B6457E0 SWAP2 SWAP1 LOG3 POP POP JUMP JUMPDEST DUP1 MLOAD PUSH1 0x1 PUSH1 0x1 PUSH1 0xA0 SHL SUB DUP2 AND DUP2 EQ PUSH3 0x183 JUMPI PUSH1 0x0 DUP1 REVERT JUMPDEST SWAP2 SWAP1 POP JUMP JUMPDEST PUSH1 0x0 DUP1 PUSH1 0x0 DUP1 PUSH1 0x0 DUP1 PUSH1 0xC0 DUP8 DUP10 SUB SLT ISZERO PUSH3 0x1A2 JUMPI PUSH1 0x0 DUP1 REVERT JUMPDEST DUP7 MLOAD SWAP6 POP PUSH1 0x20 DUP8 ADD MLOAD SWAP5 POP PUSH3 0x1BB PUSH1 0x40 DUP9 ADD PUSH3 0x16B JUMP JUMPDEST SWAP4 POP PUSH3 0x1CB PUSH1 0x60 DUP9 ADD PUSH3 0x16B JUMP JUMPDEST SWAP3 POP PUSH3 0x1DB PUSH1 0x80 DUP9 ADD PUSH3 0x16B JUMP JUMPDEST SWAP2 POP PUSH1 0xA0 DUP8 ADD MLOAD SWAP1 POP SWAP3 SWAP6 POP SWAP3 SWAP6 POP SWAP3 SWAP6 JUMP JUMPDEST PUSH1 0x0 DUP2 PUSH1 0x0 NOT DIV DUP4 GT DUP3 ISZERO ISZERO AND ISZERO PUSH3 0x217 JUMPI PUSH4 0x4E487B71 PUSH1 0xE0 SHL PUSH1 0x0 MSTORE PUSH1 0x11 PUSH1 0x4 MSTORE PUSH1 0x24 PUSH1 0x0 REVERT JUMPDEST POP MUL SWAP1 JUMP JUMPDEST PUSH1 0x80 MLOAD PUSH2 0x1ACD PUSH3 0x23F PUSH1 0x0 CODECOPY PUSH1 0x0 DUP2 DUP2 PUSH2 0x3FB ADD MSTORE PUSH2 0x10EC ADD MSTORE PUSH2 0x1ACD PUSH1 0x0 RETURN INVALID PUSH1 0x80 PUSH1 0x40 MSTORE PUSH1 0x4 CALLDATASIZE LT PUSH2 0x1E3 JUMPI PUSH1 0x0 CALLDATALOAD PUSH1 0xE0 SHR DUP1 PUSH4 0x89B808A7 GT PUSH2 0x102 JUMPI DUP1 PUSH4 0xCA055E53 GT PUSH2 0x95 JUMPI DUP1 PUSH4 0xE0D65D87 GT PUSH2 0x64 JUMPI DUP1 PUSH4 0xE0D65D87 EQ PUSH2 0x6A1 JUMPI DUP1 PUSH4 0xF2FDE38B EQ PUSH2 0x6CE JUMPI DUP1 PUSH4 0xF52818F0 EQ PUSH2 0x6EE JUMPI DUP1 PUSH4 0xF83B35FB EQ PUSH2 0x70E JUMPI PUSH1 0x0 DUP1 REVERT JUMPDEST DUP1 PUSH4 0xCA055E53 EQ PUSH2 0x635 JUMPI DUP1 PUSH4 0xDAAAC9D2 EQ PUSH2 0x655 JUMPI DUP1 PUSH4 0xDDCA3F43 EQ PUSH2 0x675 JUMPI DUP1 PUSH4 0xE0A5CEE3 EQ PUSH2 0x68B JUMPI PUSH1 0x0 DUP1 REVERT JUMPDEST DUP1 PUSH4 0xA671BD6E GT PUSH2 0xD1 JUMPI DUP1 PUSH4 0xA671BD6E EQ PUSH2 0x586 JUMPI DUP1 PUSH4 0xAC4AFA38 EQ PUSH2 0x5A6 JUMPI DUP1 PUSH4 0xB134894E EQ PUSH2 0x5E8 JUMPI DUP1 PUSH4 0xB47A3566 EQ PUSH2 0x615 JUMPI PUSH1 0x0 DUP1 REVERT JUMPDEST DUP1 PUSH4 0x89B808A7 EQ PUSH2 0x473 JUMPI DUP1 PUSH4 0x8DA5CB5B EQ PUSH2 0x4A9 JUMPI DUP1 PUSH4 0x9599EE65 EQ PUSH2 0x4D1 JUMPI DUP1 PUSH4 0x9626A230 EQ PUSH2 0x51C JUMPI PUSH1 0x0 DUP1 REVERT JUMPDEST DUP1 PUSH4 0x587F5ED7 GT PUSH2 0x17A JUMPI DUP1 PUSH4 0x71A42207 GT PUSH2 0x149 JUMPI DUP1 PUSH4 0x71A42207 EQ PUSH2 0x3E9 JUMPI DUP1 PUSH4 0x8068AA68 EQ PUSH2 0x41D JUMPI DUP1 PUSH4 0x80962668 EQ PUSH2 0x43D JUMPI DUP1 PUSH4 0x849CD1C7 EQ PUSH2 0x453 JUMPI PUSH1 0x0 DUP1 REVERT JUMPDEST DUP1 PUSH4 0x587F5ED7 EQ PUSH2 0x393 JUMPI DUP1 PUSH4 0x5C11FF7A EQ PUSH2 0x3A9 JUMPI DUP1 PUSH4 0x673A7E28 EQ PUSH2 0x3BF JUMPI DUP1 PUSH4 0x715018A6 EQ PUSH2 0x3D4 JUMPI PUSH1 0x0 DUP1 REVERT JUMPDEST DUP1 PUSH4 0x3937EA4F GT PUSH2 0x1B6 JUMPI DUP1 PUSH4 0x3937EA4F EQ PUSH2 0x2D0 JUMPI DUP1 PUSH4 0x40B8405A EQ PUSH2 0x33E JUMPI DUP1 PUSH4 0x43046844 EQ PUSH2 0x360 JUMPI DUP1 PUSH4 0x576FE42F EQ PUSH2 0x373 JUMPI PUSH1 0x0 DUP1 REVERT JUMPDEST DUP1 PUSH4 0xEFF4D88 EQ PUSH2 0x1E8 JUMPI DUP1 PUSH4 0x1BB5ABF9 EQ PUSH2 0x25A JUMPI DUP1 PUSH4 0x231B0268 EQ PUSH2 0x28C JUMPI DUP1 PUSH4 0x2FF284C2 EQ PUSH2 0x2B0 JUMPI JUMPDEST PUSH1 0x0 DUP1 REVERT JUMPDEST CALLVALUE DUP1 ISZERO PUSH2 0x1F4 JUMPI PUSH1 0x0 DUP1 REVERT JUMPDEST POP PUSH2 0x240 PUSH2 0x203 CALLDATASIZE PUSH1 0x4 PUSH2 0x16B5 JUMP JUMPDEST PUSH1 0x0 SWAP1 DUP2 MSTORE PUSH1 0x8 PUSH1 0x20 SWAP1 DUP2 MSTORE PUSH1 0x40 SWAP2 DUP3 SWAP1 KECCAK256 DUP3 MLOAD DUP1 DUP5 ADD SWAP1 SWAP4 MSTORE SLOAD PUSH8 0xFFFFFFFFFFFFFFFF DUP1 DUP3 AND DUP1 DUP6 MSTORE PUSH1 0x1 PUSH1 0x40 SHL SWAP1 SWAP3 DIV AND SWAP3 SWAP1 SWAP2 ADD DUP3 SWAP1 MSTORE SWAP2 JUMP JUMPDEST PUSH1 0x40 DUP1 MLOAD SWAP3 DUP4 MSTORE PUSH1 0x20 DUP4 ADD SWAP2 SWAP1 SWAP2 MSTORE ADD JUMPDEST PUSH1 0x40 MLOAD DUP1 SWAP2 SUB SWAP1 RETURN JUMPDEST CALLVALUE DUP1 ISZERO PUSH2 0x266 JUMPI PUSH1 0x0 DUP1 REVERT JUMPDEST POP PUSH2 0x27A PUSH2 0x275 CALLDATASIZE PUSH1 0x4 PUSH2 0x16CE JUMP JUMPDEST PUSH2 0x72E JUMP JUMPDEST PUSH1 0x40 MLOAD PUSH1 0xFF SWAP1 SWAP2 AND DUP2 MSTORE PUSH1 0x20 ADD PUSH2 0x251 JUMP JUMPDEST CALLVALUE DUP1 ISZERO PUSH2 0x298 JUMPI PUSH1 0x0 DUP1 REVERT JUMPDEST POP PUSH2 0x2A2 PUSH1 0x4 SLOAD DUP2 JUMP JUMPDEST PUSH1 0x40 MLOAD SWAP1 DUP2 MSTORE PUSH1 0x20 ADD PUSH2 0x251 JUMP JUMPDEST CALLVALUE DUP1 ISZERO PUSH2 0x2BC JUMPI PUSH1 0x0 DUP1 REVERT JUMPDEST POP PUSH2 0x2A2 PUSH2 0x2CB CALLDATASIZE PUSH1 0x4 PUSH2 0x16CE JUMP JUMPDEST PUSH2 0x75A JUMP JUMPDEST CALLVALUE DUP1 ISZERO PUSH2 0x2DC JUMPI PUSH1 0x0 DUP1 REVERT JUMPDEST POP PUSH2 0x31D PUSH2 0x2EB CALLDATASIZE PUSH1 0x4 PUSH2 0x170C JUMP JUMPDEST PUSH1 0xD PUSH1 0x20 SWAP1 DUP2 MSTORE PUSH1 0x0 SWAP3 DUP4 MSTORE PUSH1 0x40 DUP1 DUP5 KECCAK256 SWAP1 SWAP2 MSTORE SWAP1 DUP3 MSTORE SWAP1 KECCAK256 SLOAD PUSH8 0xFFFFFFFFFFFFFFFF DUP1 DUP3 AND SWAP2 PUSH1 0x1 PUSH1 0x40 SHL SWAP1 DIV AND DUP3 JUMP JUMPDEST PUSH1 0x40 DUP1 MLOAD PUSH8 0xFFFFFFFFFFFFFFFF SWAP4 DUP5 AND DUP2 MSTORE SWAP3 SWAP1 SWAP2 AND PUSH1 0x20 DUP4 ADD MSTORE ADD PUSH2 0x251 JUMP JUMPDEST CALLVALUE DUP1 ISZERO PUSH2 0x34A JUMPI PUSH1 0x0 DUP1 REVERT JUMPDEST POP PUSH2 0x35E PUSH2 0x359 CALLDATASIZE PUSH1 0x4 PUSH2 0x1736 JUMP JUMPDEST PUSH2 0x779 JUMP JUMPDEST STOP JUMPDEST PUSH2 0x35E PUSH2 0x36E CALLDATASIZE PUSH1 0x4 PUSH2 0x1762 JUMP JUMPDEST PUSH2 0xAB9 JUMP JUMPDEST CALLVALUE DUP1 ISZERO PUSH2 0x37F JUMPI PUSH1 0x0 DUP1 REVERT JUMPDEST POP PUSH2 0x2A2 PUSH2 0x38E CALLDATASIZE PUSH1 0x4 PUSH2 0x177D JUMP JUMPDEST PUSH2 0xD7C JUMP JUMPDEST CALLVALUE DUP1 ISZERO PUSH2 0x39F JUMPI PUSH1 0x0 DUP1 REVERT JUMPDEST POP PUSH2 0x2A2 PUSH1 0xC SLOAD DUP2 JUMP JUMPDEST CALLVALUE DUP1 ISZERO PUSH2 0x3B5 JUMPI PUSH1 0x0 DUP1 REVERT JUMPDEST POP PUSH2 0x2A2 PUSH1 0x3 SLOAD DUP2 JUMP JUMPDEST CALLVALUE DUP1 ISZERO PUSH2 0x3CB JUMPI PUSH1 0x0 DUP1 REVERT JUMPDEST POP PUSH2 0x35E PUSH2 0xDC4 JUMP JUMPDEST CALLVALUE DUP1 ISZERO PUSH2 0x3E0 JUMPI PUSH1 0x0 DUP1 REVERT JUMPDEST POP PUSH2 0x35E PUSH2 0xE49 JUMP JUMPDEST CALLVALUE DUP1 ISZERO PUSH2 0x3F5 JUMPI PUSH1 0x0 DUP1 REVERT JUMPDEST POP PUSH2 0x2A2 PUSH32 0x0 DUP2 JUMP JUMPDEST CALLVALUE DUP1 ISZERO PUSH2 0x429 JUMPI PUSH1 0x0 DUP1 REVERT JUMPDEST POP PUSH2 0x2A2 PUSH2 0x438 CALLDATASIZE PUSH1 0x4 PUSH2 0x170C JUMP JUMPDEST PUSH2 0xEAF JUMP JUMPDEST CALLVALUE DUP1 ISZERO PUSH2 0x449 JUMPI PUSH1 0x0 DUP1 REVERT JUMPDEST POP PUSH2 0x2A2 PUSH1 0xB SLOAD DUP2 JUMP JUMPDEST CALLVALUE DUP1 ISZERO PUSH2 0x45F JUMPI PUSH1 0x0 DUP1 REVERT JUMPDEST POP PUSH2 0x2A2 PUSH2 0x46E CALLDATASIZE PUSH1 0x4 PUSH2 0x17B8 JUMP JUMPDEST PUSH2 0xEE0 JUMP JUMPDEST CALLVALUE DUP1 ISZERO PUSH2 0x47F JUMPI PUSH1 0x0 DUP1 REVERT JUMPDEST POP PUSH2 0x2A2 PUSH2 0x48E CALLDATASIZE PUSH1 0x4 PUSH2 0x1736 JUMP JUMPDEST PUSH1 0x1 PUSH1 0x1 PUSH1 0xA0 SHL SUB AND PUSH1 0x0 SWAP1 DUP2 MSTORE PUSH1 0xE PUSH1 0x20 MSTORE PUSH1 0x40 SWAP1 KECCAK256 SLOAD SWAP1 JUMP JUMPDEST CALLVALUE DUP1 ISZERO PUSH2 0x4B5 JUMPI PUSH1 0x0 DUP1 REVERT JUMPDEST POP PUSH1 0x0 SLOAD PUSH1 0x40 MLOAD PUSH1 0x1 PUSH1 0x1 PUSH1 0xA0 SHL SUB SWAP1 SWAP2 AND DUP2 MSTORE PUSH1 0x20 ADD PUSH2 0x251 JUMP JUMPDEST CALLVALUE DUP1 ISZERO PUSH2 0x4DD JUMPI PUSH1 0x0 DUP1 REVERT JUMPDEST POP PUSH2 0x50C PUSH2 0x4EC CALLDATASIZE PUSH1 0x4 PUSH2 0x170C JUMP JUMPDEST PUSH1 0xF PUSH1 0x20 SWAP1 DUP2 MSTORE PUSH1 0x0 SWAP3 DUP4 MSTORE PUSH1 0x40 DUP1 DUP5 KECCAK256 SWAP1 SWAP2 MSTORE SWAP1 DUP3 MSTORE SWAP1 KECCAK256 SLOAD PUSH1 0xFF AND DUP2 JUMP JUMPDEST PUSH1 0x40 MLOAD SWAP1 ISZERO ISZERO DUP2 MSTORE PUSH1 0x20 ADD PUSH2 0x251 JUMP JUMPDEST CALLVALUE DUP1 ISZERO PUSH2 0x528 JUMPI PUSH1 0x0 DUP1 REVERT JUMPDEST POP PUSH2 0x240 PUSH2 0x537 CALLDATASIZE PUSH1 0x4 PUSH2 0x17EA JUMP JUMPDEST PUSH1 0x1 PUSH1 0x1 PUSH1 0xA0 SHL SUB AND PUSH1 0x0 SWAP1 DUP2 MSTORE PUSH1 0xD PUSH1 0x20 SWAP1 DUP2 MSTORE PUSH1 0x40 DUP1 DUP4 KECCAK256 SWAP4 DUP4 MSTORE SWAP3 DUP2 MSTORE SWAP1 DUP3 SWAP1 KECCAK256 DUP3 MLOAD DUP1 DUP5 ADD SWAP1 SWAP4 MSTORE SLOAD PUSH8 0xFFFFFFFFFFFFFFFF DUP1 DUP3 AND DUP1 DUP6 MSTORE PUSH1 0x1 PUSH1 0x40 SHL SWAP1 SWAP3 DIV AND SWAP3 SWAP1 SWAP2 ADD DUP3 SWAP1 MSTORE SWAP2 JUMP JUMPDEST CALLVALUE DUP1 ISZERO PUSH2 0x592 JUMPI PUSH1 0x0 DUP1 REVERT JUMPDEST POP PUSH2 0x31D PUSH2 0x5A1 CALLDATASIZE PUSH1 0x4 PUSH2 0x182E JUMP JUMPDEST PUSH2 0xF0D JUMP JUMPDEST CALLVALUE DUP1 ISZERO PUSH2 0x5B2 JUMPI PUSH1 0x0 DUP1 REVERT JUMPDEST POP PUSH2 0x31D PUSH2 0x5C1 CALLDATASIZE PUSH1 0x4 PUSH2 0x16B5 JUMP JUMPDEST PUSH1 0x8 PUSH1 0x20 MSTORE PUSH1 0x0 SWAP1 DUP2 MSTORE PUSH1 0x40 SWAP1 KECCAK256 SLOAD PUSH8 0xFFFFFFFFFFFFFFFF DUP1 DUP3 AND SWAP2 PUSH1 0x1 PUSH1 0x40 SHL SWAP1 DIV AND DUP3 JUMP JUMPDEST CALLVALUE DUP1 ISZERO PUSH2 0x5F4 JUMPI PUSH1 0x0 DUP1 REVERT JUMPDEST POP PUSH2 0x608 PUSH2 0x603 CALLDATASIZE PUSH1 0x4 PUSH2 0x17B8 JUMP JUMPDEST PUSH2 0xF72 JUMP JUMPDEST PUSH1 0x40 MLOAD PUSH2 0x251 SWAP2 SWAP1 PUSH2 0x1898 JUMP JUMPDEST CALLVALUE DUP1 ISZERO PUSH2 0x621 JUMPI PUSH1 0x0 DUP1 REVERT JUMPDEST POP PUSH2 0x2A2 PUSH2 0x630 CALLDATASIZE PUSH1 0x4 PUSH2 0x170C JUMP JUMPDEST PUSH2 0xFD6 JUMP JUMPDEST CALLVALUE DUP1 ISZERO PUSH2 0x641 JUMPI PUSH1 0x0 DUP1 REVERT JUMPDEST POP PUSH2 0x240 PUSH2 0x650 CALLDATASIZE PUSH1 0x4 PUSH2 0x18C0 JUMP JUMPDEST PUSH2 0x1013 JUMP JUMPDEST CALLVALUE DUP1 ISZERO PUSH2 0x661 JUMPI PUSH1 0x0 DUP1 REVERT JUMPDEST POP PUSH2 0x2A2 PUSH2 0x670 CALLDATASIZE PUSH1 0x4 PUSH2 0x17B8 JUMP JUMPDEST PUSH2 0x10E5 JUMP JUMPDEST CALLVALUE DUP1 ISZERO PUSH2 0x681 JUMPI PUSH1 0x0 DUP1 REVERT JUMPDEST POP PUSH2 0x2A2 PUSH1 0x2 SLOAD DUP2 JUMP JUMPDEST CALLVALUE DUP1 ISZERO PUSH2 0x697 JUMPI PUSH1 0x0 DUP1 REVERT JUMPDEST POP PUSH2 0x2A2 PUSH1 0xA SLOAD DUP2 JUMP JUMPDEST CALLVALUE DUP1 ISZERO PUSH2 0x6AD JUMPI PUSH1 0x0 DUP1 REVERT JUMPDEST POP PUSH2 0x2A2 PUSH2 0x6BC CALLDATASIZE PUSH1 0x4 PUSH2 0x16B5 JUMP JUMPDEST PUSH1 0x9 PUSH1 0x20 MSTORE PUSH1 0x0 SWAP1 DUP2 MSTORE PUSH1 0x40 SWAP1 KECCAK256 SLOAD DUP2 JUMP JUMPDEST CALLVALUE DUP1 ISZERO PUSH2 0x6DA JUMPI PUSH1 0x0 DUP1 REVERT JUMPDEST POP PUSH2 0x35E PUSH2 0x6E9 CALLDATASIZE PUSH1 0x4 PUSH2 0x1736 JUMP JUMPDEST PUSH2 0x1124 JUMP JUMPDEST CALLVALUE DUP1 ISZERO PUSH2 0x6FA JUMPI PUSH1 0x0 DUP1 REVERT JUMPDEST POP PUSH2 0x35E PUSH2 0x709 CALLDATASIZE PUSH1 0x4 PUSH2 0x16B5 JUMP JUMPDEST PUSH2 0x1203 JUMP JUMPDEST CALLVALUE DUP1 ISZERO PUSH2 0x71A JUMPI PUSH1 0x0 DUP1 REVERT JUMPDEST POP PUSH2 0x240 PUSH2 0x729 CALLDATASIZE PUSH1 0x4 PUSH2 0x16B5 JUMP JUMPDEST PUSH2 0x12F2 JUMP JUMPDEST PUSH1 0x0 DUP3 DUP3 LT ISZERO PUSH2 0x740 JUMPI POP PUSH1 0x0 PUSH2 0x754 JUMP JUMPDEST DUP3 DUP3 GT ISZERO PUSH2 0x750 JUMPI POP PUSH1 0x1 PUSH2 0x754 JUMP JUMPDEST POP PUSH1 0x2 JUMPDEST SWAP3 SWAP2 POP POP JUMP JUMPDEST PUSH1 0x0 PUSH1 0x64 PUSH2 0x768 DUP4 DUP6 PUSH2 0x191F JUMP JUMPDEST PUSH2 0x772 SWAP2 SWAP1 PUSH2 0x193E JUMP JUMPDEST SWAP4 SWAP3 POP POP POP JUMP JUMPDEST PUSH1 0x1 PUSH1 0x1 PUSH1 0xA0 SHL SUB DUP2 AND PUSH1 0x0 SWAP1 DUP2 MSTORE PUSH1 0xE PUSH1 0x20 MSTORE PUSH1 0x40 SWAP1 KECCAK256 DUP1 SLOAD PUSH2 0x79B JUMPI POP POP JUMP JUMPDEST DUP1 SLOAD PUSH1 0x0 SWAP1 JUMPDEST DUP1 ISZERO PUSH2 0xA7B JUMPI PUSH1 0x0 DUP4 PUSH2 0x7B5 PUSH1 0x1 DUP5 PUSH2 0x1960 JUMP JUMPDEST DUP2 SLOAD DUP2 LT PUSH2 0x7C5 JUMPI PUSH2 0x7C5 PUSH2 0x1977 JUMP JUMPDEST SWAP1 PUSH1 0x0 MSTORE PUSH1 0x20 PUSH1 0x0 KECCAK256 ADD SLOAD SWAP1 POP PUSH1 0x0 PUSH2 0x7E9 NUMBER PUSH1 0x3 SLOAD PUSH1 0x4 SLOAD PUSH1 0xB SLOAD PUSH1 0xA SLOAD PUSH2 0xD7C JUMP JUMPDEST SWAP1 POP PUSH1 0x0 DUP1 PUSH2 0x7F7 DUP5 PUSH2 0x12F2 JUMP JUMPDEST SWAP2 POP SWAP2 POP PUSH1 0x0 PUSH2 0x809 DUP6 DUP6 DUP6 DUP6 PUSH2 0xF72 JUMP JUMPDEST SWAP1 POP PUSH1 0x0 DUP2 PUSH1 0x3 DUP2 GT ISZERO PUSH2 0x81F JUMPI PUSH2 0x81F PUSH2 0x1882 JUMP JUMPDEST EQ DUP1 PUSH2 0x83C JUMPI POP PUSH1 0x1 DUP2 PUSH1 0x3 DUP2 GT ISZERO PUSH2 0x83A JUMPI PUSH2 0x83A PUSH2 0x1882 JUMP JUMPDEST EQ JUMPDEST ISZERO PUSH2 0x84B JUMPI POP POP POP POP POP PUSH2 0xA69 JUMP JUMPDEST PUSH1 0x0 PUSH1 0x3 DUP3 PUSH1 0x3 DUP2 GT ISZERO PUSH2 0x861 JUMPI PUSH2 0x861 PUSH2 0x1882 JUMP JUMPDEST EQ ISZERO PUSH2 0x878 JUMPI PUSH2 0x871 DUP5 DUP5 PUSH2 0x72E JUMP JUMPDEST SWAP1 POP PUSH2 0x896 JUMP JUMPDEST PUSH1 0x2 DUP3 PUSH1 0x3 DUP2 GT ISZERO PUSH2 0x88C JUMPI PUSH2 0x88C PUSH2 0x1882 JUMP JUMPDEST EQ ISZERO PUSH2 0x896 JUMPI POP PUSH1 0x2 JUMPDEST DUP9 SLOAD DUP10 SWAP1 PUSH2 0x8A6 SWAP1 PUSH1 0x1 SWAP1 PUSH2 0x1960 JUMP JUMPDEST DUP2 SLOAD DUP2 LT PUSH2 0x8B6 JUMPI PUSH2 0x8B6 PUSH2 0x1977 JUMP JUMPDEST SWAP1 PUSH1 0x0 MSTORE PUSH1 0x20 PUSH1 0x0 KECCAK256 ADD SLOAD DUP10 PUSH1 0x1 DUP10 PUSH2 0x8CF SWAP2 SWAP1 PUSH2 0x1960 JUMP JUMPDEST DUP2 SLOAD DUP2 LT PUSH2 0x8DF JUMPI PUSH2 0x8DF PUSH2 0x1977 JUMP JUMPDEST SWAP1 PUSH1 0x0 MSTORE PUSH1 0x20 PUSH1 0x0 KECCAK256 ADD DUP2 SWAP1 SSTORE POP DUP9 DUP1 SLOAD DUP1 PUSH2 0x8FD JUMPI PUSH2 0x8FD PUSH2 0x198D JUMP JUMPDEST PUSH1 0x0 DUP3 DUP2 MSTORE PUSH1 0x20 DUP1 DUP3 KECCAK256 DUP4 ADD PUSH1 0x0 NOT SWAP1 DUP2 ADD DUP4 SWAP1 SSTORE SWAP1 SWAP3 ADD SWAP1 SWAP3 SSTORE PUSH1 0x1 PUSH1 0x1 PUSH1 0xA0 SHL SUB DUP13 AND DUP3 MSTORE PUSH1 0xD DUP2 MSTORE PUSH1 0x40 DUP1 DUP4 KECCAK256 DUP10 DUP5 MSTORE DUP3 MSTORE DUP1 DUP4 KECCAK256 DUP2 MLOAD DUP1 DUP4 ADD DUP4 MSTORE SWAP1 SLOAD PUSH8 0xFFFFFFFFFFFFFFFF DUP1 DUP3 AND DUP4 MSTORE PUSH1 0x1 PUSH1 0x40 SHL SWAP2 DUP3 SWAP1 DIV DUP2 AND DUP4 DUP7 ADD SWAP1 DUP2 MSTORE DUP13 DUP8 MSTORE PUSH1 0x8 DUP7 MSTORE DUP5 DUP8 KECCAK256 DUP6 MLOAD DUP1 DUP8 ADD SWAP1 SWAP7 MSTORE SLOAD DUP1 DUP4 AND DUP1 DUP8 MSTORE SWAP4 SWAP1 DIV DUP3 AND SWAP6 DUP6 ADD DUP7 SWAP1 MSTORE MLOAD DUP4 MLOAD SWAP4 SWAP7 SWAP5 SWAP6 DUP6 SWAP5 PUSH2 0x99A SWAP5 SWAP3 DUP5 AND SWAP4 AND SWAP2 DUP10 PUSH2 0x1013 JUMP JUMPDEST SWAP1 SWAP3 POP SWAP1 POP PUSH2 0x9A9 DUP3 DUP14 PUSH2 0x19A3 JUMP JUMPDEST SWAP12 POP DUP1 PUSH1 0xC SLOAD PUSH2 0x9B9 SWAP2 SWAP1 PUSH2 0x19A3 JUMP JUMPDEST PUSH1 0xC DUP2 SWAP1 SSTORE POP PUSH1 0x0 PUSH2 0xA05 DUP6 PUSH1 0x20 ADD MLOAD PUSH8 0xFFFFFFFFFFFFFFFF AND DUP7 PUSH1 0x0 ADD MLOAD PUSH8 0xFFFFFFFFFFFFFFFF AND DUP7 PUSH1 0x20 ADD MLOAD PUSH8 0xFFFFFFFFFFFFFFFF AND DUP8 PUSH1 0x0 ADD MLOAD PUSH8 0xFFFFFFFFFFFFFFFF AND PUSH2 0x10E5 JUMP JUMPDEST SWAP1 POP PUSH2 0xA11 DUP16 DUP3 PUSH2 0x133B JUMP JUMPDEST PUSH2 0xA19 PUSH2 0x1529 JUMP JUMPDEST DUP15 PUSH1 0x1 PUSH1 0x1 PUSH1 0xA0 SHL SUB AND DUP12 PUSH32 0x6F277B50171C654E40C771D9C2BBF19E070EEB21CCE6F8E9A80334564279E395 DUP6 PUSH1 0x40 MLOAD PUSH2 0xA55 SWAP2 DUP2 MSTORE PUSH1 0x20 ADD SWAP1 JUMP JUMPDEST PUSH1 0x40 MLOAD DUP1 SWAP2 SUB SWAP1 LOG3 POP POP POP POP POP POP POP POP POP POP POP JUMPDEST DUP1 PUSH2 0xA73 DUP2 PUSH2 0x19BB JUMP JUMPDEST SWAP2 POP POP PUSH2 0x7A1 JUMP JUMPDEST POP PUSH1 0x40 MLOAD PUSH1 0x1 PUSH1 0x1 PUSH1 0xA0 SHL SUB DUP5 AND SWAP1 DUP3 ISZERO PUSH2 0x8FC MUL SWAP1 DUP4 SWAP1 PUSH1 0x0 DUP2 DUP2 DUP2 DUP6 DUP9 DUP9 CALL SWAP4 POP POP POP POP ISZERO DUP1 ISZERO PUSH2 0xAB2 JUMPI RETURNDATASIZE PUSH1 0x0 DUP1 RETURNDATACOPY RETURNDATASIZE PUSH1 0x0 REVERT JUMPDEST POP JUMPDEST POP POP POP JUMP JUMPDEST PUSH1 0x0 CALLVALUE GT PUSH2 0xB0E JUMPI PUSH1 0x40 MLOAD PUSH3 0x461BCD PUSH1 0xE5 SHL DUP2 MSTORE PUSH1 0x20 PUSH1 0x4 DUP3 ADD MSTORE PUSH1 0x1D PUSH1 0x24 DUP3 ADD MSTORE PUSH32 0x4F6E6C79207374726963746C7920706F7369746976652076616C756573000000 PUSH1 0x44 DUP3 ADD MSTORE PUSH1 0x64 ADD JUMPDEST PUSH1 0x40 MLOAD DUP1 SWAP2 SUB SWAP1 REVERT JUMPDEST PUSH2 0xB16 PUSH2 0xDC4 JUMP JUMPDEST PUSH2 0xB1F CALLER PUSH2 0x779 JUMP JUMPDEST PUSH1 0x0 PUSH2 0xB2D CALLVALUE PUSH1 0x2 SLOAD PUSH2 0x75A JUMP JUMPDEST SWAP1 POP DUP1 PUSH1 0xC SLOAD PUSH2 0xB3D SWAP2 SWAP1 PUSH2 0x19A3 JUMP JUMPDEST PUSH1 0xC SSTORE PUSH1 0x0 PUSH2 0xB4C DUP3 CALLVALUE PUSH2 0x1960 JUMP JUMPDEST SWAP1 POP PUSH1 0x0 PUSH2 0xB65 NUMBER PUSH1 0x3 SLOAD PUSH1 0x4 SLOAD PUSH1 0xB SLOAD PUSH1 0xA SLOAD PUSH2 0xD7C JUMP JUMPDEST CALLER PUSH1 0x0 SWAP1 DUP2 MSTORE PUSH1 0xF PUSH1 0x20 SWAP1 DUP2 MSTORE PUSH1 0x40 DUP1 DUP4 KECCAK256 DUP5 DUP5 MSTORE SWAP1 SWAP2 MSTORE SWAP1 KECCAK256 SLOAD SWAP1 SWAP2 POP PUSH1 0xFF AND PUSH2 0xBCD JUMPI CALLER PUSH1 0x0 DUP2 DUP2 MSTORE PUSH1 0xE PUSH1 0x20 SWAP1 DUP2 MSTORE PUSH1 0x40 DUP1 DUP4 KECCAK256 DUP1 SLOAD PUSH1 0x1 DUP2 DUP2 ADD DUP4 SSTORE SWAP2 DUP6 MSTORE DUP4 DUP6 KECCAK256 ADD DUP7 SWAP1 SSTORE SWAP4 DUP4 MSTORE PUSH1 0xF DUP3 MSTORE DUP1 DUP4 KECCAK256 DUP6 DUP5 MSTORE SWAP1 SWAP2 MSTORE SWAP1 KECCAK256 DUP1 SLOAD PUSH1 0xFF NOT AND SWAP1 SWAP2 OR SWAP1 SSTORE JUMPDEST PUSH1 0x0 DUP2 DUP2 MSTORE PUSH1 0x8 PUSH1 0x20 SWAP1 DUP2 MSTORE PUSH1 0x40 DUP1 DUP4 KECCAK256 DUP2 MLOAD DUP1 DUP4 ADD SWAP1 SWAP3 MSTORE SLOAD PUSH8 0xFFFFFFFFFFFFFFFF DUP1 DUP3 AND DUP1 DUP5 MSTORE PUSH1 0x1 PUSH1 0x40 SHL SWAP1 SWAP3 DIV AND SWAP3 DUP3 ADD DUP4 SWAP1 MSTORE SWAP1 SWAP3 SWAP2 DUP3 SWAP2 PUSH2 0xC15 SWAP2 DUP10 DUP9 PUSH2 0xF0D JUMP JUMPDEST PUSH1 0x40 DUP1 MLOAD DUP1 DUP3 ADD DUP3 MSTORE PUSH8 0xFFFFFFFFFFFFFFFF DUP5 DUP2 AND DUP3 MSTORE DUP4 DUP2 AND PUSH1 0x20 DUP1 DUP5 ADD SWAP2 DUP3 MSTORE PUSH1 0x0 DUP12 DUP2 MSTORE PUSH1 0x8 DUP3 MSTORE DUP6 DUP2 KECCAK256 SWAP5 MLOAD DUP6 SLOAD SWAP4 MLOAD SWAP1 DUP6 AND PUSH16 0xFFFFFFFFFFFFFFFFFFFFFFFFFFFFFFFF NOT SWAP1 SWAP5 AND SWAP4 SWAP1 SWAP4 OR PUSH1 0x1 PUSH1 0x40 SHL SWAP4 DUP6 AND DUP5 MUL OR SWAP1 SWAP5 SSTORE CALLER DUP5 MSTORE PUSH1 0xD DUP2 MSTORE DUP5 DUP5 KECCAK256 DUP12 DUP6 MSTORE DUP2 MSTORE SWAP3 DUP5 SWAP1 KECCAK256 DUP5 MLOAD DUP1 DUP7 ADD SWAP1 SWAP6 MSTORE SLOAD DUP1 DUP4 AND DUP1 DUP7 MSTORE SWAP2 SWAP1 DIV SWAP1 SWAP2 AND SWAP2 DUP4 ADD DUP3 SWAP1 MSTORE SWAP4 SWAP6 POP SWAP2 SWAP4 POP SWAP2 PUSH2 0xCB3 SWAP2 DUP11 DUP10 PUSH2 0xF0D JUMP JUMPDEST PUSH1 0x40 DUP1 MLOAD DUP1 DUP3 ADD DUP3 MSTORE PUSH8 0xFFFFFFFFFFFFFFFF DUP1 DUP6 AND DUP3 MSTORE DUP1 DUP5 AND PUSH1 0x20 DUP1 DUP5 ADD SWAP2 DUP3 MSTORE CALLER PUSH1 0x0 DUP2 DUP2 MSTORE PUSH1 0xD DUP4 MSTORE DUP7 DUP2 KECCAK256 DUP15 DUP3 MSTORE SWAP1 SWAP3 MSTORE SWAP1 DUP6 SWAP1 KECCAK256 SWAP4 MLOAD DUP5 SLOAD SWAP3 MLOAD DUP5 AND PUSH1 0x1 PUSH1 0x40 SHL MUL PUSH16 0xFFFFFFFFFFFFFFFFFFFFFFFFFFFFFFFF NOT SWAP1 SWAP4 AND SWAP4 AND SWAP3 SWAP1 SWAP3 OR OR SWAP1 SWAP2 SSTORE SWAP1 MLOAD SWAP3 SWAP6 POP SWAP1 SWAP4 POP DUP7 SWAP2 PUSH32 0x85FF162F60A0EAB11E1E0D3D9CFA18A46D7038A29751AF4130DBAEEADBD37ED4 SWAP1 PUSH2 0xD6A SWAP1 DUP11 SWAP1 DUP14 SWAP1 PUSH8 0xFFFFFFFFFFFFFFFF SWAP3 SWAP1 SWAP3 AND DUP3 MSTORE PUSH1 0xFF AND PUSH1 0x20 DUP3 ADD MSTORE PUSH1 0x40 ADD SWAP1 JUMP JUMPDEST PUSH1 0x40 MLOAD DUP1 SWAP2 SUB SWAP1 LOG3 POP POP POP POP POP POP POP POP JUMP JUMPDEST PUSH1 0x0 DUP4 DUP7 LT ISZERO PUSH2 0xD8D JUMPI POP DUP1 PUSH2 0xDBB JUMP JUMPDEST DUP3 DUP6 PUSH2 0xD99 DUP7 DUP10 PUSH2 0x1960 JUMP JUMPDEST PUSH2 0xDA3 SWAP2 SWAP1 PUSH2 0x193E JUMP JUMPDEST PUSH2 0xDAD SWAP2 SWAP1 PUSH2 0x19A3 JUMP JUMPDEST PUSH2 0xDB8 SWAP1 PUSH1 0x1 PUSH2 0x19A3 JUMP JUMPDEST SWAP1 POP JUMPDEST SWAP6 SWAP5 POP POP POP POP POP JUMP JUMPDEST PUSH1 0x0 PUSH2 0xDDB NUMBER PUSH1 0x3 SLOAD PUSH1 0x4 SLOAD PUSH1 0xB SLOAD PUSH1 0xA SLOAD PUSH2 0xD7C JUMP JUMPDEST PUSH1 0x0 DUP2 DUP2 MSTORE PUSH1 0x9 PUSH1 0x20 MSTORE PUSH1 0x40 SWAP1 KECCAK256 SLOAD SWAP1 SWAP2 POP PUSH2 0xE46 JUMPI PUSH2 0xDF9 PUSH2 0x15A2 JUMP JUMPDEST PUSH1 0x0 DUP3 DUP2 MSTORE PUSH1 0x9 PUSH1 0x20 MSTORE PUSH1 0x40 SWAP1 DUP2 SWAP1 KECCAK256 DUP3 SWAP1 SSTORE MLOAD DUP3 SWAP2 PUSH32 0x945C1C4E99AA89F648FBFE3DF471B916F719E16D960FCEC0737D4D56BD696838 SWAP2 PUSH2 0xE3D SWAP2 DUP2 MSTORE PUSH1 0x20 ADD SWAP1 JUMP JUMPDEST PUSH1 0x40 MLOAD DUP1 SWAP2 SUB SWAP1 LOG2 JUMPDEST POP JUMP JUMPDEST PUSH1 0x0 SLOAD PUSH1 0x1 PUSH1 0x1 PUSH1 0xA0 SHL SUB AND CALLER EQ PUSH2 0xEA3 JUMPI PUSH1 0x40 MLOAD PUSH3 0x461BCD PUSH1 0xE5 SHL DUP2 MSTORE PUSH1 0x20 PUSH1 0x4 DUP3 ADD DUP2 SWAP1 MSTORE PUSH1 0x24 DUP3 ADD MSTORE PUSH32 0x4F776E61626C653A2063616C6C6572206973206E6F7420746865206F776E6572 PUSH1 0x44 DUP3 ADD MSTORE PUSH1 0x64 ADD PUSH2 0xB05 JUMP JUMPDEST PUSH2 0xEAD PUSH1 0x0 PUSH2 0x1636 JUMP JUMPDEST JUMP JUMPDEST PUSH1 0xE PUSH1 0x20 MSTORE DUP2 PUSH1 0x0 MSTORE PUSH1 0x40 PUSH1 0x0 KECCAK256 DUP2 DUP2 SLOAD DUP2 LT PUSH2 0xECB JUMPI PUSH1 0x0 DUP1 REVERT JUMPDEST SWAP1 PUSH1 0x0 MSTORE PUSH1 0x20 PUSH1 0x0 KECCAK256 ADD PUSH1 0x0 SWAP2 POP SWAP2 POP POP SLOAD DUP2 JUMP JUMPDEST PUSH1 0x0 DUP4 DUP3 PUSH2 0xEEF PUSH1 0x1 DUP9 PUSH2 0x1960 JUMP JUMPDEST PUSH2 0xEF9 SWAP2 SWAP1 PUSH2 0x1960 JUMP JUMPDEST PUSH2 0xF03 SWAP2 SWAP1 PUSH2 0x191F JUMP JUMPDEST PUSH2 0xDBB SWAP1 DUP5 PUSH2 0x19A3 JUMP JUMPDEST PUSH1 0x0 DUP1 PUSH1 0x0 DUP5 PUSH1 0xFF AND PUSH1 0x1 DUP2 GT ISZERO PUSH2 0xF27 JUMPI PUSH2 0xF27 PUSH2 0x1882 JUMP JUMPDEST SWAP1 POP PUSH1 0x0 DUP2 PUSH1 0x1 DUP2 GT ISZERO PUSH2 0xF3D JUMPI PUSH2 0xF3D PUSH2 0x1882 JUMP JUMPDEST EQ ISZERO PUSH2 0xF58 JUMPI PUSH2 0xF4D DUP5 DUP9 PUSH2 0x19D2 JUMP JUMPDEST DUP7 SWAP3 POP SWAP3 POP POP PUSH2 0xF69 JUMP JUMPDEST DUP7 PUSH2 0xF63 DUP6 DUP9 PUSH2 0x19D2 JUMP JUMPDEST SWAP3 POP SWAP3 POP POP JUMPDEST SWAP5 POP SWAP5 SWAP3 POP POP POP JUMP JUMPDEST PUSH1 0x0 PUSH2 0xF7F DUP6 PUSH1 0x2 PUSH2 0x19A3 JUMP JUMPDEST DUP5 LT ISZERO PUSH2 0xF8E JUMPI POP PUSH1 0x0 PUSH2 0xFCE JUMP JUMPDEST PUSH2 0xF99 DUP6 PUSH1 0x3 PUSH2 0x19A3 JUMP JUMPDEST DUP5 LT DUP1 ISZERO PUSH2 0xFA5 JUMPI POP DUP2 ISZERO JUMPDEST ISZERO PUSH2 0xFB2 JUMPI POP PUSH1 0x1 PUSH2 0xFCE JUMP JUMPDEST DUP3 ISZERO DUP1 PUSH2 0xFBD JUMPI POP DUP2 ISZERO JUMPDEST ISZERO PUSH2 0xFCA JUMPI POP PUSH1 0x2 PUSH2 0xFCE JUMP JUMPDEST POP PUSH1 0x3 JUMPDEST SWAP5 SWAP4 POP POP POP POP JUMP JUMPDEST PUSH1 0x1 PUSH1 0x1 PUSH1 0xA0 SHL SUB DUP3 AND PUSH1 0x0 SWAP1 DUP2 MSTORE PUSH1 0xE PUSH1 0x20 MSTORE PUSH1 0x40 DUP2 KECCAK256 DUP1 SLOAD DUP4 SWAP1 DUP2 LT PUSH2 0x1000 JUMPI PUSH2 0x1000 PUSH2 0x1977 JUMP JUMPDEST SWAP1 PUSH1 0x0 MSTORE PUSH1 0x20 PUSH1 0x0 KECCAK256 ADD SLOAD SWAP1 POP SWAP3 SWAP2 POP POP JUMP JUMPDEST PUSH1 0x0 DUP1 PUSH1 0x0 DUP4 PUSH1 0xFF AND PUSH1 0x2 DUP2 GT ISZERO PUSH2 0x102D JUMPI PUSH2 0x102D PUSH2 0x1882 JUMP JUMPDEST SWAP1 POP PUSH1 0x0 PUSH2 0x103B DUP7 DUP9 PUSH2 0x19A3 JUMP JUMPDEST SWAP1 POP PUSH1 0x1 DUP3 PUSH1 0x2 DUP2 GT ISZERO PUSH2 0x1051 JUMPI PUSH2 0x1051 PUSH2 0x1882 JUMP JUMPDEST EQ DUP1 ISZERO PUSH2 0x105D JUMPI POP DUP7 ISZERO ISZERO JUMPDEST ISZERO PUSH2 0x1074 JUMPI PUSH2 0x106D DUP2 DUP11 DUP10 PUSH2 0x169E JUMP JUMPDEST SWAP4 POP PUSH2 0x10D9 JUMP JUMPDEST PUSH1 0x0 DUP3 PUSH1 0x2 DUP2 GT ISZERO PUSH2 0x1088 JUMPI PUSH2 0x1088 PUSH2 0x1882 JUMP JUMPDEST EQ DUP1 ISZERO PUSH2 0x1094 JUMPI POP DUP6 ISZERO ISZERO JUMPDEST ISZERO PUSH2 0x10A4 JUMPI PUSH2 0x106D DUP2 DUP10 DUP9 PUSH2 0x169E JUMP JUMPDEST PUSH1 0x2 DUP3 PUSH1 0x2 DUP2 GT ISZERO PUSH2 0x10B8 JUMPI PUSH2 0x10B8 PUSH2 0x1882 JUMP JUMPDEST EQ ISZERO PUSH2 0x10C8 JUMPI PUSH2 0x106D DUP9 DUP11 PUSH2 0x19A3 JUMP JUMPDEST PUSH1 0x0 SWAP4 POP PUSH2 0x10D6 DUP9 DUP11 PUSH2 0x19A3 JUMP JUMPDEST SWAP3 POP JUMPDEST POP POP SWAP6 POP SWAP6 SWAP4 POP POP POP POP JUMP JUMPDEST PUSH1 0x0 PUSH2 0xDBB PUSH32 0x0 PUSH2 0x1115 DUP7 DUP9 PUSH2 0x19A3 JUMP JUMPDEST PUSH2 0x111F DUP6 DUP8 PUSH2 0x19A3 JUMP JUMPDEST PUSH2 0x169E JUMP JUMPDEST PUSH1 0x0 SLOAD PUSH1 0x1 PUSH1 0x1 PUSH1 0xA0 SHL SUB AND CALLER EQ PUSH2 0x117E JUMPI PUSH1 0x40 MLOAD PUSH3 0x461BCD PUSH1 0xE5 SHL DUP2 MSTORE PUSH1 0x20 PUSH1 0x4 DUP3 ADD DUP2 SWAP1 MSTORE PUSH1 0x24 DUP3 ADD MSTORE PUSH32 0x4F776E61626C653A2063616C6C6572206973206E6F7420746865206F776E6572 PUSH1 0x44 DUP3 ADD MSTORE PUSH1 0x64 ADD PUSH2 0xB05 JUMP JUMPDEST PUSH1 0x1 PUSH1 0x1 PUSH1 0xA0 SHL SUB DUP2 AND PUSH2 0x11FA JUMPI PUSH1 0x40 MLOAD PUSH3 0x461BCD PUSH1 0xE5 SHL DUP2 MSTORE PUSH1 0x20 PUSH1 0x4 DUP3 ADD MSTORE PUSH1 0x26 PUSH1 0x24 DUP3 ADD MSTORE PUSH32 0x4F776E61626C653A206E6577206F776E657220697320746865207A65726F2061 PUSH1 0x44 DUP3 ADD MSTORE PUSH32 0x6464726573730000000000000000000000000000000000000000000000000000 PUSH1 0x64 DUP3 ADD MSTORE PUSH1 0x84 ADD PUSH2 0xB05 JUMP JUMPDEST PUSH2 0xE46 DUP2 PUSH2 0x1636 JUMP JUMPDEST PUSH1 0x0 SLOAD PUSH1 0x1 PUSH1 0x1 PUSH1 0xA0 SHL SUB AND CALLER EQ PUSH2 0x125D JUMPI PUSH1 0x40 MLOAD PUSH3 0x461BCD PUSH1 0xE5 SHL DUP2 MSTORE PUSH1 0x20 PUSH1 0x4 DUP3 ADD DUP2 SWAP1 MSTORE PUSH1 0x24 DUP3 ADD MSTORE PUSH32 0x4F776E61626C653A2063616C6C6572206973206E6F7420746865206F776E6572 PUSH1 0x44 DUP3 ADD MSTORE PUSH1 0x64 ADD PUSH2 0xB05 JUMP JUMPDEST PUSH1 0x0 DUP2 GT PUSH2 0x12AD JUMPI PUSH1 0x40 MLOAD PUSH3 0x461BCD PUSH1 0xE5 SHL DUP2 MSTORE PUSH1 0x20 PUSH1 0x4 DUP3 ADD MSTORE PUSH1 0x1B PUSH1 0x24 DUP3 ADD MSTORE PUSH32 0x77696E646F772073697A652073686F756C6420706F7369746976650000000000 PUSH1 0x44 DUP3 ADD MSTORE PUSH1 0x64 ADD PUSH2 0xB05 JUMP JUMPDEST PUSH1 0x0 PUSH2 0x12C4 NUMBER PUSH1 0x3 SLOAD PUSH1 0x4 SLOAD PUSH1 0xB SLOAD PUSH1 0xA SLOAD PUSH2 0xD7C JUMP JUMPDEST SWAP1 POP PUSH2 0x12E2 PUSH2 0x12D4 DUP3 PUSH1 0x1 PUSH2 0x19A3 JUMP JUMPDEST PUSH1 0x3 SLOAD PUSH1 0x4 SLOAD PUSH1 0xB SLOAD PUSH2 0xEE0 JUMP JUMPDEST PUSH1 0x4 SSTORE PUSH1 0xB DUP2 SWAP1 SSTORE PUSH1 0xA SSTORE PUSH1 0x3 SSTORE JUMP JUMPDEST PUSH1 0x0 DUP1 PUSH1 0x9 DUP2 PUSH2 0x1303 DUP6 PUSH1 0x1 PUSH2 0x19A3 JUMP JUMPDEST DUP2 MSTORE PUSH1 0x20 ADD SWAP1 DUP2 MSTORE PUSH1 0x20 ADD PUSH1 0x0 KECCAK256 SLOAD PUSH1 0x9 PUSH1 0x0 DUP6 PUSH1 0x2 PUSH2 0x1323 SWAP2 SWAP1 PUSH2 0x19A3 JUMP JUMPDEST DUP2 MSTORE PUSH1 0x20 ADD SWAP1 DUP2 MSTORE PUSH1 0x20 ADD PUSH1 0x0 KECCAK256 SLOAD SWAP2 POP SWAP2 POP SWAP2 POP SWAP2 JUMP JUMPDEST PUSH1 0x7 SLOAD PUSH1 0x40 MLOAD PUSH4 0x70A08231 PUSH1 0xE0 SHL DUP2 MSTORE ADDRESS PUSH1 0x4 DUP3 ADD MSTORE DUP3 SWAP2 PUSH1 0x1 PUSH1 0x1 PUSH1 0xA0 SHL SUB AND SWAP1 PUSH4 0x70A08231 SWAP1 PUSH1 0x24 ADD PUSH1 0x20 PUSH1 0x40 MLOAD DUP1 DUP4 SUB DUP2 DUP7 DUP1 EXTCODESIZE ISZERO DUP1 ISZERO PUSH2 0x137E JUMPI PUSH1 0x0 DUP1 REVERT JUMPDEST POP GAS STATICCALL ISZERO DUP1 ISZERO PUSH2 0x1392 JUMPI RETURNDATASIZE PUSH1 0x0 DUP1 RETURNDATACOPY RETURNDATASIZE PUSH1 0x0 REVERT JUMPDEST POP POP POP POP PUSH1 0x40 MLOAD RETURNDATASIZE PUSH1 0x1F NOT PUSH1 0x1F DUP3 ADD AND DUP3 ADD DUP1 PUSH1 0x40 MSTORE POP DUP2 ADD SWAP1 PUSH2 0x13B6 SWAP2 SWAP1 PUSH2 0x19FE JUMP JUMPDEST LT PUSH2 0x145B JUMPI PUSH1 0x7 SLOAD PUSH1 0x40 MLOAD PUSH32 0xA9059CBB00000000000000000000000000000000000000000000000000000000 DUP2 MSTORE PUSH1 0x1 PUSH1 0x1 PUSH1 0xA0 SHL SUB DUP5 DUP2 AND PUSH1 0x4 DUP4 ADD MSTORE PUSH1 0x24 DUP3 ADD DUP5 SWAP1 MSTORE SWAP1 SWAP2 AND SWAP1 PUSH4 0xA9059CBB SWAP1 PUSH1 0x44 ADD JUMPDEST PUSH1 0x20 PUSH1 0x40 MLOAD DUP1 DUP4 SUB DUP2 PUSH1 0x0 DUP8 DUP1 EXTCODESIZE ISZERO DUP1 ISZERO PUSH2 0x1423 JUMPI PUSH1 0x0 DUP1 REVERT JUMPDEST POP GAS CALL ISZERO DUP1 ISZERO PUSH2 0x1437 JUMPI RETURNDATASIZE PUSH1 0x0 DUP1 RETURNDATACOPY RETURNDATASIZE PUSH1 0x0 REVERT JUMPDEST POP POP POP POP PUSH1 0x40 MLOAD RETURNDATASIZE PUSH1 0x1F NOT PUSH1 0x1F DUP3 ADD AND DUP3 ADD DUP1 PUSH1 0x40 MSTORE POP DUP2 ADD SWAP1 PUSH2 0xAB4 SWAP2 SWAP1 PUSH2 0x1A17 JUMP JUMPDEST PUSH1 0x7 SLOAD PUSH1 0x40 MLOAD PUSH4 0x70A08231 PUSH1 0xE0 SHL DUP2 MSTORE ADDRESS PUSH1 0x4 DUP3 ADD MSTORE PUSH1 0x1 PUSH1 0x1 PUSH1 0xA0 SHL SUB SWAP1 SWAP2 AND SWAP1 PUSH4 0xA9059CBB SWAP1 DUP5 SWAP1 DUP4 SWAP1 PUSH4 0x70A08231 SWAP1 PUSH1 0x24 ADD PUSH1 0x20 PUSH1 0x40 MLOAD DUP1 DUP4 SUB DUP2 DUP7 DUP1 EXTCODESIZE ISZERO DUP1 ISZERO PUSH2 0x14A8 JUMPI PUSH1 0x0 DUP1 REVERT JUMPDEST POP GAS STATICCALL ISZERO DUP1 ISZERO PUSH2 0x14BC JUMPI RETURNDATASIZE PUSH1 0x0 DUP1 RETURNDATACOPY RETURNDATASIZE PUSH1 0x0 REVERT JUMPDEST POP POP POP POP PUSH1 0x40 MLOAD RETURNDATASIZE PUSH1 0x1F NOT PUSH1 0x1F DUP3 ADD AND DUP3 ADD DUP1 PUSH1 0x40 MSTORE POP DUP2 ADD SWAP1 PUSH2 0x14E0 SWAP2 SWAP1 PUSH2 0x19FE JUMP JUMPDEST PUSH1 0x40 MLOAD PUSH32 0xFFFFFFFF00000000000000000000000000000000000000000000000000000000 PUSH1 0xE0 DUP6 SWAP1 SHL AND DUP2 MSTORE PUSH1 0x1 PUSH1 0x1 PUSH1 0xA0 SHL SUB SWAP1 SWAP3 AND PUSH1 0x4 DUP4 ADD MSTORE PUSH1 0x24 DUP3 ADD MSTORE PUSH1 0x44 ADD PUSH2 0x1409 JUMP JUMPDEST PUSH1 0xC SLOAD ISZERO PUSH2 0xEAD JUMPI PUSH1 0x5 PUSH1 0x0 SWAP1 SLOAD SWAP1 PUSH2 0x100 EXP SWAP1 DIV PUSH1 0x1 PUSH1 0x1 PUSH1 0xA0 SHL SUB AND PUSH1 0x1 PUSH1 0x1 PUSH1 0xA0 SHL SUB AND PUSH3 0x5C33E1 PUSH1 0xC SLOAD PUSH1 0x40 MLOAD DUP3 PUSH4 0xFFFFFFFF AND PUSH1 0xE0 SHL DUP2 MSTORE PUSH1 0x4 ADD PUSH1 0x0 PUSH1 0x40 MLOAD DUP1 DUP4 SUB DUP2 DUP6 DUP9 DUP1 EXTCODESIZE ISZERO DUP1 ISZERO PUSH2 0x1582 JUMPI PUSH1 0x0 DUP1 REVERT JUMPDEST POP GAS CALL ISZERO DUP1 ISZERO PUSH2 0x1596 JUMPI RETURNDATASIZE PUSH1 0x0 DUP1 RETURNDATACOPY RETURNDATASIZE PUSH1 0x0 REVERT JUMPDEST POP POP PUSH1 0x0 PUSH1 0xC SSTORE POP POP POP JUMP JUMPDEST PUSH1 0x0 DUP1 PUSH1 0x1 PUSH1 0x0 SWAP1 SLOAD SWAP1 PUSH2 0x100 EXP SWAP1 DIV PUSH1 0x1 PUSH1 0x1 PUSH1 0xA0 SHL SUB AND PUSH1 0x1 PUSH1 0x1 PUSH1 0xA0 SHL SUB AND PUSH4 0xFEAF968C PUSH1 0x40 MLOAD DUP2 PUSH4 0xFFFFFFFF AND PUSH1 0xE0 SHL DUP2 MSTORE PUSH1 0x4 ADD PUSH1 0xA0 PUSH1 0x40 MLOAD DUP1 DUP4 SUB DUP2 DUP7 DUP1 EXTCODESIZE ISZERO DUP1 ISZERO PUSH2 0x15F3 JUMPI PUSH1 0x0 DUP1 REVERT JUMPDEST POP GAS STATICCALL ISZERO DUP1 ISZERO PUSH2 0x1607 JUMPI RETURNDATASIZE PUSH1 0x0 DUP1 RETURNDATACOPY RETURNDATASIZE PUSH1 0x0 REVERT JUMPDEST POP POP POP POP PUSH1 0x40 MLOAD RETURNDATASIZE PUSH1 0x1F NOT PUSH1 0x1F DUP3 ADD AND DUP3 ADD DUP1 PUSH1 0x40 MSTORE POP DUP2 ADD SWAP1 PUSH2 0x162B SWAP2 SWAP1 PUSH2 0x1A53 JUMP JUMPDEST POP SWAP2 SWAP6 SWAP5 POP POP POP POP POP JUMP JUMPDEST PUSH1 0x0 DUP1 SLOAD PUSH1 0x1 PUSH1 0x1 PUSH1 0xA0 SHL SUB DUP4 DUP2 AND PUSH32 0xFFFFFFFFFFFFFFFFFFFFFFFF0000000000000000000000000000000000000000 DUP4 AND DUP2 OR DUP5 SSTORE PUSH1 0x40 MLOAD SWAP2 SWAP1 SWAP3 AND SWAP3 DUP4 SWAP2 PUSH32 0x8BE0079C531659141344CD1FD0A4F28419497F9722A3DAAFE3B4186F6B6457E0 SWAP2 SWAP1 LOG3 POP POP JUMP JUMPDEST PUSH1 0x0 DUP2 PUSH2 0x16AB DUP6 DUP6 PUSH2 0x191F JUMP JUMPDEST PUSH2 0xFCE SWAP2 SWAP1 PUSH2 0x193E JUMP JUMPDEST PUSH1 0x0 PUSH1 0x20 DUP3 DUP5 SUB SLT ISZERO PUSH2 0x16C7 JUMPI PUSH1 0x0 DUP1 REVERT JUMPDEST POP CALLDATALOAD SWAP2 SWAP1 POP JUMP JUMPDEST PUSH1 0x0 DUP1 PUSH1 0x40 DUP4 DUP6 SUB SLT ISZERO PUSH2 0x16E1 JUMPI PUSH1 0x0 DUP1 REVERT JUMPDEST POP POP DUP1 CALLDATALOAD SWAP3 PUSH1 0x20 SWAP1 SWAP2 ADD CALLDATALOAD SWAP2 POP JUMP JUMPDEST DUP1 CALLDATALOAD PUSH1 0x1 PUSH1 0x1 PUSH1 0xA0 SHL SUB DUP2 AND DUP2 EQ PUSH2 0x1707 JUMPI PUSH1 0x0 DUP1 REVERT JUMPDEST SWAP2 SWAP1 POP JUMP JUMPDEST PUSH1 0x0 DUP1 PUSH1 0x40 DUP4 DUP6 SUB SLT ISZERO PUSH2 0x171F JUMPI PUSH1 0x0 DUP1 REVERT JUMPDEST PUSH2 0x1728 DUP4 PUSH2 0x16F0 JUMP JUMPDEST SWAP5 PUSH1 0x20 SWAP4 SWAP1 SWAP4 ADD CALLDATALOAD SWAP4 POP POP POP JUMP JUMPDEST PUSH1 0x0 PUSH1 0x20 DUP3 DUP5 SUB SLT ISZERO PUSH2 0x1748 JUMPI PUSH1 0x0 DUP1 REVERT JUMPDEST PUSH2 0x772 DUP3 PUSH2 0x16F0 JUMP JUMPDEST DUP1 CALLDATALOAD PUSH1 0xFF DUP2 AND DUP2 EQ PUSH2 0x1707 JUMPI PUSH1 0x0 DUP1 REVERT JUMPDEST PUSH1 0x0 PUSH1 0x20 DUP3 DUP5 SUB SLT ISZERO PUSH2 0x1774 JUMPI PUSH1 0x0 DUP1 REVERT JUMPDEST PUSH2 0x772 DUP3 PUSH2 0x1751 JUMP JUMPDEST PUSH1 0x0 DUP1 PUSH1 0x0 DUP1 PUSH1 0x0 PUSH1 0xA0 DUP7 DUP9 SUB SLT ISZERO PUSH2 0x1795 JUMPI PUSH1 0x0 DUP1 REVERT JUMPDEST POP POP DUP4 CALLDATALOAD SWAP6 PUSH1 0x20 DUP6 ADD CALLDATALOAD SWAP6 POP PUSH1 0x40 DUP6 ADD CALLDATALOAD SWAP5 PUSH1 0x60 DUP2 ADD CALLDATALOAD SWAP5 POP PUSH1 0x80 ADD CALLDATALOAD SWAP3 POP SWAP1 POP JUMP JUMPDEST PUSH1 0x0 DUP1 PUSH1 0x0 DUP1 PUSH1 0x80 DUP6 DUP8 SUB SLT ISZERO PUSH2 0x17CE JUMPI PUSH1 0x0 DUP1 REVERT JUMPDEST POP POP DUP3 CALLDATALOAD SWAP5 PUSH1 0x20 DUP5 ADD CALLDATALOAD SWAP5 POP PUSH1 0x40 DUP5 ADD CALLDATALOAD SWAP4 PUSH1 0x60 ADD CALLDATALOAD SWAP3 POP SWAP1 POP JUMP JUMPDEST PUSH1 0x0 DUP1 PUSH1 0x40 DUP4 DUP6 SUB SLT ISZERO PUSH2 0x17FD JUMPI PUSH1 0x0 DUP1 REVERT JUMPDEST DUP3 CALLDATALOAD SWAP2 POP PUSH2 0x180D PUSH1 0x20 DUP5 ADD PUSH2 0x16F0 JUMP JUMPDEST SWAP1 POP SWAP3 POP SWAP3 SWAP1 POP JUMP JUMPDEST DUP1 CALLDATALOAD PUSH8 0xFFFFFFFFFFFFFFFF DUP2 AND DUP2 EQ PUSH2 0x1707 JUMPI PUSH1 0x0 DUP1 REVERT JUMPDEST PUSH1 0x0 DUP1 PUSH1 0x0 DUP1 PUSH1 0x80 DUP6 DUP8 SUB SLT ISZERO PUSH2 0x1844 JUMPI PUSH1 0x0 DUP1 REVERT JUMPDEST PUSH2 0x184D DUP6 PUSH2 0x1816 JUMP JUMPDEST SWAP4 POP PUSH2 0x185B PUSH1 0x20 DUP7 ADD PUSH2 0x1816 JUMP JUMPDEST SWAP3 POP PUSH2 0x1869 PUSH1 0x40 DUP7 ADD PUSH2 0x1751 JUMP JUMPDEST SWAP2 POP PUSH2 0x1877 PUSH1 0x60 DUP7 ADD PUSH2 0x1816 JUMP JUMPDEST SWAP1 POP SWAP3 SWAP6 SWAP2 SWAP5 POP SWAP3 POP JUMP JUMPDEST PUSH4 0x4E487B71 PUSH1 0xE0 SHL PUSH1 0x0 MSTORE PUSH1 0x21 PUSH1 0x4 MSTORE PUSH1 0x24 PUSH1 0x0 REVERT JUMPDEST PUSH1 0x20 DUP2 ADD PUSH1 0x4 DUP4 LT PUSH2 0x18BA JUMPI PUSH4 0x4E487B71 PUSH1 0xE0 SHL PUSH1 0x0 MSTORE PUSH1 0x21 PUSH1 0x4 MSTORE PUSH1 0x24 PUSH1 0x0 REVERT JUMPDEST SWAP2 SWAP1 MSTORE SWAP1 JUMP JUMPDEST PUSH1 0x0 DUP1 PUSH1 0x0 DUP1 PUSH1 0x0 PUSH1 0xA0 DUP7 DUP9 SUB SLT ISZERO PUSH2 0x18D8 JUMPI PUSH1 0x0 DUP1 REVERT JUMPDEST DUP6 CALLDATALOAD SWAP5 POP PUSH1 0x20 DUP7 ADD CALLDATALOAD SWAP4 POP PUSH1 0x40 DUP7 ADD CALLDATALOAD SWAP3 POP PUSH1 0x60 DUP7 ADD CALLDATALOAD SWAP2 POP PUSH2 0x18FD PUSH1 0x80 DUP8 ADD PUSH2 0x1751 JUMP JUMPDEST SWAP1 POP SWAP3 SWAP6 POP SWAP3 SWAP6 SWAP1 SWAP4 POP JUMP JUMPDEST PUSH4 0x4E487B71 PUSH1 0xE0 SHL PUSH1 0x0 MSTORE PUSH1 0x11 PUSH1 0x4 MSTORE PUSH1 0x24 PUSH1 0x0 REVERT JUMPDEST PUSH1 0x0 DUP2 PUSH1 0x0 NOT DIV DUP4 GT DUP3 ISZERO ISZERO AND ISZERO PUSH2 0x1939 JUMPI PUSH2 0x1939 PUSH2 0x1909 JUMP JUMPDEST POP MUL SWAP1 JUMP JUMPDEST PUSH1 0x0 DUP3 PUSH2 0x195B JUMPI PUSH4 0x4E487B71 PUSH1 0xE0 SHL PUSH1 0x0 MSTORE PUSH1 0x12 PUSH1 0x4 MSTORE PUSH1 0x24 PUSH1 0x0 REVERT JUMPDEST POP DIV SWAP1 JUMP JUMPDEST PUSH1 0x0 DUP3 DUP3 LT ISZERO PUSH2 0x1972 JUMPI PUSH2 0x1972 PUSH2 0x1909 JUMP JUMPDEST POP SUB SWAP1 JUMP JUMPDEST PUSH4 0x4E487B71 PUSH1 0xE0 SHL PUSH1 0x0 MSTORE PUSH1 0x32 PUSH1 0x4 MSTORE PUSH1 0x24 PUSH1 0x0 REVERT JUMPDEST PUSH4 0x4E487B71 PUSH1 0xE0 SHL PUSH1 0x0 MSTORE PUSH1 0x31 PUSH1 0x4 MSTORE PUSH1 0x24 PUSH1 0x0 REVERT JUMPDEST PUSH1 0x0 DUP3 NOT DUP3 GT ISZERO PUSH2 0x19B6 JUMPI PUSH2 0x19B6 PUSH2 0x1909 JUMP JUMPDEST POP ADD SWAP1 JUMP JUMPDEST PUSH1 0x0 DUP2 PUSH2 0x19CA JUMPI PUSH2 0x19CA PUSH2 0x1909 JUMP JUMPDEST POP PUSH1 0x0 NOT ADD SWAP1 JUMP JUMPDEST PUSH1 0x0 PUSH8 0xFFFFFFFFFFFFFFFF DUP1 DUP4 AND DUP2 DUP6 AND DUP1 DUP4 SUB DUP3 GT ISZERO PUSH2 0x19F5 JUMPI PUSH2 0x19F5 PUSH2 0x1909 JUMP JUMPDEST ADD SWAP5 SWAP4 POP POP POP POP JUMP JUMPDEST PUSH1 0x0 PUSH1 0x20 DUP3 DUP5 SUB SLT ISZERO PUSH2 0x1A10 JUMPI PUSH1 0x0 DUP1 REVERT JUMPDEST POP MLOAD SWAP2 SWAP1 POP JUMP JUMPDEST PUSH1 0x0 PUSH1 0x20 DUP3 DUP5 SUB SLT ISZERO PUSH2 0x1A29 JUMPI PUSH1 0x0 DUP1 REVERT JUMPDEST DUP2 MLOAD DUP1 ISZERO ISZERO DUP2 EQ PUSH2 0x772 JUMPI PUSH1 0x0 DUP1 REVERT JUMPDEST DUP1 MLOAD PUSH10 0xFFFFFFFFFFFFFFFFFFFF DUP2 AND DUP2 EQ PUSH2 0x1707 JUMPI PUSH1 0x0 DUP1 REVERT JUMPDEST PUSH1 0x0 DUP1 PUSH1 0x0 DUP1 PUSH1 0x0 PUSH1 0xA0 DUP7 DUP9 SUB SLT ISZERO PUSH2 0x1A6B JUMPI PUSH1 0x0 DUP1 REVERT JUMPDEST PUSH2 0x1A74 DUP7 PUSH2 0x1A39 JUMP JUMPDEST SWAP5 POP PUSH1 0x20 DUP7 ADD MLOAD SWAP4 POP PUSH1 0x40 DUP7 ADD MLOAD SWAP3 POP PUSH1 0x60 DUP7 ADD MLOAD SWAP2 POP PUSH2 0x18FD PUSH1 0x80 DUP8 ADD PUSH2 0x1A39 JUMP INVALID LOG2 PUSH5 0x6970667358 0x22 SLT KECCAK256 DUP5 PUSH21 0xB986A2F095B35A1B4E5CD41230DD2DB4F72EE4E9F6 GT MUL 0xAB CREATE2 AND LOG3 SWAP13 EXP CALL PUSH5 0x736F6C6343 STOP ADDMOD ADDMOD STOP CALLER "
        },
        "gasEstimates": {
          "creation": {
            "codeDepositCost": "1372200",
            "executionCost": "infinite",
            "totalCost": "infinite"
          },
          "external": {
            "REWARD_PER_WINDOW()": "infinite",
            "accumulatedFees()": "2341",
            "betListLen(address)": "2583",
            "betResult(uint256,uint256)": "460",
            "calculateTokenReward(uint256,uint256,uint256,uint256)": "infinite",
            "changeWindowSize(uint256)": "infinite",
            "computeFee(uint256,uint256)": "584",
            "fee()": "2384",
            "firstBlock()": "2386",
            "firstWindow()": "2406",
            "getPoolValues(uint256)": "2605",
            "getUserBetList(address,uint256)": "4879",
            "getUserStake(uint256,address)": "2861",
            "getWindowBetPrices(uint256)": "infinite",
            "getWindowNumber(uint256,uint256,uint256,uint256,uint256)": "infinite",
            "getWindowStartingBlock(uint256,uint256,uint256,uint256)": "infinite",
            "owner()": "2369",
            "placeBet(uint8)": "infinite",
            "pools(uint256)": "2576",
            "renounceOwnership()": "28211",
            "settleBet(uint256,uint256,uint256,uint256,uint8)": "infinite",
            "transferOwnership(address)": "28360",
            "updateBalance(address)": "infinite",
            "updatePool(uint64,uint64,uint8,uint64)": "infinite",
            "updatePrice()": "infinite",
            "userBets(address,uint256)": "4811",
            "userBetted(address,uint256)": "2714",
            "userStake(address,uint256)": "2729",
            "windowDuration()": "2363",
            "windowOffset()": "2384",
            "windowPrice(uint256)": "2482",
            "windowStatus(uint256,uint256,uint256,uint256)": "infinite"
          },
          "internal": {
            "priceOracle()": "infinite",
            "sharePool(uint256,uint256,uint256)": "181",
            "transferFees()": "infinite",
            "transferRewards(address,uint256)": "infinite"
          }
        },
        "methodIdentifiers": {
          "REWARD_PER_WINDOW()": "71a42207",
          "accumulatedFees()": "587f5ed7",
          "betListLen(address)": "89b808a7",
          "betResult(uint256,uint256)": "1bb5abf9",
          "calculateTokenReward(uint256,uint256,uint256,uint256)": "daaac9d2",
          "changeWindowSize(uint256)": "f52818f0",
          "computeFee(uint256,uint256)": "2ff284c2",
          "fee()": "ddca3f43",
          "firstBlock()": "231b0268",
          "firstWindow()": "e0a5cee3",
          "getPoolValues(uint256)": "0eff4d88",
          "getUserBetList(address,uint256)": "b47a3566",
          "getUserStake(uint256,address)": "9626a230",
          "getWindowBetPrices(uint256)": "f83b35fb",
          "getWindowNumber(uint256,uint256,uint256,uint256,uint256)": "576fe42f",
          "getWindowStartingBlock(uint256,uint256,uint256,uint256)": "849cd1c7",
          "owner()": "8da5cb5b",
          "placeBet(uint8)": "43046844",
          "pools(uint256)": "ac4afa38",
          "renounceOwnership()": "715018a6",
          "settleBet(uint256,uint256,uint256,uint256,uint8)": "ca055e53",
          "transferOwnership(address)": "f2fde38b",
          "updateBalance(address)": "40b8405a",
          "updatePool(uint64,uint64,uint8,uint64)": "a671bd6e",
          "updatePrice()": "673a7e28",
          "userBets(address,uint256)": "8068aa68",
          "userBetted(address,uint256)": "9599ee65",
          "userStake(address,uint256)": "3937ea4f",
          "windowDuration()": "5c11ff7a",
          "windowOffset()": "80962668",
          "windowPrice(uint256)": "e0d65d87",
          "windowStatus(uint256,uint256,uint256,uint256)": "b134894e"
        }
      },
      "storageLayout": {
        "storage": [
          {
            "astId": 53,
            "contract": "contracts/BinaryBet.sol:BinaryBet",
            "label": "_owner",
            "offset": 0,
            "slot": "0",
            "type": "t_address"
          },
          {
            "astId": 896,
            "contract": "contracts/BinaryBet.sol:BinaryBet",
            "label": "priceFeed",
            "offset": 0,
            "slot": "1",
            "type": "t_contract(AggregatorV3Interface)45"
          },
          {
            "astId": 900,
            "contract": "contracts/BinaryBet.sol:BinaryBet",
            "label": "fee",
            "offset": 0,
            "slot": "2",
            "type": "t_uint256"
          },
          {
            "astId": 902,
            "contract": "contracts/BinaryBet.sol:BinaryBet",
            "label": "windowDuration",
            "offset": 0,
            "slot": "3",
            "type": "t_uint256"
          },
          {
            "astId": 904,
            "contract": "contracts/BinaryBet.sol:BinaryBet",
            "label": "firstBlock",
            "offset": 0,
            "slot": "4",
            "type": "t_uint256"
          },
          {
            "astId": 907,
            "contract": "contracts/BinaryBet.sol:BinaryBet",
            "label": "staking",
            "offset": 0,
            "slot": "5",
            "type": "t_contract(BinaryStaking)2309"
          },
          {
            "astId": 909,
            "contract": "contracts/BinaryBet.sol:BinaryBet",
            "label": "stakingAddress",
            "offset": 0,
            "slot": "6",
            "type": "t_address_payable"
          },
          {
            "astId": 912,
            "contract": "contracts/BinaryBet.sol:BinaryBet",
            "label": "token",
            "offset": 0,
            "slot": "7",
            "type": "t_contract(BinToken)866"
          },
          {
            "astId": 917,
            "contract": "contracts/BinaryBet.sol:BinaryBet",
            "label": "pools",
            "offset": 0,
            "slot": "8",
            "type": "t_mapping(t_uint256,t_struct(Pool)893_storage)"
          },
          {
            "astId": 921,
            "contract": "contracts/BinaryBet.sol:BinaryBet",
            "label": "windowPrice",
            "offset": 0,
            "slot": "9",
            "type": "t_mapping(t_uint256,t_uint256)"
          },
          {
            "astId": 924,
            "contract": "contracts/BinaryBet.sol:BinaryBet",
            "label": "firstWindow",
            "offset": 0,
            "slot": "10",
            "type": "t_uint256"
          },
          {
            "astId": 926,
            "contract": "contracts/BinaryBet.sol:BinaryBet",
            "label": "windowOffset",
            "offset": 0,
            "slot": "11",
            "type": "t_uint256"
          },
          {
            "astId": 928,
            "contract": "contracts/BinaryBet.sol:BinaryBet",
            "label": "accumulatedFees",
            "offset": 0,
            "slot": "12",
            "type": "t_uint256"
          },
          {
            "astId": 935,
            "contract": "contracts/BinaryBet.sol:BinaryBet",
            "label": "userStake",
            "offset": 0,
            "slot": "13",
            "type": "t_mapping(t_address,t_mapping(t_uint256,t_struct(Pool)893_storage))"
          },
          {
            "astId": 940,
            "contract": "contracts/BinaryBet.sol:BinaryBet",
            "label": "userBets",
            "offset": 0,
            "slot": "14",
            "type": "t_mapping(t_address,t_array(t_uint256)dyn_storage)"
          },
          {
            "astId": 946,
            "contract": "contracts/BinaryBet.sol:BinaryBet",
            "label": "userBetted",
            "offset": 0,
            "slot": "15",
            "type": "t_mapping(t_address,t_mapping(t_uint256,t_bool))"
          }
        ],
        "types": {
          "t_address": {
            "encoding": "inplace",
            "label": "address",
            "numberOfBytes": "20"
          },
          "t_address_payable": {
            "encoding": "inplace",
            "label": "address payable",
            "numberOfBytes": "20"
          },
          "t_array(t_uint256)dyn_storage": {
            "base": "t_uint256",
            "encoding": "dynamic_array",
            "label": "uint256[]",
            "numberOfBytes": "32"
          },
          "t_bool": {
            "encoding": "inplace",
            "label": "bool",
            "numberOfBytes": "1"
          },
          "t_contract(AggregatorV3Interface)45": {
            "encoding": "inplace",
            "label": "contract AggregatorV3Interface",
            "numberOfBytes": "20"
          },
          "t_contract(BinToken)866": {
            "encoding": "inplace",
            "label": "contract BinToken",
            "numberOfBytes": "20"
          },
          "t_contract(BinaryStaking)2309": {
            "encoding": "inplace",
            "label": "contract BinaryStaking",
            "numberOfBytes": "20"
          },
          "t_mapping(t_address,t_array(t_uint256)dyn_storage)": {
            "encoding": "mapping",
            "key": "t_address",
            "label": "mapping(address => uint256[])",
            "numberOfBytes": "32",
            "value": "t_array(t_uint256)dyn_storage"
          },
          "t_mapping(t_address,t_mapping(t_uint256,t_bool))": {
            "encoding": "mapping",
            "key": "t_address",
            "label": "mapping(address => mapping(uint256 => bool))",
            "numberOfBytes": "32",
            "value": "t_mapping(t_uint256,t_bool)"
          },
          "t_mapping(t_address,t_mapping(t_uint256,t_struct(Pool)893_storage))": {
            "encoding": "mapping",
            "key": "t_address",
            "label": "mapping(address => mapping(uint256 => struct BinaryBet.Pool))",
            "numberOfBytes": "32",
            "value": "t_mapping(t_uint256,t_struct(Pool)893_storage)"
          },
          "t_mapping(t_uint256,t_bool)": {
            "encoding": "mapping",
            "key": "t_uint256",
            "label": "mapping(uint256 => bool)",
            "numberOfBytes": "32",
            "value": "t_bool"
          },
          "t_mapping(t_uint256,t_struct(Pool)893_storage)": {
            "encoding": "mapping",
            "key": "t_uint256",
            "label": "mapping(uint256 => struct BinaryBet.Pool)",
            "numberOfBytes": "32",
            "value": "t_struct(Pool)893_storage"
          },
          "t_mapping(t_uint256,t_uint256)": {
            "encoding": "mapping",
            "key": "t_uint256",
            "label": "mapping(uint256 => uint256)",
            "numberOfBytes": "32",
            "value": "t_uint256"
          },
          "t_struct(Pool)893_storage": {
            "encoding": "inplace",
            "label": "struct BinaryBet.Pool",
            "members": [
              {
                "astId": 890,
                "contract": "contracts/BinaryBet.sol:BinaryBet",
                "label": "downValue",
                "offset": 0,
                "slot": "0",
                "type": "t_uint64"
              },
              {
                "astId": 892,
                "contract": "contracts/BinaryBet.sol:BinaryBet",
                "label": "upValue",
                "offset": 8,
                "slot": "0",
                "type": "t_uint64"
              }
            ],
            "numberOfBytes": "32"
          },
          "t_uint256": {
            "encoding": "inplace",
            "label": "uint256",
            "numberOfBytes": "32"
          },
          "t_uint64": {
            "encoding": "inplace",
            "label": "uint64",
            "numberOfBytes": "8"
          }
        }
      },
      "userdoc": {
        "kind": "user",
        "methods": {},
        "version": 1
      }
    }
  }
}