{
  "_format": "hh-sol-artifact-1",
  "contractName": "BinaryBet",
  "sourceName": "contracts/BinaryBet.sol",
  "abi": [
    {
      "inputs": [
        {
          "internalType": "uint256",
          "name": "_windowDuration",
          "type": "uint256"
        },
        {
          "internalType": "uint256",
          "name": "_fee",
          "type": "uint256"
        },
        {
          "internalType": "address",
          "name": "aggregator",
          "type": "address"
        },
        {
          "internalType": "address",
          "name": "stakingContract",
          "type": "address"
        },
        {
          "internalType": "address",
          "name": "tokenContract",
          "type": "address"
        },
        {
          "internalType": "uint256",
          "name": "reward",
          "type": "uint256"
        }
      ],
      "stateMutability": "nonpayable",
      "type": "constructor"
    },
    {
      "anonymous": false,
      "inputs": [
        {
          "indexed": true,
          "internalType": "uint256",
          "name": "windowNumber",
          "type": "uint256"
        },
        {
          "indexed": true,
          "internalType": "address",
          "name": "user",
          "type": "address"
        },
        {
          "indexed": false,
          "internalType": "uint256",
          "name": "gain",
          "type": "uint256"
        }
      ],
      "name": "BetSettled",
      "type": "event"
    },
    {
      "anonymous": false,
      "inputs": [
        {
          "indexed": true,
          "internalType": "address",
          "name": "user",
          "type": "address"
        },
        {
          "indexed": true,
          "internalType": "uint256",
          "name": "windowNumber",
          "type": "uint256"
        },
        {
          "indexed": false,
          "internalType": "uint256",
          "name": "value",
          "type": "uint256"
        },
        {
          "indexed": false,
          "internalType": "uint8",
          "name": "side",
          "type": "uint8"
        }
      ],
      "name": "NewBet",
      "type": "event"
    },
    {
      "anonymous": false,
      "inputs": [
        {
          "indexed": true,
          "internalType": "address",
          "name": "previousOwner",
          "type": "address"
        },
        {
          "indexed": true,
          "internalType": "address",
          "name": "newOwner",
          "type": "address"
        }
      ],
      "name": "OwnershipTransferred",
      "type": "event"
    },
    {
      "anonymous": false,
      "inputs": [
        {
          "indexed": true,
          "internalType": "uint256",
          "name": "windowNumber",
          "type": "uint256"
        },
        {
          "indexed": false,
          "internalType": "uint256",
          "name": "price",
          "type": "uint256"
        }
      ],
      "name": "PriceUpdated",
      "type": "event"
    },
    {
      "inputs": [],
      "name": "REWARD_PER_WINDOW",
      "outputs": [
        {
          "internalType": "uint256",
          "name": "",
          "type": "uint256"
        }
      ],
      "stateMutability": "view",
      "type": "function"
    },
    {
      "inputs": [],
      "name": "accumulatedFees",
      "outputs": [
        {
          "internalType": "uint256",
          "name": "",
          "type": "uint256"
        }
      ],
      "stateMutability": "view",
      "type": "function"
    },
    {
      "inputs": [
        {
          "internalType": "address",
          "name": "user",
          "type": "address"
        }
      ],
      "name": "betListLen",
      "outputs": [
        {
          "internalType": "uint256",
          "name": "",
          "type": "uint256"
        }
      ],
      "stateMutability": "view",
      "type": "function"
    },
    {
      "inputs": [
        {
          "internalType": "uint256",
          "name": "referencePrice",
          "type": "uint256"
        },
        {
          "internalType": "uint256",
          "name": "settlementPrice",
          "type": "uint256"
        }
      ],
      "name": "betResult",
      "outputs": [
        {
          "internalType": "uint8",
          "name": "",
          "type": "uint8"
        }
      ],
      "stateMutability": "pure",
      "type": "function"
    },
    {
      "inputs": [
        {
          "internalType": "uint256",
          "name": "upStake",
          "type": "uint256"
        },
        {
          "internalType": "uint256",
          "name": "downStake",
          "type": "uint256"
        },
        {
          "internalType": "uint256",
          "name": "poolUp",
          "type": "uint256"
        },
        {
          "internalType": "uint256",
          "name": "poolDown",
          "type": "uint256"
        }
      ],
      "name": "calculateTokenReward",
      "outputs": [
        {
          "internalType": "uint256",
          "name": "",
          "type": "uint256"
        }
      ],
      "stateMutability": "view",
      "type": "function"
    },
    {
      "inputs": [
        {
          "internalType": "uint256",
          "name": "windowSize",
          "type": "uint256"
        }
      ],
      "name": "changeWindowSize",
      "outputs": [],
      "stateMutability": "nonpayable",
      "type": "function"
    },
    {
      "inputs": [
        {
          "internalType": "uint256",
          "name": "value",
          "type": "uint256"
        },
        {
          "internalType": "uint256",
          "name": "_fee",
          "type": "uint256"
        }
      ],
      "name": "computeFee",
      "outputs": [
        {
          "internalType": "uint256",
          "name": "betFee",
          "type": "uint256"
        }
      ],
      "stateMutability": "pure",
      "type": "function"
    },
    {
      "inputs": [],
      "name": "fee",
      "outputs": [
        {
          "internalType": "uint256",
          "name": "",
          "type": "uint256"
        }
      ],
      "stateMutability": "view",
      "type": "function"
    },
    {
      "inputs": [],
      "name": "firstBlock",
      "outputs": [
        {
          "internalType": "uint256",
          "name": "",
          "type": "uint256"
        }
      ],
      "stateMutability": "view",
      "type": "function"
    },
    {
      "inputs": [],
      "name": "firstWindow",
      "outputs": [
        {
          "internalType": "uint256",
          "name": "",
          "type": "uint256"
        }
      ],
      "stateMutability": "view",
      "type": "function"
    },
    {
      "inputs": [
        {
          "internalType": "uint256",
          "name": "windowNumber",
          "type": "uint256"
        }
      ],
      "name": "getPoolValues",
      "outputs": [
        {
          "internalType": "uint256",
          "name": "",
          "type": "uint256"
        },
        {
          "internalType": "uint256",
          "name": "",
          "type": "uint256"
        }
      ],
      "stateMutability": "view",
      "type": "function"
    },
    {
      "inputs": [
        {
          "internalType": "address",
          "name": "user",
          "type": "address"
        },
        {
          "internalType": "uint256",
          "name": "index",
          "type": "uint256"
        }
      ],
      "name": "getUserBetList",
      "outputs": [
        {
          "internalType": "uint256",
          "name": "",
          "type": "uint256"
        }
      ],
      "stateMutability": "view",
      "type": "function"
    },
    {
      "inputs": [
        {
          "internalType": "uint256",
          "name": "windowNumber",
          "type": "uint256"
        },
        {
          "internalType": "address",
          "name": "user",
          "type": "address"
        }
      ],
      "name": "getUserStake",
      "outputs": [
        {
          "internalType": "uint256",
          "name": "",
          "type": "uint256"
        },
        {
          "internalType": "uint256",
          "name": "",
          "type": "uint256"
        }
      ],
      "stateMutability": "view",
      "type": "function"
    },
    {
      "inputs": [
        {
          "internalType": "uint256",
          "name": "window",
          "type": "uint256"
        }
      ],
      "name": "getWindowBetPrices",
      "outputs": [
        {
          "internalType": "uint256",
          "name": "",
          "type": "uint256"
        },
        {
          "internalType": "uint256",
          "name": "",
          "type": "uint256"
        }
      ],
      "stateMutability": "view",
      "type": "function"
    },
    {
      "inputs": [
        {
          "internalType": "uint256",
          "name": "currentBlock",
          "type": "uint256"
        },
        {
          "internalType": "uint256",
          "name": "_windowDuration",
          "type": "uint256"
        },
        {
          "internalType": "uint256",
          "name": "_firstBlock",
          "type": "uint256"
        },
        {
          "internalType": "uint256",
          "name": "_windowOffset",
          "type": "uint256"
        },
        {
          "internalType": "uint256",
          "name": "_firstWindow",
          "type": "uint256"
        }
      ],
      "name": "getWindowNumber",
      "outputs": [
        {
          "internalType": "uint256",
          "name": "windowNumber",
          "type": "uint256"
        }
      ],
      "stateMutability": "pure",
      "type": "function"
    },
    {
      "inputs": [
        {
          "internalType": "uint256",
          "name": "windowNumber",
          "type": "uint256"
        },
        {
          "internalType": "uint256",
          "name": "_windowDuration",
          "type": "uint256"
        },
        {
          "internalType": "uint256",
          "name": "_firstBlock",
          "type": "uint256"
        },
        {
          "internalType": "uint256",
          "name": "_windowOffset",
          "type": "uint256"
        }
      ],
      "name": "getWindowStartingBlock",
      "outputs": [
        {
          "internalType": "uint256",
          "name": "startingBlock",
          "type": "uint256"
        }
      ],
      "stateMutability": "pure",
      "type": "function"
    },
    {
      "inputs": [],
      "name": "owner",
      "outputs": [
        {
          "internalType": "address",
          "name": "",
          "type": "address"
        }
      ],
      "stateMutability": "view",
      "type": "function"
    },
    {
      "inputs": [
        {
          "internalType": "uint8",
          "name": "side",
          "type": "uint8"
        }
      ],
      "name": "placeBet",
      "outputs": [],
      "stateMutability": "payable",
      "type": "function"
    },
    {
      "inputs": [
        {
          "internalType": "uint256",
          "name": "",
          "type": "uint256"
        }
      ],
      "name": "pools",
      "outputs": [
        {
          "internalType": "uint64",
          "name": "downValue",
          "type": "uint64"
        },
        {
          "internalType": "uint64",
          "name": "upValue",
          "type": "uint64"
        }
      ],
      "stateMutability": "view",
      "type": "function"
    },
    {
      "inputs": [],
      "name": "renounceOwnership",
      "outputs": [],
      "stateMutability": "nonpayable",
      "type": "function"
    },
    {
      "inputs": [
        {
          "internalType": "uint256",
          "name": "upStake",
          "type": "uint256"
        },
        {
          "internalType": "uint256",
          "name": "downStake",
          "type": "uint256"
        },
        {
          "internalType": "uint256",
          "name": "poolUp",
          "type": "uint256"
        },
        {
          "internalType": "uint256",
          "name": "poolDown",
          "type": "uint256"
        },
        {
          "internalType": "uint8",
          "name": "res",
          "type": "uint8"
        }
      ],
      "name": "settleBet",
      "outputs": [
        {
          "internalType": "uint256",
          "name": "gain",
          "type": "uint256"
        },
        {
          "internalType": "uint256",
          "name": "fees",
          "type": "uint256"
        }
      ],
      "stateMutability": "pure",
      "type": "function"
    },
    {
      "inputs": [
        {
          "internalType": "address",
          "name": "newOwner",
          "type": "address"
        }
      ],
      "name": "transferOwnership",
      "outputs": [],
      "stateMutability": "nonpayable",
      "type": "function"
    },
    {
      "inputs": [
        {
          "internalType": "address",
          "name": "user",
          "type": "address"
        }
      ],
      "name": "updateBalance",
      "outputs": [],
      "stateMutability": "nonpayable",
      "type": "function"
    },
    {
      "inputs": [
        {
          "internalType": "uint64",
          "name": "downValue",
          "type": "uint64"
        },
        {
          "internalType": "uint64",
          "name": "upValue",
          "type": "uint64"
        },
        {
          "internalType": "uint8",
          "name": "side",
          "type": "uint8"
        },
        {
          "internalType": "uint64",
          "name": "value",
          "type": "uint64"
        }
      ],
      "name": "updatePool",
      "outputs": [
        {
          "internalType": "uint64",
          "name": "",
          "type": "uint64"
        },
        {
          "internalType": "uint64",
          "name": "",
          "type": "uint64"
        }
      ],
      "stateMutability": "pure",
      "type": "function"
    },
    {
      "inputs": [],
      "name": "updatePrice",
      "outputs": [],
      "stateMutability": "nonpayable",
      "type": "function"
    },
    {
      "inputs": [
        {
          "internalType": "address",
          "name": "",
          "type": "address"
        },
        {
          "internalType": "uint256",
          "name": "",
          "type": "uint256"
        }
      ],
      "name": "userBets",
      "outputs": [
        {
          "internalType": "uint256",
          "name": "",
          "type": "uint256"
        }
      ],
      "stateMutability": "view",
      "type": "function"
    },
    {
      "inputs": [
        {
          "internalType": "address",
          "name": "",
          "type": "address"
        },
        {
          "internalType": "uint256",
          "name": "",
          "type": "uint256"
        }
      ],
      "name": "userBetted",
      "outputs": [
        {
          "internalType": "bool",
          "name": "",
          "type": "bool"
        }
      ],
      "stateMutability": "view",
      "type": "function"
    },
    {
      "inputs": [
        {
          "internalType": "address",
          "name": "",
          "type": "address"
        },
        {
          "internalType": "uint256",
          "name": "",
          "type": "uint256"
        }
      ],
      "name": "userStake",
      "outputs": [
        {
          "internalType": "uint64",
          "name": "downValue",
          "type": "uint64"
        },
        {
          "internalType": "uint64",
          "name": "upValue",
          "type": "uint64"
        }
      ],
      "stateMutability": "view",
      "type": "function"
    },
    {
      "inputs": [],
      "name": "windowDuration",
      "outputs": [
        {
          "internalType": "uint256",
          "name": "",
          "type": "uint256"
        }
      ],
      "stateMutability": "view",
      "type": "function"
    },
    {
      "inputs": [],
      "name": "windowOffset",
      "outputs": [
        {
          "internalType": "uint256",
          "name": "",
          "type": "uint256"
        }
      ],
      "stateMutability": "view",
      "type": "function"
    },
    {
      "inputs": [
        {
          "internalType": "uint256",
          "name": "",
          "type": "uint256"
        }
      ],
      "name": "windowPrice",
      "outputs": [
        {
          "internalType": "uint256",
          "name": "",
          "type": "uint256"
        }
      ],
      "stateMutability": "view",
      "type": "function"
    },
    {
      "inputs": [
        {
          "internalType": "uint256",
          "name": "window",
          "type": "uint256"
        },
        {
          "internalType": "uint256",
          "name": "currentWindow",
          "type": "uint256"
        },
        {
          "internalType": "uint256",
          "name": "initialPrice",
          "type": "uint256"
        },
        {
          "internalType": "uint256",
          "name": "finalPrice",
          "type": "uint256"
        }
      ],
      "name": "windowStatus",
      "outputs": [
        {
          "internalType": "enum BinaryBet.WindowStatus",
          "name": "status",
          "type": "uint8"
        }
      ],
      "stateMutability": "pure",
      "type": "function"
    }
  ],
  "bytecode": "0x60a06040526001600a553480156200001657600080fd5b5060405162001d0c38038062001d0c833981016040819052620000399162000188565b62000044336200011b565b60648511156200009a5760405162461bcd60e51b815260206004820152601b60248201527f4665652073686f756c64206265206c657373207468616e203130300000000000604482015260640160405180910390fd5b600180546001600160a01b038087166001600160a01b03199283161783554360045560038990556002889055600a92909255600680548684169083168117909155600580548316909117905560078054928516929091169190911790556200010b81670de0b6b3a7640000620001ee565b608052506200021c945050505050565b600080546001600160a01b038381166001600160a01b0319831681178455604051919092169283917f8be0079c531659141344cd1fd0a4f28419497f9722a3daafe3b4186f6b6457e09190a35050565b80516001600160a01b03811681146200018357600080fd5b919050565b60008060008060008060c08789031215620001a257600080fd5b8651955060208701519450620001bb604088016200016b565b9350620001cb606088016200016b565b9250620001db608088016200016b565b915060a087015190509295509295509295565b60008160001904831182151516156200021757634e487b7160e01b600052601160045260246000fd5b500290565b608051611acd6200023f600039600081816103fb01526110ec0152611acd6000f3fe6080604052600436106101e35760003560e01c806389b808a711610102578063ca055e5311610095578063e0d65d8711610064578063e0d65d87146106a1578063f2fde38b146106ce578063f52818f0146106ee578063f83b35fb1461070e57600080fd5b8063ca055e5314610635578063daaac9d214610655578063ddca3f4314610675578063e0a5cee31461068b57600080fd5b8063a671bd6e116100d1578063a671bd6e14610586578063ac4afa38146105a6578063b134894e146105e8578063b47a35661461061557600080fd5b806389b808a7146104735780638da5cb5b146104a95780639599ee65146104d15780639626a2301461051c57600080fd5b8063587f5ed71161017a57806371a422071161014957806371a42207146103e95780638068aa681461041d578063809626681461043d578063849cd1c71461045357600080fd5b8063587f5ed7146103935780635c11ff7a146103a9578063673a7e28146103bf578063715018a6146103d457600080fd5b80633937ea4f116101b65780633937ea4f146102d057806340b8405a1461033e5780634304684414610360578063576fe42f1461037357600080fd5b80630eff4d88146101e85780631bb5abf91461025a578063231b02681461028c5780632ff284c2146102b0575b600080fd5b3480156101f457600080fd5b506102406102033660046116b5565b60009081526008602090815260409182902082518084019093525467ffffffffffffffff808216808552600160401b909204169290910182905291565b604080519283526020830191909152015b60405180910390f35b34801561026657600080fd5b5061027a6102753660046116ce565b61072e565b60405160ff9091168152602001610251565b34801561029857600080fd5b506102a260045481565b604051908152602001610251565b3480156102bc57600080fd5b506102a26102cb3660046116ce565b61075a565b3480156102dc57600080fd5b5061031d6102eb36600461170c565b600d60209081526000928352604080842090915290825290205467ffffffffffffffff80821691600160401b90041682565b6040805167ffffffffffffffff938416815292909116602083015201610251565b34801561034a57600080fd5b5061035e610359366004611736565b610779565b005b61035e61036e366004611762565b610ab9565b34801561037f57600080fd5b506102a261038e36600461177d565b610d7c565b34801561039f57600080fd5b506102a2600c5481565b3480156103b557600080fd5b506102a260035481565b3480156103cb57600080fd5b5061035e610dc4565b3480156103e057600080fd5b5061035e610e49565b3480156103f557600080fd5b506102a27f000000000000000000000000000000000000000000000000000000000000000081565b34801561042957600080fd5b506102a261043836600461170c565b610eaf565b34801561044957600080fd5b506102a2600b5481565b34801561045f57600080fd5b506102a261046e3660046117b8565b610ee0565b34801561047f57600080fd5b506102a261048e366004611736565b6001600160a01b03166000908152600e602052604090205490565b3480156104b557600080fd5b506000546040516001600160a01b039091168152602001610251565b3480156104dd57600080fd5b5061050c6104ec36600461170c565b600f60209081526000928352604080842090915290825290205460ff1681565b6040519015158152602001610251565b34801561052857600080fd5b506102406105373660046117ea565b6001600160a01b03166000908152600d602090815260408083209383529281529082902082518084019093525467ffffffffffffffff808216808552600160401b909204169290910182905291565b34801561059257600080fd5b5061031d6105a136600461182e565b610f0d565b3480156105b257600080fd5b5061031d6105c13660046116b5565b60086020526000908152604090205467ffffffffffffffff80821691600160401b90041682565b3480156105f457600080fd5b506106086106033660046117b8565b610f72565b6040516102519190611898565b34801561062157600080fd5b506102a261063036600461170c565b610fd6565b34801561064157600080fd5b506102406106503660046118c0565b611013565b34801561066157600080fd5b506102a26106703660046117b8565b6110e5565b34801561068157600080fd5b506102a260025481565b34801561069757600080fd5b506102a2600a5481565b3480156106ad57600080fd5b506102a26106bc3660046116b5565b60096020526000908152604090205481565b3480156106da57600080fd5b5061035e6106e9366004611736565b611124565b3480156106fa57600080fd5b5061035e6107093660046116b5565b611203565b34801561071a57600080fd5b506102406107293660046116b5565b6112f2565b60008282101561074057506000610754565b8282111561075057506001610754565b5060025b92915050565b60006064610768838561191f565b610772919061193e565b9392505050565b6001600160a01b0381166000908152600e60205260409020805461079b575050565b80546000905b8015610a7b576000836107b5600184611960565b815481106107c5576107c5611977565b9060005260206000200154905060006107e943600354600454600b54600a54610d7c565b90506000806107f7846112f2565b91509150600061080985858585610f72565b9050600081600381111561081f5761081f611882565b148061083c5750600181600381111561083a5761083a611882565b145b1561084b575050505050610a69565b6000600382600381111561086157610861611882565b141561087857610871848461072e565b9050610896565b600282600381111561088c5761088c611882565b1415610896575060025b885489906108a690600190611960565b815481106108b6576108b6611977565b9060005260206000200154896001896108cf9190611960565b815481106108df576108df611977565b9060005260206000200181905550888054806108fd576108fd61198d565b6000828152602080822083016000199081018390559092019092556001600160a01b038c168252600d81526040808320898452825280832081518083018352905467ffffffffffffffff8082168352600160401b9182900481168386019081528c875260088652848720855180870190965254808316808752939004821695850186905251835193969495859461099a9492841693169189611013565b90925090506109a9828d6119a3565b9b5080600c546109b991906119a3565b600c819055506000610a05856020015167ffffffffffffffff16866000015167ffffffffffffffff16866020015167ffffffffffffffff16876000015167ffffffffffffffff166110e5565b9050610a118f8261133b565b610a19611529565b8e6001600160a01b03168b7f6f277b50171c654e40c771d9c2bbf19e070eeb21cce6f8e9a80334564279e39585604051610a5591815260200190565b60405180910390a350505050505050505050505b80610a73816119bb565b9150506107a1565b506040516001600160a01b0384169082156108fc029083906000818181858888f19350505050158015610ab2573d6000803e3d6000fd5b505b505050565b60003411610b0e5760405162461bcd60e51b815260206004820152601d60248201527f4f6e6c79207374726963746c7920706f7369746976652076616c75657300000060448201526064015b60405180910390fd5b610b16610dc4565b610b1f33610779565b6000610b2d3460025461075a565b905080600c54610b3d91906119a3565b600c556000610b4c8234611960565b90506000610b6543600354600454600b54600a54610d7c565b336000908152600f6020908152604080832084845290915290205490915060ff16610bcd57336000818152600e6020908152604080832080546001818101835591855283852001869055938352600f82528083208584529091529020805460ff191690911790555b600081815260086020908152604080832081518083019092525467ffffffffffffffff808216808452600160401b909204169282018390529092918291610c15918988610f0d565b60408051808201825267ffffffffffffffff8481168252838116602080840191825260008b8152600882528581209451855493519085166fffffffffffffffffffffffffffffffff1990941693909317600160401b938516840217909455338452600d81528484208b855281529284902084518086019095525480831680865291900490911691830182905293955091935091610cb3918a89610f0d565b60408051808201825267ffffffffffffffff80851682528084166020808401918252336000818152600d83528681208e8252909252908590209351845492518416600160401b026fffffffffffffffffffffffffffffffff1990931693169290921717909155905192955090935086917f85ff162f60a0eab11e1e0d3d9cfa18a46d7038a29751af4130dbaeeadbd37ed490610d6a908a908d9067ffffffffffffffff92909216825260ff16602082015260400190565b60405180910390a35050505050505050565b600083861015610d8d575080610dbb565b8285610d998689611960565b610da3919061193e565b610dad91906119a3565b610db89060016119a3565b90505b95945050505050565b6000610ddb43600354600454600b54600a54610d7c565b600081815260096020526040902054909150610e4657610df96115a2565b600082815260096020526040908190208290555182917f945c1c4e99aa89f648fbfe3df471b916f719e16d960fcec0737d4d56bd69683891610e3d91815260200190565b60405180910390a25b50565b6000546001600160a01b03163314610ea35760405162461bcd60e51b815260206004820181905260248201527f4f776e61626c653a2063616c6c6572206973206e6f7420746865206f776e65726044820152606401610b05565b610ead6000611636565b565b600e6020528160005260406000208181548110610ecb57600080fd5b90600052602060002001600091509150505481565b60008382610eef600188611960565b610ef99190611960565b610f03919061191f565b610dbb90846119a3565b60008060008460ff166001811115610f2757610f27611882565b90506000816001811115610f3d57610f3d611882565b1415610f5857610f4d84886119d2565b869250925050610f69565b86610f6385886119d2565b92509250505b94509492505050565b6000610f7f8560026119a3565b841015610f8e57506000610fce565b610f998560036119a3565b84108015610fa5575081155b15610fb257506001610fce565b821580610fbd575081155b15610fca57506002610fce565b5060035b949350505050565b6001600160a01b0382166000908152600e6020526040812080548390811061100057611000611977565b9060005260206000200154905092915050565b60008060008360ff16600281111561102d5761102d611882565b9050600061103b86886119a3565b9050600182600281111561105157611051611882565b14801561105d57508615155b156110745761106d818a8961169e565b93506110d9565b600082600281111561108857611088611882565b14801561109457508515155b156110a45761106d81898861169e565b60028260028111156110b8576110b8611882565b14156110c85761106d888a6119a3565b600093506110d6888a6119a3565b92505b50509550959350505050565b6000610dbb7f000000000000000000000000000000000000000000000000000000000000000061111586886119a3565b61111f85876119a3565b61169e565b6000546001600160a01b0316331461117e5760405162461bcd60e51b815260206004820181905260248201527f4f776e61626c653a2063616c6c6572206973206e6f7420746865206f776e65726044820152606401610b05565b6001600160a01b0381166111fa5760405162461bcd60e51b815260206004820152602660248201527f4f776e61626c653a206e6577206f776e657220697320746865207a65726f206160448201527f64647265737300000000000000000000000000000000000000000000000000006064820152608401610b05565b610e4681611636565b6000546001600160a01b0316331461125d5760405162461bcd60e51b815260206004820181905260248201527f4f776e61626c653a2063616c6c6572206973206e6f7420746865206f776e65726044820152606401610b05565b600081116112ad5760405162461bcd60e51b815260206004820152601b60248201527f77696e646f772073697a652073686f756c6420706f73697469766500000000006044820152606401610b05565b60006112c443600354600454600b54600a54610d7c565b90506112e26112d48260016119a3565b600354600454600b54610ee0565b600455600b819055600a55600355565b6000806009816113038560016119a3565b8152602001908152602001600020546009600085600261132391906119a3565b81526020019081526020016000205491509150915091565b6007546040516370a0823160e01b815230600482015282916001600160a01b0316906370a082319060240160206040518083038186803b15801561137e57600080fd5b505afa158015611392573d6000803e3d6000fd5b505050506040513d601f19601f820116820180604052508101906113b691906119fe565b1061145b576007546040517fa9059cbb0000000000000000000000000000000000000000000000000000000081526001600160a01b038481166004830152602482018490529091169063a9059cbb906044015b602060405180830381600087803b15801561142357600080fd5b505af1158015611437573d6000803e3d6000fd5b505050506040513d601f19601f82011682018060405250810190610ab49190611a17565b6007546040516370a0823160e01b81523060048201526001600160a01b039091169063a9059cbb90849083906370a082319060240160206040518083038186803b1580156114a857600080fd5b505afa1580156114bc573d6000803e3d6000fd5b505050506040513d601f19601f820116820180604052508101906114e091906119fe565b6040517fffffffff0000000000000000000000000000000000000000000000000000000060e085901b1681526001600160a01b0390921660048301526024820152604401611409565b600c5415610ead57600560009054906101000a90046001600160a01b03166001600160a01b0316625c33e1600c546040518263ffffffff1660e01b81526004016000604051808303818588803b15801561158257600080fd5b505af1158015611596573d6000803e3d6000fd5b50506000600c55505050565b600080600160009054906101000a90046001600160a01b03166001600160a01b031663feaf968c6040518163ffffffff1660e01b815260040160a06040518083038186803b1580156115f357600080fd5b505afa158015611607573d6000803e3d6000fd5b505050506040513d601f19601f8201168201806040525081019061162b9190611a53565b509195945050505050565b600080546001600160a01b038381167fffffffffffffffffffffffff0000000000000000000000000000000000000000831681178455604051919092169283917f8be0079c531659141344cd1fd0a4f28419497f9722a3daafe3b4186f6b6457e09190a35050565b6000816116ab858561191f565b610fce919061193e565b6000602082840312156116c757600080fd5b5035919050565b600080604083850312156116e157600080fd5b50508035926020909101359150565b80356001600160a01b038116811461170757600080fd5b919050565b6000806040838503121561171f57600080fd5b611728836116f0565b946020939093013593505050565b60006020828403121561174857600080fd5b610772826116f0565b803560ff8116811461170757600080fd5b60006020828403121561177457600080fd5b61077282611751565b600080600080600060a0868803121561179557600080fd5b505083359560208501359550604085013594606081013594506080013592509050565b600080600080608085870312156117ce57600080fd5b5050823594602084013594506040840135936060013592509050565b600080604083850312156117fd57600080fd5b8235915061180d602084016116f0565b90509250929050565b803567ffffffffffffffff8116811461170757600080fd5b6000806000806080858703121561184457600080fd5b61184d85611816565b935061185b60208601611816565b925061186960408601611751565b915061187760608601611816565b905092959194509250565b634e487b7160e01b600052602160045260246000fd5b60208101600483106118ba57634e487b7160e01b600052602160045260246000fd5b91905290565b600080600080600060a086880312156118d857600080fd5b853594506020860135935060408601359250606086013591506118fd60808701611751565b90509295509295909350565b634e487b7160e01b600052601160045260246000fd5b600081600019048311821515161561193957611939611909565b500290565b60008261195b57634e487b7160e01b600052601260045260246000fd5b500490565b60008282101561197257611972611909565b500390565b634e487b7160e01b600052603260045260246000fd5b634e487b7160e01b600052603160045260246000fd5b600082198211156119b6576119b6611909565b500190565b6000816119ca576119ca611909565b506000190190565b600067ffffffffffffffff8083168185168083038211156119f5576119f5611909565b01949350505050565b600060208284031215611a1057600080fd5b5051919050565b600060208284031215611a2957600080fd5b8151801515811461077257600080fd5b805169ffffffffffffffffffff8116811461170757600080fd5b600080600080600060a08688031215611a6b57600080fd5b611a7486611a39565b94506020860151935060408601519250606086015191506118fd60808701611a3956fea26469706673582212208474b986a2f095b35a1b4e5cd41230dd2db4f72ee4e9f61102abf516a39c0af164736f6c63430008080033",
  "linkReferences": {},
  "deployedLinkReferences": {}
}