{
  "_format": "hh-sol-artifact-1",
  "contractName": "BinaryBet",
  "sourceName": "contracts/BinaryBet.sol",
  "abi": [
    {
      "inputs": [
        {
          "internalType": "uint256",
          "name": "_windowDuration",
          "type": "uint256"
        },
        {
          "internalType": "uint256",
          "name": "_fee",
          "type": "uint256"
        },
        {
          "internalType": "address",
          "name": "aggregator",
          "type": "address"
        },
        {
          "internalType": "address",
          "name": "stakingContract",
          "type": "address"
        },
        {
          "internalType": "address",
          "name": "tokenContract",
          "type": "address"
        },
        {
          "internalType": "uint256",
          "name": "reward",
          "type": "uint256"
        }
      ],
      "stateMutability": "nonpayable",
      "type": "constructor"
    },
    {
      "anonymous": false,
      "inputs": [
        {
          "indexed": true,
          "internalType": "address",
          "name": "previousOwner",
          "type": "address"
        },
        {
          "indexed": true,
          "internalType": "address",
          "name": "newOwner",
          "type": "address"
        }
      ],
      "name": "OwnershipTransferred",
      "type": "event"
    },
    {
      "anonymous": false,
      "inputs": [
        {
          "indexed": true,
          "internalType": "uint256",
          "name": "windowNumber",
          "type": "uint256"
        },
        {
          "indexed": true,
          "internalType": "address",
          "name": "user",
          "type": "address"
        },
        {
          "indexed": false,
          "internalType": "uint256",
          "name": "gain",
          "type": "uint256"
        }
      ],
      "name": "betSettled",
      "type": "event"
    },
    {
      "anonymous": false,
      "inputs": [
        {
          "indexed": true,
          "internalType": "address",
          "name": "user",
          "type": "address"
        },
        {
          "indexed": true,
          "internalType": "uint256",
          "name": "windowNumber",
          "type": "uint256"
        },
        {
          "indexed": false,
          "internalType": "uint256",
          "name": "value",
          "type": "uint256"
        },
        {
          "indexed": false,
          "internalType": "uint8",
          "name": "side",
          "type": "uint8"
        }
      ],
      "name": "newBet",
      "type": "event"
    },
    {
      "anonymous": false,
      "inputs": [
        {
          "indexed": true,
          "internalType": "uint256",
          "name": "windowNumber",
          "type": "uint256"
        },
        {
          "indexed": false,
          "internalType": "uint256",
          "name": "price",
          "type": "uint256"
        }
      ],
      "name": "priceUpdated",
      "type": "event"
    },
    {
      "inputs": [],
      "name": "REWARD_PER_WINDOW",
      "outputs": [
        {
          "internalType": "uint256",
          "name": "",
          "type": "uint256"
        }
      ],
      "stateMutability": "view",
      "type": "function"
    },
    {
      "inputs": [],
      "name": "accumulatedFees",
      "outputs": [
        {
          "internalType": "uint256",
          "name": "",
          "type": "uint256"
        }
      ],
      "stateMutability": "view",
      "type": "function"
    },
    {
      "inputs": [
        {
          "internalType": "address",
          "name": "user",
          "type": "address"
        }
      ],
      "name": "betListLen",
      "outputs": [
        {
          "internalType": "uint256",
          "name": "",
          "type": "uint256"
        }
      ],
      "stateMutability": "view",
      "type": "function"
    },
    {
      "inputs": [
        {
          "internalType": "uint256",
          "name": "referencePrice",
          "type": "uint256"
        },
        {
          "internalType": "uint256",
          "name": "settlementPrice",
          "type": "uint256"
        }
      ],
      "name": "betResult",
      "outputs": [
        {
          "internalType": "uint8",
          "name": "",
          "type": "uint8"
        }
      ],
      "stateMutability": "pure",
      "type": "function"
    },
    {
      "inputs": [
        {
          "internalType": "uint256",
          "name": "upStake",
          "type": "uint256"
        },
        {
          "internalType": "uint256",
          "name": "downStake",
          "type": "uint256"
        },
        {
          "internalType": "uint256",
          "name": "poolUp",
          "type": "uint256"
        },
        {
          "internalType": "uint256",
          "name": "poolDown",
          "type": "uint256"
        }
      ],
      "name": "calculateTokenReward",
      "outputs": [
        {
          "internalType": "uint256",
          "name": "",
          "type": "uint256"
        }
      ],
      "stateMutability": "view",
      "type": "function"
    },
    {
      "inputs": [
        {
          "internalType": "uint256",
          "name": "windowSize",
          "type": "uint256"
        }
      ],
      "name": "changeWindowSize",
      "outputs": [],
      "stateMutability": "nonpayable",
      "type": "function"
    },
    {
      "inputs": [
        {
          "internalType": "uint256",
          "name": "value",
          "type": "uint256"
        },
        {
          "internalType": "uint256",
          "name": "_fee",
          "type": "uint256"
        }
      ],
      "name": "computeFee",
      "outputs": [
        {
          "internalType": "uint256",
          "name": "betFee",
          "type": "uint256"
        }
      ],
      "stateMutability": "pure",
      "type": "function"
    },
    {
      "inputs": [],
      "name": "fee",
      "outputs": [
        {
          "internalType": "uint256",
          "name": "",
          "type": "uint256"
        }
      ],
      "stateMutability": "view",
      "type": "function"
    },
    {
      "inputs": [],
      "name": "firstBlock",
      "outputs": [
        {
          "internalType": "uint256",
          "name": "",
          "type": "uint256"
        }
      ],
      "stateMutability": "view",
      "type": "function"
    },
    {
      "inputs": [],
      "name": "firstWindow",
      "outputs": [
        {
          "internalType": "uint256",
          "name": "",
          "type": "uint256"
        }
      ],
      "stateMutability": "view",
      "type": "function"
    },
    {
      "inputs": [
        {
          "internalType": "uint256",
          "name": "windowNumber",
          "type": "uint256"
        }
      ],
      "name": "getPoolValues",
      "outputs": [
        {
          "internalType": "uint256",
          "name": "",
          "type": "uint256"
        },
        {
          "internalType": "uint256",
          "name": "",
          "type": "uint256"
        }
      ],
      "stateMutability": "view",
      "type": "function"
    },
    {
      "inputs": [
        {
          "internalType": "address",
          "name": "user",
          "type": "address"
        },
        {
          "internalType": "uint256",
          "name": "index",
          "type": "uint256"
        }
      ],
      "name": "getUserBetList",
      "outputs": [
        {
          "internalType": "uint256",
          "name": "",
          "type": "uint256"
        }
      ],
      "stateMutability": "view",
      "type": "function"
    },
    {
      "inputs": [
        {
          "internalType": "uint256",
          "name": "windowNumber",
          "type": "uint256"
        },
        {
          "internalType": "address",
          "name": "user",
          "type": "address"
        }
      ],
      "name": "getUserStake",
      "outputs": [
        {
          "internalType": "uint256",
          "name": "",
          "type": "uint256"
        },
        {
          "internalType": "uint256",
          "name": "",
          "type": "uint256"
        }
      ],
      "stateMutability": "view",
      "type": "function"
    },
    {
      "inputs": [
        {
          "internalType": "uint256",
          "name": "window",
          "type": "uint256"
        }
      ],
      "name": "getWindowBetPrices",
      "outputs": [
        {
          "internalType": "uint256",
          "name": "",
          "type": "uint256"
        },
        {
          "internalType": "uint256",
          "name": "",
          "type": "uint256"
        }
      ],
      "stateMutability": "view",
      "type": "function"
    },
    {
      "inputs": [
        {
          "internalType": "uint256",
          "name": "currentBlock",
          "type": "uint256"
        },
        {
          "internalType": "uint256",
          "name": "_windowDuration",
          "type": "uint256"
        },
        {
          "internalType": "uint256",
          "name": "_firstBlock",
          "type": "uint256"
        },
        {
          "internalType": "uint256",
          "name": "_windowOffset",
          "type": "uint256"
        },
        {
          "internalType": "uint256",
          "name": "_firstWindow",
          "type": "uint256"
        }
      ],
      "name": "getWindowNumber",
      "outputs": [
        {
          "internalType": "uint256",
          "name": "windowNumber",
          "type": "uint256"
        }
      ],
      "stateMutability": "pure",
      "type": "function"
    },
    {
      "inputs": [
        {
          "internalType": "uint256",
          "name": "windowNumber",
          "type": "uint256"
        },
        {
          "internalType": "uint256",
          "name": "_windowDuration",
          "type": "uint256"
        },
        {
          "internalType": "uint256",
          "name": "_firstBlock",
          "type": "uint256"
        },
        {
          "internalType": "uint256",
          "name": "_windowOffset",
          "type": "uint256"
        }
      ],
      "name": "getWindowStartingBlock",
      "outputs": [
        {
          "internalType": "uint256",
          "name": "startingBlock",
          "type": "uint256"
        }
      ],
      "stateMutability": "pure",
      "type": "function"
    },
    {
      "inputs": [],
      "name": "owner",
      "outputs": [
        {
          "internalType": "address",
          "name": "",
          "type": "address"
        }
      ],
      "stateMutability": "view",
      "type": "function"
    },
    {
      "inputs": [
        {
          "internalType": "uint8",
          "name": "side",
          "type": "uint8"
        }
      ],
      "name": "placeBet",
      "outputs": [],
      "stateMutability": "payable",
      "type": "function"
    },
    {
      "inputs": [
        {
          "internalType": "uint256",
          "name": "",
          "type": "uint256"
        }
      ],
      "name": "pools",
      "outputs": [
        {
          "internalType": "uint64",
          "name": "downValue",
          "type": "uint64"
        },
        {
          "internalType": "uint64",
          "name": "upValue",
          "type": "uint64"
        }
      ],
      "stateMutability": "view",
      "type": "function"
    },
    {
      "inputs": [],
      "name": "renounceOwnership",
      "outputs": [],
      "stateMutability": "nonpayable",
      "type": "function"
    },
    {
      "inputs": [
        {
          "internalType": "uint256",
          "name": "upStake",
          "type": "uint256"
        },
        {
          "internalType": "uint256",
          "name": "downStake",
          "type": "uint256"
        },
        {
          "internalType": "uint256",
          "name": "poolUp",
          "type": "uint256"
        },
        {
          "internalType": "uint256",
          "name": "poolDown",
          "type": "uint256"
        },
        {
          "internalType": "uint8",
          "name": "res",
          "type": "uint8"
        }
      ],
      "name": "settleBet",
      "outputs": [
        {
          "internalType": "uint256",
          "name": "gain",
          "type": "uint256"
        },
        {
          "internalType": "uint256",
          "name": "fees",
          "type": "uint256"
        }
      ],
      "stateMutability": "pure",
      "type": "function"
    },
    {
      "inputs": [
        {
          "internalType": "address",
          "name": "newOwner",
          "type": "address"
        }
      ],
      "name": "transferOwnership",
      "outputs": [],
      "stateMutability": "nonpayable",
      "type": "function"
    },
    {
      "inputs": [
        {
          "internalType": "address",
          "name": "user",
          "type": "address"
        }
      ],
      "name": "updateBalance",
      "outputs": [],
      "stateMutability": "nonpayable",
      "type": "function"
    },
    {
      "inputs": [
        {
          "internalType": "uint64",
          "name": "downValue",
          "type": "uint64"
        },
        {
          "internalType": "uint64",
          "name": "upValue",
          "type": "uint64"
        },
        {
          "internalType": "uint8",
          "name": "side",
          "type": "uint8"
        },
        {
          "internalType": "uint64",
          "name": "value",
          "type": "uint64"
        }
      ],
      "name": "updatePool",
      "outputs": [
        {
          "internalType": "uint64",
          "name": "",
          "type": "uint64"
        },
        {
          "internalType": "uint64",
          "name": "",
          "type": "uint64"
        }
      ],
      "stateMutability": "pure",
      "type": "function"
    },
    {
      "inputs": [],
      "name": "updatePrice",
      "outputs": [],
      "stateMutability": "nonpayable",
      "type": "function"
    },
    {
      "inputs": [
        {
          "internalType": "address",
          "name": "",
          "type": "address"
        },
        {
          "internalType": "uint256",
          "name": "",
          "type": "uint256"
        }
      ],
      "name": "userBets",
      "outputs": [
        {
          "internalType": "uint256",
          "name": "",
          "type": "uint256"
        }
      ],
      "stateMutability": "view",
      "type": "function"
    },
    {
      "inputs": [
        {
          "internalType": "address",
          "name": "",
          "type": "address"
        },
        {
          "internalType": "uint256",
          "name": "",
          "type": "uint256"
        }
      ],
      "name": "userStake",
      "outputs": [
        {
          "internalType": "uint64",
          "name": "downValue",
          "type": "uint64"
        },
        {
          "internalType": "uint64",
          "name": "upValue",
          "type": "uint64"
        }
      ],
      "stateMutability": "view",
      "type": "function"
    },
    {
      "inputs": [],
      "name": "windowDuration",
      "outputs": [
        {
          "internalType": "uint256",
          "name": "",
          "type": "uint256"
        }
      ],
      "stateMutability": "view",
      "type": "function"
    },
    {
      "inputs": [],
      "name": "windowOffset",
      "outputs": [
        {
          "internalType": "uint256",
          "name": "",
          "type": "uint256"
        }
      ],
      "stateMutability": "view",
      "type": "function"
    },
    {
      "inputs": [
        {
          "internalType": "uint256",
          "name": "",
          "type": "uint256"
        }
      ],
      "name": "windowPrice",
      "outputs": [
        {
          "internalType": "uint256",
          "name": "",
          "type": "uint256"
        }
      ],
      "stateMutability": "view",
      "type": "function"
    },
    {
      "inputs": [
        {
          "internalType": "uint256",
          "name": "window",
          "type": "uint256"
        },
        {
          "internalType": "uint256",
          "name": "currentWindow",
          "type": "uint256"
        },
        {
          "internalType": "uint256",
          "name": "initialPrice",
          "type": "uint256"
        },
        {
          "internalType": "uint256",
          "name": "finalPrice",
          "type": "uint256"
        }
      ],
      "name": "windowStatus",
      "outputs": [
        {
          "internalType": "enum BinaryBet.WindowStatus",
          "name": "status",
          "type": "uint8"
        }
      ],
      "stateMutability": "pure",
      "type": "function"
    }
  ],
  "bytecode": "0x60a06040526001600a553480156200001657600080fd5b5060405162001c9538038062001c95833981016040819052620000399162000141565b6200004433620000d4565b60648511156200005357600080fd5b600180546001600160a01b038087166001600160a01b03199283161783554360045560038990556002889055600a9290925560068054868416908316811790915560058054831690911790556007805492851692909116919091179055620000c481670de0b6b3a7640000620001a7565b60805250620001d5945050505050565b600080546001600160a01b038381166001600160a01b0319831681178455604051919092169283917f8be0079c531659141344cd1fd0a4f28419497f9722a3daafe3b4186f6b6457e09190a35050565b80516001600160a01b03811681146200013c57600080fd5b919050565b60008060008060008060c087890312156200015b57600080fd5b8651955060208701519450620001746040880162000124565b9350620001846060880162000124565b9250620001946080880162000124565b915060a087015190509295509295509295565b6000816000190483118215151615620001d057634e487b7160e01b600052601160045260246000fd5b500290565b608051611a9d620001f8600039600081816103f001526110960152611a9d6000f3fe6080604052600436106101d85760003560e01c8063849cd1c711610102578063ca055e5311610095578063e0d65d8711610064578063e0d65d871461064b578063f2fde38b14610678578063f52818f014610698578063f83b35fb146106b857600080fd5b8063ca055e53146105df578063daaac9d2146105ff578063ddca3f431461061f578063e0a5cee31461063557600080fd5b8063a671bd6e116100d1578063a671bd6e14610530578063ac4afa3814610550578063b134894e14610592578063b47a3566146105bf57600080fd5b8063849cd1c71461044857806389b808a7146104685780638da5cb5b1461049e5780639626a230146104c657600080fd5b8063576fe42f1161017a578063715018a611610149578063715018a6146103c957806371a42207146103de5780638068aa6814610412578063809626681461043257600080fd5b8063576fe42f14610368578063587f5ed7146103885780635c11ff7a1461039e578063673a7e28146103b457600080fd5b80632ff284c2116101b65780632ff284c2146102a55780633937ea4f146102c557806340b8405a14610333578063430468441461035557600080fd5b80630eff4d88146101dd5780631bb5abf91461024f578063231b026814610281575b600080fd5b3480156101e957600080fd5b506102356101f8366004611685565b60009081526008602090815260409182902082518084019093525467ffffffffffffffff808216808552600160401b909204169290910182905291565b604080519283526020830191909152015b60405180910390f35b34801561025b57600080fd5b5061026f61026a36600461169e565b6106d8565b60405160ff9091168152602001610246565b34801561028d57600080fd5b5061029760045481565b604051908152602001610246565b3480156102b157600080fd5b506102976102c036600461169e565b610704565b3480156102d157600080fd5b506103126102e03660046116dc565b600d60209081526000928352604080842090915290825290205467ffffffffffffffff80821691600160401b90041682565b6040805167ffffffffffffffff938416815292909116602083015201610246565b34801561033f57600080fd5b5061035361034e366004611706565b610723565b005b610353610363366004611732565b610a63565b34801561037457600080fd5b5061029761038336600461174d565b610d26565b34801561039457600080fd5b50610297600c5481565b3480156103aa57600080fd5b5061029760035481565b3480156103c057600080fd5b50610353610d6e565b3480156103d557600080fd5b50610353610df3565b3480156103ea57600080fd5b506102977f000000000000000000000000000000000000000000000000000000000000000081565b34801561041e57600080fd5b5061029761042d3660046116dc565b610e59565b34801561043e57600080fd5b50610297600b5481565b34801561045457600080fd5b50610297610463366004611788565b610e8a565b34801561047457600080fd5b50610297610483366004611706565b6001600160a01b03166000908152600e602052604090205490565b3480156104aa57600080fd5b506000546040516001600160a01b039091168152602001610246565b3480156104d257600080fd5b506102356104e13660046117ba565b6001600160a01b03166000908152600d602090815260408083209383529281529082902082518084019093525467ffffffffffffffff808216808552600160401b909204169290910182905291565b34801561053c57600080fd5b5061031261054b3660046117fe565b610eb7565b34801561055c57600080fd5b5061031261056b366004611685565b60086020526000908152604090205467ffffffffffffffff80821691600160401b90041682565b34801561059e57600080fd5b506105b26105ad366004611788565b610f1c565b6040516102469190611868565b3480156105cb57600080fd5b506102976105da3660046116dc565b610f80565b3480156105eb57600080fd5b506102356105fa366004611890565b610fbd565b34801561060b57600080fd5b5061029761061a366004611788565b61108f565b34801561062b57600080fd5b5061029760025481565b34801561064157600080fd5b50610297600a5481565b34801561065757600080fd5b50610297610666366004611685565b60096020526000908152604090205481565b34801561068457600080fd5b50610353610693366004611706565b6110ce565b3480156106a457600080fd5b506103536106b3366004611685565b6111ad565b3480156106c457600080fd5b506102356106d3366004611685565b6112c2565b6000828210156106ea575060006106fe565b828211156106fa575060016106fe565b5060025b92915050565b6000606461071283856118ef565b61071c919061190e565b9392505050565b6001600160a01b0381166000908152600e602052604090208054610745575050565b80546000905b8015610a255760008361075f600184611930565b8154811061076f5761076f611947565b90600052602060002001549050600061079343600354600454600b54600a54610d26565b90506000806107a1846112c2565b9150915060006107b385858585610f1c565b905060008160038111156107c9576107c9611852565b14806107e6575060018160038111156107e4576107e4611852565b145b156107f5575050505050610a13565b6000600382600381111561080b5761080b611852565b14156108225761081b84846106d8565b9050610840565b600282600381111561083657610836611852565b1415610840575060025b8854899061085090600190611930565b8154811061086057610860611947565b9060005260206000200154896001896108799190611930565b8154811061088957610889611947565b9060005260206000200181905550888054806108a7576108a761195d565b6000828152602080822083016000199081018390559092019092556001600160a01b038c168252600d81526040808320898452825280832081518083018352905467ffffffffffffffff8082168352600160401b9182900481168386019081528c87526008865284872085518087019096525480831680875293900482169585018690525183519396949585946109449492841693169189610fbd565b9092509050610953828d611973565b9b5080600c546109639190611973565b600c8190555060006109af856020015167ffffffffffffffff16866000015167ffffffffffffffff16866020015167ffffffffffffffff16876000015167ffffffffffffffff1661108f565b90506109bb8f8261130b565b6109c36114f9565b8e6001600160a01b03168b7f1a82fd78981b9465af4b8bd67f27607df5d873b7a978cc8cee1a65b85c2990fc856040516109ff91815260200190565b60405180910390a350505050505050505050505b80610a1d8161198b565b91505061074b565b506040516001600160a01b0384169082156108fc029083906000818181858888f19350505050158015610a5c573d6000803e3d6000fd5b505b505050565b60003411610ab85760405162461bcd60e51b815260206004820152601d60248201527f4f6e6c79207374726963746c7920706f7369746976652076616c75657300000060448201526064015b60405180910390fd5b610ac0610d6e565b610ac933610723565b6000610ad734600254610704565b905080600c54610ae79190611973565b600c556000610af68234611930565b90506000610b0f43600354600454600b54600a54610d26565b336000908152600f6020908152604080832084845290915290205490915060ff16610b7757336000818152600e6020908152604080832080546001818101835591855283852001869055938352600f82528083208584529091529020805460ff191690911790555b600081815260086020908152604080832081518083019092525467ffffffffffffffff808216808452600160401b909204169282018390529092918291610bbf918988610eb7565b60408051808201825267ffffffffffffffff8481168252838116602080840191825260008b8152600882528581209451855493519085166fffffffffffffffffffffffffffffffff1990941693909317600160401b938516840217909455338452600d81528484208b855281529284902084518086019095525480831680865291900490911691830182905293955091935091610c5d918a89610eb7565b60408051808201825267ffffffffffffffff80851682528084166020808401918252336000818152600d83528681208e8252909252908590209351845492518416600160401b026fffffffffffffffffffffffffffffffff1990931693169290921717909155905192955090935086917f560e32e4934b84f33b228f40ddc5b9fa690426ee087005a7d979d7921d24a02b90610d14908a908d9067ffffffffffffffff92909216825260ff16602082015260400190565b60405180910390a35050505050505050565b600083861015610d37575080610d65565b8285610d438689611930565b610d4d919061190e565b610d579190611973565b610d62906001611973565b90505b95945050505050565b6000610d8543600354600454600b54600a54610d26565b600081815260096020526040902054909150610df057610da3611572565b600082815260096020526040908190208290555182917f7a3325b9d11ddc18edd3dff130141b6ce951061520c6b933a604bf701f3d805291610de791815260200190565b60405180910390a25b50565b6000546001600160a01b03163314610e4d5760405162461bcd60e51b815260206004820181905260248201527f4f776e61626c653a2063616c6c6572206973206e6f7420746865206f776e65726044820152606401610aaf565b610e576000611606565b565b600e6020528160005260406000208181548110610e7557600080fd5b90600052602060002001600091509150505481565b60008382610e99600188611930565b610ea39190611930565b610ead91906118ef565b610d659084611973565b60008060008460ff166001811115610ed157610ed1611852565b90506000816001811115610ee757610ee7611852565b1415610f0257610ef784886119a2565b869250925050610f13565b86610f0d85886119a2565b92509250505b94509492505050565b6000610f29856002611973565b841015610f3857506000610f78565b610f43856003611973565b84108015610f4f575081155b15610f5c57506001610f78565b821580610f67575081155b15610f7457506002610f78565b5060035b949350505050565b6001600160a01b0382166000908152600e60205260408120805483908110610faa57610faa611947565b9060005260206000200154905092915050565b60008060008360ff166002811115610fd757610fd7611852565b90506000610fe58688611973565b90506001826002811115610ffb57610ffb611852565b14801561100757508615155b1561101e57611017818a8961166e565b9350611083565b600082600281111561103257611032611852565b14801561103e57508515155b1561104e5761101781898861166e565b600282600281111561106257611062611852565b141561107257611017888a611973565b60009350611080888a611973565b92505b50509550959350505050565b6000610d657f00000000000000000000000000000000000000000000000000000000000000006110bf8688611973565b6110c98587611973565b61166e565b6000546001600160a01b031633146111285760405162461bcd60e51b815260206004820181905260248201527f4f776e61626c653a2063616c6c6572206973206e6f7420746865206f776e65726044820152606401610aaf565b6001600160a01b0381166111a45760405162461bcd60e51b815260206004820152602660248201527f4f776e61626c653a206e6577206f776e657220697320746865207a65726f206160448201527f64647265737300000000000000000000000000000000000000000000000000006064820152608401610aaf565b610df081611606565b6000546001600160a01b031633146112075760405162461bcd60e51b815260206004820181905260248201527f4f776e61626c653a2063616c6c6572206973206e6f7420746865206f776e65726044820152606401610aaf565b6000811161127d5760405162461bcd60e51b815260206004820152602760248201527f77696e646f772073697a652073686f756c64206265207374726963746c79207060448201527f6f736974697665000000000000000000000000000000000000000000000000006064820152608401610aaf565b600061129443600354600454600b54600a54610d26565b90506112b26112a4826001611973565b600354600454600b54610e8a565b600455600b819055600a55600355565b6000806009816112d3856001611973565b815260200190815260200160002054600960008560026112f39190611973565b81526020019081526020016000205491509150915091565b6007546040516370a0823160e01b815230600482015282916001600160a01b0316906370a082319060240160206040518083038186803b15801561134e57600080fd5b505afa158015611362573d6000803e3d6000fd5b505050506040513d601f19601f8201168201806040525081019061138691906119ce565b1061142b576007546040517fa9059cbb0000000000000000000000000000000000000000000000000000000081526001600160a01b038481166004830152602482018490529091169063a9059cbb906044015b602060405180830381600087803b1580156113f357600080fd5b505af1158015611407573d6000803e3d6000fd5b505050506040513d601f19601f82011682018060405250810190610a5e91906119e7565b6007546040516370a0823160e01b81523060048201526001600160a01b039091169063a9059cbb90849083906370a082319060240160206040518083038186803b15801561147857600080fd5b505afa15801561148c573d6000803e3d6000fd5b505050506040513d601f19601f820116820180604052508101906114b091906119ce565b6040517fffffffff0000000000000000000000000000000000000000000000000000000060e085901b1681526001600160a01b03909216600483015260248201526044016113d9565b600c5415610e5757600560009054906101000a90046001600160a01b03166001600160a01b0316625c33e1600c546040518263ffffffff1660e01b81526004016000604051808303818588803b15801561155257600080fd5b505af1158015611566573d6000803e3d6000fd5b50506000600c55505050565b600080600160009054906101000a90046001600160a01b03166001600160a01b031663feaf968c6040518163ffffffff1660e01b815260040160a06040518083038186803b1580156115c357600080fd5b505afa1580156115d7573d6000803e3d6000fd5b505050506040513d601f19601f820116820180604052508101906115fb9190611a23565b509195945050505050565b600080546001600160a01b038381167fffffffffffffffffffffffff0000000000000000000000000000000000000000831681178455604051919092169283917f8be0079c531659141344cd1fd0a4f28419497f9722a3daafe3b4186f6b6457e09190a35050565b60008161167b85856118ef565b610f78919061190e565b60006020828403121561169757600080fd5b5035919050565b600080604083850312156116b157600080fd5b50508035926020909101359150565b80356001600160a01b03811681146116d757600080fd5b919050565b600080604083850312156116ef57600080fd5b6116f8836116c0565b946020939093013593505050565b60006020828403121561171857600080fd5b61071c826116c0565b803560ff811681146116d757600080fd5b60006020828403121561174457600080fd5b61071c82611721565b600080600080600060a0868803121561176557600080fd5b505083359560208501359550604085013594606081013594506080013592509050565b6000806000806080858703121561179e57600080fd5b5050823594602084013594506040840135936060013592509050565b600080604083850312156117cd57600080fd5b823591506117dd602084016116c0565b90509250929050565b803567ffffffffffffffff811681146116d757600080fd5b6000806000806080858703121561181457600080fd5b61181d856117e6565b935061182b602086016117e6565b925061183960408601611721565b9150611847606086016117e6565b905092959194509250565b634e487b7160e01b600052602160045260246000fd5b602081016004831061188a57634e487b7160e01b600052602160045260246000fd5b91905290565b600080600080600060a086880312156118a857600080fd5b853594506020860135935060408601359250606086013591506118cd60808701611721565b90509295509295909350565b634e487b7160e01b600052601160045260246000fd5b6000816000190483118215151615611909576119096118d9565b500290565b60008261192b57634e487b7160e01b600052601260045260246000fd5b500490565b600082821015611942576119426118d9565b500390565b634e487b7160e01b600052603260045260246000fd5b634e487b7160e01b600052603160045260246000fd5b60008219821115611986576119866118d9565b500190565b60008161199a5761199a6118d9565b506000190190565b600067ffffffffffffffff8083168185168083038211156119c5576119c56118d9565b01949350505050565b6000602082840312156119e057600080fd5b5051919050565b6000602082840312156119f957600080fd5b8151801515811461071c57600080fd5b805169ffffffffffffffffffff811681146116d757600080fd5b600080600080600060a08688031215611a3b57600080fd5b611a4486611a09565b94506020860151935060408601519250606086015191506118cd60808701611a0956fea26469706673582212202745ef8cfa4e3222f0977d108839c9e01091fdc5b810687b13d1a20eff53860564736f6c63430008080033",
  "linkReferences": {},
  "deployedLinkReferences": {}
}