{
  "_format": "hh-sol-artifact-1",
  "contractName": "Manager",
  "sourceName": "contracts/Manager.sol",
  "abi": [
    {
      "anonymous": false,
      "inputs": [
        {
          "indexed": false,
          "internalType": "string",
          "name": "assetId",
          "type": "string"
        },
        {
          "indexed": false,
          "internalType": "address",
          "name": "contractAddress",
          "type": "address"
        }
      ],
      "name": "NewAsset",
      "type": "event"
    },
    {
      "anonymous": false,
      "inputs": [
        {
          "indexed": true,
          "internalType": "address",
          "name": "previousOwner",
          "type": "address"
        },
        {
          "indexed": true,
          "internalType": "address",
          "name": "newOwner",
          "type": "address"
        }
      ],
      "name": "OwnershipTransferred",
      "type": "event"
    },
    {
      "inputs": [
        {
          "internalType": "string",
          "name": "asset",
          "type": "string"
        },
        {
          "internalType": "address",
          "name": "contractAddress",
          "type": "address"
        }
      ],
      "name": "addAsset",
      "outputs": [],
      "stateMutability": "nonpayable",
      "type": "function"
    },
    {
      "inputs": [
        {
          "internalType": "uint256",
          "name": "",
          "type": "uint256"
        }
      ],
      "name": "assetContracts",
      "outputs": [
        {
          "internalType": "contract BinaryBet",
          "name": "",
          "type": "address"
        }
      ],
      "stateMutability": "view",
      "type": "function"
    },
    {
      "inputs": [],
      "name": "assetCount",
      "outputs": [
        {
          "internalType": "uint256",
          "name": "",
          "type": "uint256"
        }
      ],
      "stateMutability": "view",
      "type": "function"
    },
    {
      "inputs": [
        {
          "internalType": "string",
          "name": "asset",
          "type": "string"
        }
      ],
      "name": "assetExists",
      "outputs": [
        {
          "internalType": "bool",
          "name": "",
          "type": "bool"
        }
      ],
      "stateMutability": "view",
      "type": "function"
    },
    {
      "inputs": [],
      "name": "claim",
      "outputs": [],
      "stateMutability": "nonpayable",
      "type": "function"
    },
    {
      "inputs": [],
      "name": "owner",
      "outputs": [
        {
          "internalType": "address",
          "name": "",
          "type": "address"
        }
      ],
      "stateMutability": "view",
      "type": "function"
    },
    {
      "inputs": [],
      "name": "renounceOwnership",
      "outputs": [],
      "stateMutability": "nonpayable",
      "type": "function"
    },
    {
      "inputs": [
        {
          "internalType": "address",
          "name": "newOwner",
          "type": "address"
        }
      ],
      "name": "transferOwnership",
      "outputs": [],
      "stateMutability": "nonpayable",
      "type": "function"
    },
    {
      "inputs": [],
      "name": "updatePrice",
      "outputs": [],
      "stateMutability": "nonpayable",
      "type": "function"
    },
    {
      "inputs": [
        {
          "internalType": "address",
          "name": "",
          "type": "address"
        }
      ],
      "name": "usedAddress",
      "outputs": [
        {
          "internalType": "bool",
          "name": "",
          "type": "bool"
        }
      ],
      "stateMutability": "view",
      "type": "function"
    },
    {
      "inputs": [
        {
          "internalType": "bytes32",
          "name": "",
          "type": "bytes32"
        }
      ],
      "name": "usedId",
      "outputs": [
        {
          "internalType": "bool",
          "name": "",
          "type": "bool"
        }
      ],
      "stateMutability": "view",
      "type": "function"
    }
  ],
  "bytecode": "0x608060405234801561001057600080fd5b5061001a3361001f565b61006f565b600080546001600160a01b038381166001600160a01b0319831681178455604051919092169283917f8be0079c531659141344cd1fd0a4f28419497f9722a3daafe3b4186f6b6457e09190a35050565b6109368061007e6000396000f3fe608060405234801561001057600080fd5b50600436106100c95760003560e01c80638e5fa1db11610081578063eafe7a741161005b578063eafe7a741461018e578063ede87e4e1461019f578063f2fde38b146101b257600080fd5b80638e5fa1db14610145578063a7137d0514610158578063adc02a641461017b57600080fd5b8063673a7e28116100b2578063673a7e2814610110578063715018a6146101185780638da5cb5b1461012057600080fd5b80632e455f89146100ce5780634e71d92d14610106575b600080fd5b6100f16100dc366004610739565b60016020526000908152604090205460ff1681565b60405190151581526020015b60405180910390f35b61010e6101c5565b005b61010e61027a565b61010e610326565b6000546001600160a01b03165b6040516001600160a01b0390911681526020016100fd565b61012d610153366004610739565b610391565b6100f161016636600461076e565b60026020526000908152604090205460ff1681565b61010e6101893660046107d9565b6103bb565b6003546040519081526020016100fd565b6100f16101ad36600461082d565b6105c7565b61010e6101c036600461076e565b610601565b60005b60035481101561027757600381815481106101e5576101e561086f565b6000918252602090912001546040517f40b8405a0000000000000000000000000000000000000000000000000000000081523360048201526001600160a01b03909116906340b8405a90602401600060405180830381600087803b15801561024c57600080fd5b505af1158015610260573d6000803e3d6000fd5b50505050808061026f90610885565b9150506101c8565b50565b60005b600354811015610277576003818154811061029a5761029a61086f565b6000918252602082200154604080517f673a7e2800000000000000000000000000000000000000000000000000000000815290516001600160a01b039092169263673a7e289260048084019382900301818387803b1580156102fb57600080fd5b505af115801561030f573d6000803e3d6000fd5b50505050808061031e90610885565b91505061027d565b6000546001600160a01b031633146103855760405162461bcd60e51b815260206004820181905260248201527f4f776e61626c653a2063616c6c6572206973206e6f7420746865206f776e657260448201526064015b60405180910390fd5b61038f60006106dc565b565b600381815481106103a157600080fd5b6000918252602090912001546001600160a01b0316905081565b6000546001600160a01b031633146104155760405162461bcd60e51b815260206004820181905260248201527f4f776e61626c653a2063616c6c6572206973206e6f7420746865206f776e6572604482015260640161037c565b600083836040516104279291906108ae565b604080519182900390912060008181526001602052919091205490915060ff16156104945760405162461bcd60e51b815260206004820152601460248201527f417373657420616c726561647920657869737473000000000000000000000000604482015260640161037c565b6001600160a01b03821660009081526002602052604090205460ff16156104fd5760405162461bcd60e51b815260206004820152601460248201527f4164647265737320616c72656164792075736564000000000000000000000000604482015260640161037c565b6000818152600160208181526040808420805460ff1990811685179091556001600160a01b03871680865260029093528185208054909116841790556003805493840181559093527fc2575a0e9e593c00f959f8c92f12db2869c3395a3b0502d05e2516446f71f85b909101805473ffffffffffffffffffffffffffffffffffffffff19169091179055517f76b150a3f71df5c4a3681e25a477233ac7c0ef5a61999dae086cca9761d9da89906105b9908690869086906108be565b60405180910390a150505050565b60006001600084846040516105dd9291906108ae565b604080519182900390912082526020820192909252016000205460ff169392505050565b6000546001600160a01b0316331461065b5760405162461bcd60e51b815260206004820181905260248201527f4f776e61626c653a2063616c6c6572206973206e6f7420746865206f776e6572604482015260640161037c565b6001600160a01b0381166106d75760405162461bcd60e51b815260206004820152602660248201527f4f776e61626c653a206e6577206f776e657220697320746865207a65726f206160448201527f6464726573730000000000000000000000000000000000000000000000000000606482015260840161037c565b610277815b600080546001600160a01b0383811673ffffffffffffffffffffffffffffffffffffffff19831681178455604051919092169283917f8be0079c531659141344cd1fd0a4f28419497f9722a3daafe3b4186f6b6457e09190a35050565b60006020828403121561074b57600080fd5b5035919050565b80356001600160a01b038116811461076957600080fd5b919050565b60006020828403121561078057600080fd5b61078982610752565b9392505050565b60008083601f8401126107a257600080fd5b50813567ffffffffffffffff8111156107ba57600080fd5b6020830191508360208285010111156107d257600080fd5b9250929050565b6000806000604084860312156107ee57600080fd5b833567ffffffffffffffff81111561080557600080fd5b61081186828701610790565b9094509250610824905060208501610752565b90509250925092565b6000806020838503121561084057600080fd5b823567ffffffffffffffff81111561085757600080fd5b61086385828601610790565b90969095509350505050565b634e487b7160e01b600052603260045260246000fd5b60006000198214156108a757634e487b7160e01b600052601160045260246000fd5b5060010190565b8183823760009101908152919050565b604081528260408201528284606083013760006060848301015260006060601f19601f86011683010190506001600160a01b038316602083015294935050505056fea264697066735822122088ee35d95b11dc12a39de6210ef22e9866fcef94104ab91e84a494aed085af8a64736f6c63430008080033",
  "linkReferences": {},
  "deployedLinkReferences": {}
}