{
  "address": "0xe7f1725E7734CE288F8367e1Bb143E90bb3F0512",
  "abi": [
    {
      "inputs": [
        {
          "internalType": "address",
          "name": "token",
          "type": "address"
        }
      ],
      "stateMutability": "nonpayable",
      "type": "constructor"
    },
    {
      "anonymous": false,
      "inputs": [
        {
          "indexed": true,
          "internalType": "address",
          "name": "user",
          "type": "address"
        },
        {
          "indexed": false,
          "internalType": "uint256",
          "name": "amount",
          "type": "uint256"
        }
      ],
      "name": "Release",
      "type": "event"
    },
    {
      "anonymous": false,
      "inputs": [
        {
          "indexed": true,
          "internalType": "address",
          "name": "user",
          "type": "address"
        },
        {
          "indexed": false,
          "internalType": "uint256",
          "name": "amount",
          "type": "uint256"
        }
      ],
      "name": "Staked",
      "type": "event"
    },
    {
      "anonymous": false,
      "inputs": [
        {
          "indexed": true,
          "internalType": "address",
          "name": "user",
          "type": "address"
        },
        {
          "indexed": false,
          "internalType": "uint256",
          "name": "amount",
          "type": "uint256"
        }
      ],
      "name": "Unstaked",
      "type": "event"
    },
    {
      "inputs": [],
      "name": "accumulatedRewards",
      "outputs": [
        {
          "internalType": "uint256",
          "name": "",
          "type": "uint256"
        }
      ],
      "stateMutability": "view",
      "type": "function"
    },
    {
      "inputs": [],
      "name": "binToken",
      "outputs": [
        {
          "internalType": "contract IERC20",
          "name": "",
          "type": "address"
        }
      ],
      "stateMutability": "view",
      "type": "function"
    },
    {
      "inputs": [
        {
          "internalType": "address",
          "name": "user",
          "type": "address"
        }
      ],
      "name": "ownedDividends",
      "outputs": [
        {
          "internalType": "uint256",
          "name": "",
          "type": "uint256"
        }
      ],
      "stateMutability": "view",
      "type": "function"
    },
    {
      "inputs": [],
      "name": "receiveFunds",
      "outputs": [],
      "stateMutability": "payable",
      "type": "function"
    },
    {
      "inputs": [],
      "name": "release",
      "outputs": [],
      "stateMutability": "nonpayable",
      "type": "function"
    },
    {
      "inputs": [
        {
          "internalType": "uint256",
          "name": "amount",
          "type": "uint256"
        }
      ],
      "name": "stake",
      "outputs": [],
      "stateMutability": "nonpayable",
      "type": "function"
    },
    {
      "inputs": [
        {
          "internalType": "address",
          "name": "",
          "type": "address"
        }
      ],
      "name": "stakingBalance",
      "outputs": [
        {
          "internalType": "uint256",
          "name": "stakedBin",
          "type": "uint256"
        },
        {
          "internalType": "uint256",
          "name": "valueWhenLastReleased",
          "type": "uint256"
        }
      ],
      "stateMutability": "view",
      "type": "function"
    },
    {
      "inputs": [
        {
          "internalType": "uint256",
          "name": "amount",
          "type": "uint256"
        }
      ],
      "name": "unstake",
      "outputs": [],
      "stateMutability": "nonpayable",
      "type": "function"
    }
  ],
  "transactionHash": "0xe74090e944d7215cc507e3184b03ba09ec7fa167c1419e86694c0b1498c183d0",
  "args": [
    "0x5FbDB2315678afecb367f032d93F642f64180aa3"
  ],
  "solcInputHash": "5de23a71d6db47b60e756ea7d2776cf2",
  "bytecode": "0x608060405234801561001057600080fd5b5060405161107f38038061107f833981810160405281019061003291906100ce565b33600160006101000a81548173ffffffffffffffffffffffffffffffffffffffff021916908373ffffffffffffffffffffffffffffffffffffffff160217905550806000806101000a81548173ffffffffffffffffffffffffffffffffffffffff021916908373ffffffffffffffffffffffffffffffffffffffff16021790555050610140565b6000815190506100c881610129565b92915050565b6000602082840312156100e057600080fd5b60006100ee848285016100b9565b91505092915050565b600061010282610109565b9050919050565b600073ffffffffffffffffffffffffffffffffffffffff82169050919050565b610132816100f7565b811461013d57600080fd5b50565b610f308061014f6000396000f3fe60806040526004361061007a5760003560e01c80639c81ff6b1161004e5780639c81ff6b14610107578063a66e456214610132578063a694fc3a1461016f578063fe4fdc4e146101985761007a565b80625c33e11461007f5780632e17de781461008957806345bc78ab146100b257806386d1a69f146100f0575b600080fd5b6100876101c3565b005b34801561009557600080fd5b506100b060048036038101906100ab9190610aac565b6103c9565b005b3480156100be57600080fd5b506100d960048036038101906100d49190610a5a565b61062c565b6040516100e7929190610c9c565b60405180910390f35b3480156100fc57600080fd5b50610105610650565b005b34801561011357600080fd5b5061011c610759565b6040516101299190610c81565b60405180910390f35b34801561013e57600080fd5b5061015960048036038101906101549190610a5a565b61075f565b6040516101669190610c81565b60405180910390f35b34801561017b57600080fd5b5061019660048036038101906101919190610aac565b610802565b005b3480156101a457600080fd5b506101ad6109e2565b6040516101ba9190610c26565b60405180910390f35b600034905060008060009054906101000a900473ffffffffffffffffffffffffffffffffffffffff1673ffffffffffffffffffffffffffffffffffffffff166370a08231306040518263ffffffff1660e01b81526004016102249190610bab565b60206040518083038186803b15801561023c57600080fd5b505afa158015610250573d6000803e3d6000fd5b505050506040513d601f19601f820116820180604052508101906102749190610ad5565b1461035c5760008054906101000a900473ffffffffffffffffffffffffffffffffffffffff1673ffffffffffffffffffffffffffffffffffffffff166370a08231306040518263ffffffff1660e01b81526004016102d29190610bab565b60206040518083038186803b1580156102ea57600080fd5b505afa1580156102fe573d6000803e3d6000fd5b505050506040513d601f19601f820116820180604052508101906103229190610ad5565b6b033b2e3c9fd0803ce80000008261033a9190610d5d565b6103449190610d2c565b6003546103519190610cd6565b6003819055506103c6565b600160009054906101000a900473ffffffffffffffffffffffffffffffffffffffff1673ffffffffffffffffffffffffffffffffffffffff166108fc829081150290604051600060405180830381858888f193505050501580156103c4573d6000803e3d6000fd5b505b50565b6000811161040c576040517f08c379a000000000000000000000000000000000000000000000000000000000815260040161040390610c41565b60405180910390fd5b600260003373ffffffffffffffffffffffffffffffffffffffff1673ffffffffffffffffffffffffffffffffffffffff16815260200190815260200160002060000154811115610491576040517f08c379a000000000000000000000000000000000000000000000000000000000815260040161048890610c61565b60405180910390fd5b610499610650565b80600260003373ffffffffffffffffffffffffffffffffffffffff1673ffffffffffffffffffffffffffffffffffffffff168152602001908152602001600020600001546104e79190610db7565b600260003373ffffffffffffffffffffffffffffffffffffffff1673ffffffffffffffffffffffffffffffffffffffff1681526020019081526020016000206000018190555060008054906101000a900473ffffffffffffffffffffffffffffffffffffffff1673ffffffffffffffffffffffffffffffffffffffff1663a9059cbb33836040518363ffffffff1660e01b8152600401610588929190610bfd565b602060405180830381600087803b1580156105a257600080fd5b505af11580156105b6573d6000803e3d6000fd5b505050506040513d601f19601f820116820180604052508101906105da9190610a83565b503373ffffffffffffffffffffffffffffffffffffffff167f0f5bb82176feb1b5e747e28471aa92156a04d9f3ab9f45f28e2d704232b93f75826040516106219190610c81565b60405180910390a250565b60026020528060005260406000206000915090508060000154908060010154905082565b6000600354141561066057610757565b600061066b3361075f565b9050600354600260003373ffffffffffffffffffffffffffffffffffffffff1673ffffffffffffffffffffffffffffffffffffffff168152602001908152602001600020600101819055506000811115610755573373ffffffffffffffffffffffffffffffffffffffff166108fc829081150290604051600060405180830381858888f19350505050158015610705573d6000803e3d6000fd5b503373ffffffffffffffffffffffffffffffffffffffff167ff6334794522b9db534a812aaae1af828a2e96aac68473b58e36d7d0bfd67477b8260405161074c9190610c81565b60405180910390a25b505b565b60035481565b600080600260008473ffffffffffffffffffffffffffffffffffffffff1673ffffffffffffffffffffffffffffffffffffffff1681526020019081526020016000206040518060400160405290816000820154815260200160018201548152505090506b033b2e3c9fd0803ce800000081602001516003546107e19190610db7565b82600001516107f09190610d5d565b6107fa9190610d2c565b915050919050565b60008111610845576040517f08c379a000000000000000000000000000000000000000000000000000000000815260040161083c90610c41565b60405180910390fd5b61084d610650565b60008054906101000a900473ffffffffffffffffffffffffffffffffffffffff1673ffffffffffffffffffffffffffffffffffffffff166323b872dd3330846040518463ffffffff1660e01b81526004016108aa93929190610bc6565b602060405180830381600087803b1580156108c457600080fd5b505af11580156108d8573d6000803e3d6000fd5b505050506040513d601f19601f820116820180604052508101906108fc9190610a83565b5080600260003373ffffffffffffffffffffffffffffffffffffffff1673ffffffffffffffffffffffffffffffffffffffff1681526020019081526020016000206000015461094b9190610cd6565b600260003373ffffffffffffffffffffffffffffffffffffffff1673ffffffffffffffffffffffffffffffffffffffff168152602001908152602001600020600001819055503373ffffffffffffffffffffffffffffffffffffffff167f9e71bc8eea02a63969f509818f2dafb9254532904319f9dbda79b67bd34a5f3d826040516109d79190610c81565b60405180910390a250565b60008054906101000a900473ffffffffffffffffffffffffffffffffffffffff1681565b600081359050610a1581610eb5565b92915050565b600081519050610a2a81610ecc565b92915050565b600081359050610a3f81610ee3565b92915050565b600081519050610a5481610ee3565b92915050565b600060208284031215610a6c57600080fd5b6000610a7a84828501610a06565b91505092915050565b600060208284031215610a9557600080fd5b6000610aa384828501610a1b565b91505092915050565b600060208284031215610abe57600080fd5b6000610acc84828501610a30565b91505092915050565b600060208284031215610ae757600080fd5b6000610af584828501610a45565b91505092915050565b610b0781610deb565b82525050565b610b1681610e33565b82525050565b6000610b29601f83610cc5565b91507f416d6f756e742073686f756c642062652067726561746572207468616e2030006000830152602082019050919050565b6000610b69602083610cc5565b91507f43616e6e6f7420756e7374616b65206d6f7265207468616e2062616c616e63656000830152602082019050919050565b610ba581610e29565b82525050565b6000602082019050610bc06000830184610afe565b92915050565b6000606082019050610bdb6000830186610afe565b610be86020830185610afe565b610bf56040830184610b9c565b949350505050565b6000604082019050610c126000830185610afe565b610c1f6020830184610b9c565b9392505050565b6000602082019050610c3b6000830184610b0d565b92915050565b60006020820190508181036000830152610c5a81610b1c565b9050919050565b60006020820190508181036000830152610c7a81610b5c565b9050919050565b6000602082019050610c966000830184610b9c565b92915050565b6000604082019050610cb16000830185610b9c565b610cbe6020830184610b9c565b9392505050565b600082825260208201905092915050565b6000610ce182610e29565b9150610cec83610e29565b9250827fffffffffffffffffffffffffffffffffffffffffffffffffffffffffffffffff03821115610d2157610d20610e57565b5b828201905092915050565b6000610d3782610e29565b9150610d4283610e29565b925082610d5257610d51610e86565b5b828204905092915050565b6000610d6882610e29565b9150610d7383610e29565b9250817fffffffffffffffffffffffffffffffffffffffffffffffffffffffffffffffff0483118215151615610dac57610dab610e57565b5b828202905092915050565b6000610dc282610e29565b9150610dcd83610e29565b925082821015610de057610ddf610e57565b5b828203905092915050565b6000610df682610e09565b9050919050565b60008115159050919050565b600073ffffffffffffffffffffffffffffffffffffffff82169050919050565b6000819050919050565b6000610e3e82610e45565b9050919050565b6000610e5082610e09565b9050919050565b7f4e487b7100000000000000000000000000000000000000000000000000000000600052601160045260246000fd5b7f4e487b7100000000000000000000000000000000000000000000000000000000600052601260045260246000fd5b610ebe81610deb565b8114610ec957600080fd5b50565b610ed581610dfd565b8114610ee057600080fd5b50565b610eec81610e29565b8114610ef757600080fd5b5056fea2646970667358221220c77627f900350a4a8692ce974b2b2f7c56deef1dc98dac77e536700715aaaf7064736f6c63430008000033",
  "devdoc": {
    "kind": "dev",
    "methods": {},
    "version": 1
  },
  "userdoc": {
    "kind": "user",
    "methods": {},
    "version": 1
  },
  "storageLayout": {
    "storage": [
      {
        "astId": 2002,
        "contract": "contracts/BinaryStaking.sol:BinaryStaking",
        "label": "binToken",
        "offset": 0,
        "slot": "0",
        "type": "t_contract(IERC20)669"
      },
      {
        "astId": 2007,
        "contract": "contracts/BinaryStaking.sol:BinaryStaking",
        "label": "owner",
        "offset": 0,
        "slot": "1",
        "type": "t_address_payable"
      },
      {
        "astId": 2017,
        "contract": "contracts/BinaryStaking.sol:BinaryStaking",
        "label": "stakingBalance",
        "offset": 0,
        "slot": "2",
        "type": "t_mapping(t_address,t_struct(StakingAccount)2012_storage)"
      },
      {
        "astId": 2019,
        "contract": "contracts/BinaryStaking.sol:BinaryStaking",
        "label": "accumulatedRewards",
        "offset": 0,
        "slot": "3",
        "type": "t_uint256"
      }
    ],
    "types": {
      "t_address": {
        "encoding": "inplace",
        "label": "address",
        "numberOfBytes": "20"
      },
      "t_address_payable": {
        "encoding": "inplace",
        "label": "address payable",
        "numberOfBytes": "20"
      },
      "t_contract(IERC20)669": {
        "encoding": "inplace",
        "label": "contract IERC20",
        "numberOfBytes": "20"
      },
      "t_mapping(t_address,t_struct(StakingAccount)2012_storage)": {
        "encoding": "mapping",
        "key": "t_address",
        "label": "mapping(address => struct BinaryStaking.StakingAccount)",
        "numberOfBytes": "32",
        "value": "t_struct(StakingAccount)2012_storage"
      },
      "t_struct(StakingAccount)2012_storage": {
        "encoding": "inplace",
        "label": "struct BinaryStaking.StakingAccount",
        "members": [
          {
            "astId": 2009,
            "contract": "contracts/BinaryStaking.sol:BinaryStaking",
            "label": "stakedBin",
            "offset": 0,
            "slot": "0",
            "type": "t_uint256"
          },
          {
            "astId": 2011,
            "contract": "contracts/BinaryStaking.sol:BinaryStaking",
            "label": "valueWhenLastReleased",
            "offset": 0,
            "slot": "1",
            "type": "t_uint256"
          }
        ],
        "numberOfBytes": "64"
      },
      "t_uint256": {
        "encoding": "inplace",
        "label": "uint256",
        "numberOfBytes": "32"
      }
    }
  }
}