{
  "address": "0x5FbDB2315678afecb367f032d93F642f64180aa3",
  "abi": [
    {
      "inputs": [],
      "stateMutability": "nonpayable",
      "type": "constructor"
    },
    {
      "anonymous": false,
      "inputs": [
        {
          "indexed": true,
          "internalType": "address",
          "name": "owner",
          "type": "address"
        },
        {
          "indexed": true,
          "internalType": "address",
          "name": "spender",
          "type": "address"
        },
        {
          "indexed": false,
          "internalType": "uint256",
          "name": "value",
          "type": "uint256"
        }
      ],
      "name": "Approval",
      "type": "event"
    },
    {
      "anonymous": false,
      "inputs": [
        {
          "indexed": true,
          "internalType": "address",
          "name": "from",
          "type": "address"
        },
        {
          "indexed": true,
          "internalType": "address",
          "name": "to",
          "type": "address"
        },
        {
          "indexed": false,
          "internalType": "uint256",
          "name": "value",
          "type": "uint256"
        }
      ],
      "name": "Transfer",
      "type": "event"
    },
    {
      "inputs": [],
      "name": "DECIMALS",
      "outputs": [
        {
          "internalType": "uint8",
          "name": "",
          "type": "uint8"
        }
      ],
      "stateMutability": "view",
      "type": "function"
    },
    {
      "inputs": [],
      "name": "INITIAL_SUPPLY",
      "outputs": [
        {
          "internalType": "uint256",
          "name": "",
          "type": "uint256"
        }
      ],
      "stateMutability": "view",
      "type": "function"
    },
    {
      "inputs": [],
      "name": "NAME",
      "outputs": [
        {
          "internalType": "string",
          "name": "",
          "type": "string"
        }
      ],
      "stateMutability": "view",
      "type": "function"
    },
    {
      "inputs": [],
      "name": "SYMBOL",
      "outputs": [
        {
          "internalType": "string",
          "name": "",
          "type": "string"
        }
      ],
      "stateMutability": "view",
      "type": "function"
    },
    {
      "inputs": [
        {
          "internalType": "address",
          "name": "owner",
          "type": "address"
        },
        {
          "internalType": "address",
          "name": "spender",
          "type": "address"
        }
      ],
      "name": "allowance",
      "outputs": [
        {
          "internalType": "uint256",
          "name": "",
          "type": "uint256"
        }
      ],
      "stateMutability": "view",
      "type": "function"
    },
    {
      "inputs": [
        {
          "internalType": "address",
          "name": "spender",
          "type": "address"
        },
        {
          "internalType": "uint256",
          "name": "amount",
          "type": "uint256"
        }
      ],
      "name": "approve",
      "outputs": [
        {
          "internalType": "bool",
          "name": "",
          "type": "bool"
        }
      ],
      "stateMutability": "nonpayable",
      "type": "function"
    },
    {
      "inputs": [
        {
          "internalType": "address",
          "name": "account",
          "type": "address"
        }
      ],
      "name": "balanceOf",
      "outputs": [
        {
          "internalType": "uint256",
          "name": "",
          "type": "uint256"
        }
      ],
      "stateMutability": "view",
      "type": "function"
    },
    {
      "inputs": [],
      "name": "decimals",
      "outputs": [
        {
          "internalType": "uint8",
          "name": "",
          "type": "uint8"
        }
      ],
      "stateMutability": "view",
      "type": "function"
    },
    {
      "inputs": [
        {
          "internalType": "address",
          "name": "spender",
          "type": "address"
        },
        {
          "internalType": "uint256",
          "name": "subtractedValue",
          "type": "uint256"
        }
      ],
      "name": "decreaseAllowance",
      "outputs": [
        {
          "internalType": "bool",
          "name": "",
          "type": "bool"
        }
      ],
      "stateMutability": "nonpayable",
      "type": "function"
    },
    {
      "inputs": [
        {
          "internalType": "address",
          "name": "spender",
          "type": "address"
        },
        {
          "internalType": "uint256",
          "name": "addedValue",
          "type": "uint256"
        }
      ],
      "name": "increaseAllowance",
      "outputs": [
        {
          "internalType": "bool",
          "name": "",
          "type": "bool"
        }
      ],
      "stateMutability": "nonpayable",
      "type": "function"
    },
    {
      "inputs": [],
      "name": "name",
      "outputs": [
        {
          "internalType": "string",
          "name": "",
          "type": "string"
        }
      ],
      "stateMutability": "view",
      "type": "function"
    },
    {
      "inputs": [],
      "name": "symbol",
      "outputs": [
        {
          "internalType": "string",
          "name": "",
          "type": "string"
        }
      ],
      "stateMutability": "view",
      "type": "function"
    },
    {
      "inputs": [],
      "name": "totalSupply",
      "outputs": [
        {
          "internalType": "uint256",
          "name": "",
          "type": "uint256"
        }
      ],
      "stateMutability": "view",
      "type": "function"
    },
    {
      "inputs": [
        {
          "internalType": "address",
          "name": "recipient",
          "type": "address"
        },
        {
          "internalType": "uint256",
          "name": "amount",
          "type": "uint256"
        }
      ],
      "name": "transfer",
      "outputs": [
        {
          "internalType": "bool",
          "name": "",
          "type": "bool"
        }
      ],
      "stateMutability": "nonpayable",
      "type": "function"
    },
    {
      "inputs": [
        {
          "internalType": "address",
          "name": "sender",
          "type": "address"
        },
        {
          "internalType": "address",
          "name": "recipient",
          "type": "address"
        },
        {
          "internalType": "uint256",
          "name": "amount",
          "type": "uint256"
        }
      ],
      "name": "transferFrom",
      "outputs": [
        {
          "internalType": "bool",
          "name": "",
          "type": "bool"
        }
      ],
      "stateMutability": "nonpayable",
      "type": "function"
    }
  ],
  "transactionHash": "0xbb8dbfbd80d8d25b35a4e487a790f70a028c228915613caa99fe4c147958e194",
  "args": [],
  "solcInputHash": "5de23a71d6db47b60e756ea7d2776cf2",
  "bytecode": "0x60806040523480156200001157600080fd5b506040518060400160405280600581526020017f4b495454590000000000000000000000000000000000000000000000000000008152506040518060400160405280600581526020017f4b4954545900000000000000000000000000000000000000000000000000000081525081600390805190602001906200009692919062000270565b508060049080519060200190620000af92919062000270565b505050620000e733601260ff16600a620000ca91906200047b565b6305f5e100620000db9190620005b8565b620000ed60201b60201c565b620006c4565b600073ffffffffffffffffffffffffffffffffffffffff168273ffffffffffffffffffffffffffffffffffffffff16141562000160576040517f08c379a0000000000000000000000000000000000000000000000000000000008152600401620001579062000373565b60405180910390fd5b62000174600083836200026660201b60201c565b8060026000828254620001889190620003c3565b92505081905550806000808473ffffffffffffffffffffffffffffffffffffffff1673ffffffffffffffffffffffffffffffffffffffff1681526020019081526020016000206000828254620001df9190620003c3565b925050819055508173ffffffffffffffffffffffffffffffffffffffff16600073ffffffffffffffffffffffffffffffffffffffff167fddf252ad1be2c89b69c2b068fc378daa952ba7f163c4a11628f55a4df523b3ef8360405162000246919062000395565b60405180910390a362000262600083836200026b60201b60201c565b5050565b505050565b505050565b8280546200027e9062000623565b90600052602060002090601f016020900481019282620002a25760008555620002ee565b82601f10620002bd57805160ff1916838001178555620002ee565b82800160010185558215620002ee579182015b82811115620002ed578251825591602001919060010190620002d0565b5b509050620002fd919062000301565b5090565b5b808211156200031c57600081600090555060010162000302565b5090565b60006200032f601f83620003b2565b91507f45524332303a206d696e7420746f20746865207a65726f2061646472657373006000830152602082019050919050565b6200036d8162000619565b82525050565b600060208201905081810360008301526200038e8162000320565b9050919050565b6000602082019050620003ac600083018462000362565b92915050565b600082825260208201905092915050565b6000620003d08262000619565b9150620003dd8362000619565b9250827fffffffffffffffffffffffffffffffffffffffffffffffffffffffffffffffff0382111562000415576200041462000659565b5b828201905092915050565b6000808291508390505b600185111562000472578086048111156200044a576200044962000659565b5b60018516156200045a5780820291505b80810290506200046a85620006b7565b94506200042a565b94509492505050565b6000620004888262000619565b9150620004958362000619565b9250620004c47fffffffffffffffffffffffffffffffffffffffffffffffffffffffffffffffff8484620004cc565b905092915050565b600082620004de5760019050620005b1565b81620004ee5760009050620005b1565b8160018114620005075760028114620005125762000548565b6001915050620005b1565b60ff84111562000527576200052662000659565b5b8360020a91508482111562000541576200054062000659565b5b50620005b1565b5060208310610133831016604e8410600b8410161715620005825782820a9050838111156200057c576200057b62000659565b5b620005b1565b62000591848484600162000420565b92509050818404811115620005ab57620005aa62000659565b5b81810290505b9392505050565b6000620005c58262000619565b9150620005d28362000619565b9250817fffffffffffffffffffffffffffffffffffffffffffffffffffffffffffffffff04831182151516156200060e576200060d62000659565b5b828202905092915050565b6000819050919050565b600060028204905060018216806200063c57607f821691505b6020821081141562000653576200065262000688565b5b50919050565b7f4e487b7100000000000000000000000000000000000000000000000000000000600052601160045260246000fd5b7f4e487b7100000000000000000000000000000000000000000000000000000000600052602260045260246000fd5b60008160011c9050919050565b61167780620006d46000396000f3fe608060405234801561001057600080fd5b50600436106100f55760003560e01c80633950935111610097578063a457c2d711610066578063a457c2d71461028c578063a9059cbb146102bc578063dd62ed3e146102ec578063f76f8d781461031c576100f5565b806339509351146101f057806370a082311461022057806395d89b4114610250578063a3f4df7e1461026e576100f5565b806323b872dd116100d357806323b872dd146101665780632e0f2625146101965780632ff2e9dc146101b4578063313ce567146101d2576100f5565b806306fdde03146100fa578063095ea7b31461011857806318160ddd14610148575b600080fd5b61010261033a565b60405161010f9190611168565b60405180910390f35b610132600480360381019061012d9190610de1565b6103cc565b60405161013f919061114d565b60405180910390f35b6101506103ea565b60405161015d919061126a565b60405180910390f35b610180600480360381019061017b9190610d92565b6103f4565b60405161018d919061114d565b60405180910390f35b61019e6104ec565b6040516101ab9190611285565b60405180910390f35b6101bc6104f1565b6040516101c9919061126a565b60405180910390f35b6101da610514565b6040516101e79190611285565b60405180910390f35b61020a60048036038101906102059190610de1565b61051d565b604051610217919061114d565b60405180910390f35b61023a60048036038101906102359190610d2d565b6105c9565b604051610247919061126a565b60405180910390f35b610258610611565b6040516102659190611168565b60405180910390f35b6102766106a3565b6040516102839190611168565b60405180910390f35b6102a660048036038101906102a19190610de1565b6106dc565b6040516102b3919061114d565b60405180910390f35b6102d660048036038101906102d19190610de1565b6107c7565b6040516102e3919061114d565b60405180910390f35b61030660048036038101906103019190610d56565b6107e5565b604051610313919061126a565b60405180910390f35b61032461086c565b6040516103319190611168565b60405180910390f35b60606003805461034990611565565b80601f016020809104026020016040519081016040528092919081815260200182805461037590611565565b80156103c25780601f10610397576101008083540402835291602001916103c2565b820191906000526020600020905b8154815290600101906020018083116103a557829003601f168201915b5050505050905090565b60006103e06103d96108a5565b84846108ad565b6001905092915050565b6000600254905090565b6000610401848484610a78565b6000600160008673ffffffffffffffffffffffffffffffffffffffff1673ffffffffffffffffffffffffffffffffffffffff168152602001908152602001600020600061044c6108a5565b73ffffffffffffffffffffffffffffffffffffffff1673ffffffffffffffffffffffffffffffffffffffff168152602001908152602001600020549050828110156104cc576040517f08c379a00000000000000000000000000000000000000000000000000000000081526004016104c3906111ea565b60405180910390fd5b6104e0856104d86108a5565b8584036108ad565b60019150509392505050565b601281565b601260ff16600a6105029190611365565b6305f5e1006105119190611483565b81565b60006012905090565b60006105bf61052a6108a5565b8484600160006105386108a5565b73ffffffffffffffffffffffffffffffffffffffff1673ffffffffffffffffffffffffffffffffffffffff16815260200190815260200160002060008873ffffffffffffffffffffffffffffffffffffffff1673ffffffffffffffffffffffffffffffffffffffff168152602001908152602001600020546105ba91906112bc565b6108ad565b6001905092915050565b60008060008373ffffffffffffffffffffffffffffffffffffffff1673ffffffffffffffffffffffffffffffffffffffff168152602001908152602001600020549050919050565b60606004805461062090611565565b80601f016020809104026020016040519081016040528092919081815260200182805461064c90611565565b80156106995780601f1061066e57610100808354040283529160200191610699565b820191906000526020600020905b81548152906001019060200180831161067c57829003601f168201915b5050505050905090565b6040518060400160405280600581526020017f4b4954545900000000000000000000000000000000000000000000000000000081525081565b600080600160006106eb6108a5565b73ffffffffffffffffffffffffffffffffffffffff1673ffffffffffffffffffffffffffffffffffffffff16815260200190815260200160002060008573ffffffffffffffffffffffffffffffffffffffff1673ffffffffffffffffffffffffffffffffffffffff168152602001908152602001600020549050828110156107a8576040517f08c379a000000000000000000000000000000000000000000000000000000000815260040161079f9061124a565b60405180910390fd5b6107bc6107b36108a5565b858584036108ad565b600191505092915050565b60006107db6107d46108a5565b8484610a78565b6001905092915050565b6000600160008473ffffffffffffffffffffffffffffffffffffffff1673ffffffffffffffffffffffffffffffffffffffff16815260200190815260200160002060008373ffffffffffffffffffffffffffffffffffffffff1673ffffffffffffffffffffffffffffffffffffffff16815260200190815260200160002054905092915050565b6040518060400160405280600581526020017f4b4954545900000000000000000000000000000000000000000000000000000081525081565b600033905090565b600073ffffffffffffffffffffffffffffffffffffffff168373ffffffffffffffffffffffffffffffffffffffff16141561091d576040517f08c379a00000000000000000000000000000000000000000000000000000000081526004016109149061122a565b60405180910390fd5b600073ffffffffffffffffffffffffffffffffffffffff168273ffffffffffffffffffffffffffffffffffffffff16141561098d576040517f08c379a0000000000000000000000000000000000000000000000000000000008152600401610984906111aa565b60405180910390fd5b80600160008573ffffffffffffffffffffffffffffffffffffffff1673ffffffffffffffffffffffffffffffffffffffff16815260200190815260200160002060008473ffffffffffffffffffffffffffffffffffffffff1673ffffffffffffffffffffffffffffffffffffffff168152602001908152602001600020819055508173ffffffffffffffffffffffffffffffffffffffff168373ffffffffffffffffffffffffffffffffffffffff167f8c5be1e5ebec7d5bd14f71427d1e84f3dd0314c0f7b2291e5b200ac8c7c3b92583604051610a6b919061126a565b60405180910390a3505050565b600073ffffffffffffffffffffffffffffffffffffffff168373ffffffffffffffffffffffffffffffffffffffff161415610ae8576040517f08c379a0000000000000000000000000000000000000000000000000000000008152600401610adf9061120a565b60405180910390fd5b600073ffffffffffffffffffffffffffffffffffffffff168273ffffffffffffffffffffffffffffffffffffffff161415610b58576040517f08c379a0000000000000000000000000000000000000000000000000000000008152600401610b4f9061118a565b60405180910390fd5b610b63838383610cf9565b60008060008573ffffffffffffffffffffffffffffffffffffffff1673ffffffffffffffffffffffffffffffffffffffff16815260200190815260200160002054905081811015610be9576040517f08c379a0000000000000000000000000000000000000000000000000000000008152600401610be0906111ca565b60405180910390fd5b8181036000808673ffffffffffffffffffffffffffffffffffffffff1673ffffffffffffffffffffffffffffffffffffffff16815260200190815260200160002081905550816000808573ffffffffffffffffffffffffffffffffffffffff1673ffffffffffffffffffffffffffffffffffffffff1681526020019081526020016000206000828254610c7c91906112bc565b925050819055508273ffffffffffffffffffffffffffffffffffffffff168473ffffffffffffffffffffffffffffffffffffffff167fddf252ad1be2c89b69c2b068fc378daa952ba7f163c4a11628f55a4df523b3ef84604051610ce0919061126a565b60405180910390a3610cf3848484610cfe565b50505050565b505050565b505050565b600081359050610d1281611613565b92915050565b600081359050610d278161162a565b92915050565b600060208284031215610d3f57600080fd5b6000610d4d84828501610d03565b91505092915050565b60008060408385031215610d6957600080fd5b6000610d7785828601610d03565b9250506020610d8885828601610d03565b9150509250929050565b600080600060608486031215610da757600080fd5b6000610db586828701610d03565b9350506020610dc686828701610d03565b9250506040610dd786828701610d18565b9150509250925092565b60008060408385031215610df457600080fd5b6000610e0285828601610d03565b9250506020610e1385828601610d18565b9150509250929050565b610e26816114ef565b82525050565b6000610e37826112a0565b610e4181856112ab565b9350610e51818560208601611532565b610e5a816115f5565b840191505092915050565b6000610e726023836112ab565b91507f45524332303a207472616e7366657220746f20746865207a65726f206164647260008301527f65737300000000000000000000000000000000000000000000000000000000006020830152604082019050919050565b6000610ed86022836112ab565b91507f45524332303a20617070726f766520746f20746865207a65726f20616464726560008301527f73730000000000000000000000000000000000000000000000000000000000006020830152604082019050919050565b6000610f3e6026836112ab565b91507f45524332303a207472616e7366657220616d6f756e742065786365656473206260008301527f616c616e636500000000000000000000000000000000000000000000000000006020830152604082019050919050565b6000610fa46028836112ab565b91507f45524332303a207472616e7366657220616d6f756e742065786365656473206160008301527f6c6c6f77616e63650000000000000000000000000000000000000000000000006020830152604082019050919050565b600061100a6025836112ab565b91507f45524332303a207472616e736665722066726f6d20746865207a65726f20616460008301527f64726573730000000000000000000000000000000000000000000000000000006020830152604082019050919050565b60006110706024836112ab565b91507f45524332303a20617070726f76652066726f6d20746865207a65726f2061646460008301527f72657373000000000000000000000000000000000000000000000000000000006020830152604082019050919050565b60006110d66025836112ab565b91507f45524332303a2064656372656173656420616c6c6f77616e63652062656c6f7760008301527f207a65726f0000000000000000000000000000000000000000000000000000006020830152604082019050919050565b6111388161151b565b82525050565b61114781611525565b82525050565b60006020820190506111626000830184610e1d565b92915050565b600060208201905081810360008301526111828184610e2c565b905092915050565b600060208201905081810360008301526111a381610e65565b9050919050565b600060208201905081810360008301526111c381610ecb565b9050919050565b600060208201905081810360008301526111e381610f31565b9050919050565b6000602082019050818103600083015261120381610f97565b9050919050565b6000602082019050818103600083015261122381610ffd565b9050919050565b6000602082019050818103600083015261124381611063565b9050919050565b60006020820190508181036000830152611263816110c9565b9050919050565b600060208201905061127f600083018461112f565b92915050565b600060208201905061129a600083018461113e565b92915050565b600081519050919050565b600082825260208201905092915050565b60006112c78261151b565b91506112d28361151b565b9250827fffffffffffffffffffffffffffffffffffffffffffffffffffffffffffffffff0382111561130757611306611597565b5b828201905092915050565b6000808291508390505b600185111561135c5780860481111561133857611337611597565b5b60018516156113475780820291505b808102905061135585611606565b945061131c565b94509492505050565b60006113708261151b565b915061137b8361151b565b92506113a87fffffffffffffffffffffffffffffffffffffffffffffffffffffffffffffffff84846113b0565b905092915050565b6000826113c0576001905061147c565b816113ce576000905061147c565b81600181146113e457600281146113ee5761141d565b600191505061147c565b60ff841115611400576113ff611597565b5b8360020a91508482111561141757611416611597565b5b5061147c565b5060208310610133831016604e8410600b84101617156114525782820a90508381111561144d5761144c611597565b5b61147c565b61145f8484846001611312565b9250905081840481111561147657611475611597565b5b81810290505b9392505050565b600061148e8261151b565b91506114998361151b565b9250817fffffffffffffffffffffffffffffffffffffffffffffffffffffffffffffffff04831182151516156114d2576114d1611597565b5b828202905092915050565b60006114e8826114fb565b9050919050565b60008115159050919050565b600073ffffffffffffffffffffffffffffffffffffffff82169050919050565b6000819050919050565b600060ff82169050919050565b60005b83811015611550578082015181840152602081019050611535565b8381111561155f576000848401525b50505050565b6000600282049050600182168061157d57607f821691505b60208210811415611591576115906115c6565b5b50919050565b7f4e487b7100000000000000000000000000000000000000000000000000000000600052601160045260246000fd5b7f4e487b7100000000000000000000000000000000000000000000000000000000600052602260045260246000fd5b6000601f19601f8301169050919050565b60008160011c9050919050565b61161c816114dd565b811461162757600080fd5b50565b6116338161151b565b811461163e57600080fd5b5056fea26469706673582212205c0498cf599880461e4a922d3769eb122d07b59cc58bcd54eb9d07a9b334ebf664736f6c63430008000033",
  "devdoc": {
    "kind": "dev",
    "methods": {
      "allowance(address,address)": {
        "details": "See {IERC20-allowance}."
      },
      "approve(address,uint256)": {
        "details": "See {IERC20-approve}. Requirements: - `spender` cannot be the zero address."
      },
      "balanceOf(address)": {
        "details": "See {IERC20-balanceOf}."
      },
      "decimals()": {
        "details": "Returns the number of decimals used to get its user representation. For example, if `decimals` equals `2`, a balance of `505` tokens should be displayed to a user as `5,05` (`505 / 10 ** 2`). Tokens usually opt for a value of 18, imitating the relationship between Ether and Wei. This is the value {ERC20} uses, unless this function is overridden; NOTE: This information is only used for _display_ purposes: it in no way affects any of the arithmetic of the contract, including {IERC20-balanceOf} and {IERC20-transfer}."
      },
      "decreaseAllowance(address,uint256)": {
        "details": "Atomically decreases the allowance granted to `spender` by the caller. This is an alternative to {approve} that can be used as a mitigation for problems described in {IERC20-approve}. Emits an {Approval} event indicating the updated allowance. Requirements: - `spender` cannot be the zero address. - `spender` must have allowance for the caller of at least `subtractedValue`."
      },
      "increaseAllowance(address,uint256)": {
        "details": "Atomically increases the allowance granted to `spender` by the caller. This is an alternative to {approve} that can be used as a mitigation for problems described in {IERC20-approve}. Emits an {Approval} event indicating the updated allowance. Requirements: - `spender` cannot be the zero address."
      },
      "name()": {
        "details": "Returns the name of the token."
      },
      "symbol()": {
        "details": "Returns the symbol of the token, usually a shorter version of the name."
      },
      "totalSupply()": {
        "details": "See {IERC20-totalSupply}."
      },
      "transfer(address,uint256)": {
        "details": "See {IERC20-transfer}. Requirements: - `recipient` cannot be the zero address. - the caller must have a balance of at least `amount`."
      },
      "transferFrom(address,address,uint256)": {
        "details": "See {IERC20-transferFrom}. Emits an {Approval} event indicating the updated allowance. This is not required by the EIP. See the note at the beginning of {ERC20}. Requirements: - `sender` and `recipient` cannot be the zero address. - `sender` must have a balance of at least `amount`. - the caller must have allowance for ``sender``'s tokens of at least `amount`."
      }
    },
    "version": 1
  },
  "userdoc": {
    "kind": "user",
    "methods": {},
    "version": 1
  },
  "storageLayout": {
    "storage": [
      {
        "astId": 61,
        "contract": "contracts/BinToken.sol:BinToken",
        "label": "_balances",
        "offset": 0,
        "slot": "0",
        "type": "t_mapping(t_address,t_uint256)"
      },
      {
        "astId": 67,
        "contract": "contracts/BinToken.sol:BinToken",
        "label": "_allowances",
        "offset": 0,
        "slot": "1",
        "type": "t_mapping(t_address,t_mapping(t_address,t_uint256))"
      },
      {
        "astId": 69,
        "contract": "contracts/BinToken.sol:BinToken",
        "label": "_totalSupply",
        "offset": 0,
        "slot": "2",
        "type": "t_uint256"
      },
      {
        "astId": 71,
        "contract": "contracts/BinToken.sol:BinToken",
        "label": "_name",
        "offset": 0,
        "slot": "3",
        "type": "t_string_storage"
      },
      {
        "astId": 73,
        "contract": "contracts/BinToken.sol:BinToken",
        "label": "_symbol",
        "offset": 0,
        "slot": "4",
        "type": "t_string_storage"
      },
      {
        "astId": 746,
        "contract": "contracts/BinToken.sol:BinToken",
        "label": "allowed",
        "offset": 0,
        "slot": "5",
        "type": "t_mapping(t_address,t_mapping(t_address,t_uint256))"
      }
    ],
    "types": {
      "t_address": {
        "encoding": "inplace",
        "label": "address",
        "numberOfBytes": "20"
      },
      "t_mapping(t_address,t_mapping(t_address,t_uint256))": {
        "encoding": "mapping",
        "key": "t_address",
        "label": "mapping(address => mapping(address => uint256))",
        "numberOfBytes": "32",
        "value": "t_mapping(t_address,t_uint256)"
      },
      "t_mapping(t_address,t_uint256)": {
        "encoding": "mapping",
        "key": "t_address",
        "label": "mapping(address => uint256)",
        "numberOfBytes": "32",
        "value": "t_uint256"
      },
      "t_string_storage": {
        "encoding": "bytes",
        "label": "string",
        "numberOfBytes": "32"
      },
      "t_uint256": {
        "encoding": "inplace",
        "label": "uint256",
        "numberOfBytes": "32"
      }
    }
  }
}